:0600000002008B021EB697
:01000B0032C2
:0100130032BA
:01001B0032B2
:0100230032AA
:01002B0032A2
:030033000217723F
:01003B003292
:01004300328A
:03004B000225CDBE
:01005300327A
:01005B003272
:01006300326A
:03006B000217F584
:01007300325A
:01007B003252
:030083000221CC8B
:0300E9000200868C
:030086000202E68D
:1000EC009001BA12081D90F000E4F0A3F0A3F0A365
:1000FC00F090F00404F0021A1EE50A70012290F64A
:10010C00E2740DF0AF9A74FE5FF59AE50A20E403F1
:10011C000201B390F2AEE0FFB40100E433FF24B36C
:10012C00FDE434F6FE8D828E83E060030201B39011
:10013C00DF04E0FE30E03B8F06EE2EFDE424AFF54D
:10014C0082ED34F2F583E0FE8E327533008F06EECD
:10015C002EFDE424AFFEED34F2FD74012EF534E4F3
:10016C003DF535753101758242C007120308D00781
:10017C00802890DF02E0FE8E327533008F06EE2E63
:10018C00FDE424AFFEED34F2FD8E348D3575310176
:10019C00758242C007120308D007EF24B3F582E43E
:1001AC0034F6F5837401F0750A00439A012290F23B
:1001BC0069E054FDF09000002290DF2FE4F090DF16
:1001CC0030F090DF31F090DF00740CF090DF0174B0
:1001DC004EF090DF0274FFF090DF037440F090DF7C
:1001EC00047401F090DF05E4F090DF06F090DF0777
:1001FC007406F090DF08E4F090DF097424F090DFCF
:10020C000A743AF090DF0B74F1F090DF0C74CAF0C2
:10021C0090DF0D74A3F090DF0E7403F090DF0F7479
:10022C0023F090DF107411F090DF117436F090DF32
:10023C00127407F090DF13743FF090DF147418F011
:10024C0090DF1514F090DF16746CF090DF177403C8
:10025C00F090DF187440F090DF197491F090DF1A71
:10026C007456F090DF1B7410F090DF1C74E9F09062
:10027C00DF1D742AF090DF1EE4F090DF1F741FF076
:10028C0090DF237488F090DF247431F090DF2574B4
:10029C0009F090DF2E7450F090DF07740CF090DFB3
:1002AC00097425F090DF0A7495F090DF0B7455F00B
:1002BC0090DF1A74B6F090DF1B7410F090DF1C7492
:1002CC00EAF090DF1D742AF090DF1EE4F090DF1F3F
:1002DC00741FF02212259B0225C71202E012190B83
:1002EC001225F4120580121AA11200ECD2AF1205DD
:1002FC00AF1204531215E712010580F8AF827E018C
:10030C0090DE0E7405F090F6E27412F0E53245338F
:10031C0070030204497C107D2790DE11E0FB30E075
:10032C000D90F6E37401F01CBCFF011D80EBEC4D4D
:10033C007014D2919003E8122453C2919003E812E6
:10034C00245390FFFF22BE012C7E0090DE2A7440C5
:10035C00F0EFF0E531F0AC327D00ECF0E533F0C3BA
:10036C00743B9532E4953350067C3B7D00801AAC8F
:10037C0032AD338014C374409532E4953350067C0F
:10038C00407D008004AC32AD337480252842D68584
:10039C002582852683AA34AB358B01E9F08525822D
:1003AC00852683A3EAF0852582852683A3A374DEA4
:1003BC00F0852582852683A3A3A3742AF085258244
:1003CC00852683A3A3A3A3A3ECFBF0852582852616
:1003DC0083A3A3A3A3E054E0F0852582852683A301
:1003EC00A3A3A3A3A3A3E0543F4440F08525828597
:1003FC002683A3A3A3A3A3A3A3E054CFF0E5284291
:10040C00D6E52842D7E52855D160FAE528F452D133
:10041C0090DE0E7405F090DE11E0FB74014BF0E5FC
:10042C0032C39CF532E5339DF533EC2534F534EDD0
:10043C003535F53590F6E27413F002031890F6E2B8
:10044C007414F090000022E52170051215E780F776
:10045C0022AFBE747F5FF5BE43BE8090DE0B74F797
:10046C00F090DE0774FFF090DE09F0438C10AF8C37
:10047C0074FE5FF58CD2BD439A02758900C2C575B6
:10048C008B00C2E843A90243B902852582852683E5
:10049C00A3A3A3A3E054E0F0852582852683A3A320
:1004AC00A3A3A3A3E0549F4420F085258285268333
:1004BC00A3A3A3A3A3A3A3E04408F08525828526C8
:1004CC0083A3A3A3A3A3A3A3E054FC4401F090DE55
:1004DC0001E0FF74FE5FF0E4F524F522F523F5212D
:1004EC0090DE0EF090DE107408F090DE13F090F2B7
:1004FC0058E4F090F257F090F24CF0A3F090F24EDA
:10050C007405F074F0A3F0E4A3F090F251F0A3F0B2
:10051C0090F253F090F254F090F255F0A3F090DE7C
:10052C000E7405F090DE107408F090DE13F090DE7F
:10053C0012E0FF74014FF090DE15E0FF74014FF0F4
:10054C0090F26AE4F090F269F090F25EF0A3F09011
:10055C00F2607445F074F0A3F0E4A3F090F263F051
:10056C00A3F090F265F090F266F090F267F0A3F0D1
:10057C00439A02221219358582278527F005F074DB
:10058C0001800225E0D5F0FBF528E52775F008A4DD
:10059C002496F52574F235F0F52690F6E27402F007
:1005AC0002045DD29022C29022AFF0AE83E582901D
:1005BC00F273F0EEA3F0EFA3F090F258E06034D2B7
:1005CC00919003E8122453C2919003E8122453D261
:1005DC00919003E8122453C2919003E8122453D251
:1005EC00919003E8122453C2919003E81224539083
:1005FC00FFFF2290F273E0FDA3E0FEA3E0FF90F278
:10060C0049EDF0EEA3F0EFA3F090F24CE536F0E5F7
:10061C0037A3F090F2587401F090000022AF83E5FC
:10062C008290F276F0EFA3F090F258E06034D29121
:10063C009003E8122453C2919003E8122453D291F0
:10064C009003E8122453C2919003E8122453D291E0
:10065C009003E8122453C2919003E812245390FFA4
:10066C00FF2290F276E0FEA3E0FF7D0090F249EECF
:10067C00F0EFA3F0EDA3F090F24CE538F0E539A3E0
:10068C00F090F2587401F0900000227F0290DE0E80
:10069C00E4F090F24CE0FDA3E0FEC374409DE49EB8
:1006AC0050047C4080048D047F0A8C027B00EDC3D7
:1006BC009AFDEE9BFE90F24CEDF0EEA3F08C06EE64
:1006CC00603690F249E0FBA3E0FCA3E0FD8B828C4A
:1006DC00838DF0122BBF90DE20F090F249E0FBA34B
:1006EC00E0FCA3E0FD0BBB00010C90F249EBF0EC3D
:1006FC00A3F0EDA3F01E80C790DE11E04FF090F256
:10070C004CE0FEA3E0FF4E700590F258E4F022900E
:10071C00F2587402F07582002290F24EE0FDA3E0D4
:10072C00FEA3E0FF90DE11E0FCB40100E433FC20FA
:10073C00E0F290DE0EE4F090DE16E0FC7B0090F22E
:10074C0051ECF0EBA3F090F257E0FC30E11390F297
:10075C00587403F090DE11E0FC74044CF090FFFF31
:10076C002290F257E04402F090F251E0FBA3E0FC3F
:10077C00C374409BE49C501CD29190012CC007C0C8
:10078C0006C005122453C29190012C122453D0059B
:10079C00D006D00790F251E0FBA3E0FC8D07EB4CA8
:1007AC00601690DE20E0FD8F828E83F0A3AF82AEC8
:1007BC00831BBBFF011C80E6E52B452C6009852BB8
:1007CC0082852C8312008990F251E0FEA3E0FFC3D6
:1007DC00EE9440EF9400501DE529452A60098529C7
:1007EC0082852A8312008990DE11E0FF74084FF095
:1007FC0090F258E4F090DE11E0FF74404FF090F26C
:10080C0051E0FEA3E08E82F5832285822D85832E16
:10081C002285822F85833022753601753700900032
:10082C002475F0400205B5AFF0AE83E58290F27806
:10083C00F0EEA3F0EFA3F090F278E0FDA3E0FEA3BE
:10084C00E0FF74022DFDE43EFE8D828E838FF0124C
:10085C002BBFFDA3122BBF8D2475210122AF827DEE
:10086C005E7E2C8D828E83A3E090F27BF0AC0F9099
:10087C00F27BE0FBBBFF02803EEBB50723EC70087C
:10088C0090F27B74FFF080E71C8D828E83E02DFD4F
:10089C00E43EFE8D828E83A3E0FB90F27BF080CF52
:1008AC008D828E83E02DFDE43EFE8D828E83A3E04F
:1008BC00FB90F27BF080B88D828E8322AFF0AE83FA
:1008CC00E58290F27CF0EEA3F0EFA3F090F27CE0E6
:1008DC00F53CA3E0F53DA3E0F53E7402253CFAE4BB
:1008EC00353DFBAC3E8A828B838CF0122BBFF8A378
:1008FC00122BBFF9893A753B007402B53A06E4B580
:10090C003B0280227407B53A06E4B53B02800280B4
:10091C004274AF58FE7F008A828B838CF0EE122AD1
:10092C0075A3EF122A758A828B838CF0122BBFFA77
:10093C00A3122BBFF5828A0F120869AE82AF839087
:10094C00F27FEEF0EFA3F08E828F83A3A3E0FE7F05
:10095C0000801C8982880F120869AC82AD8390F2EA
:10096C007FECF0EDA3F08C828D83E0FCFE7F0074B5
:10097C0006253CFBE4353DFCAD3E8B828C838DF033
:10098C00122BBFFCA3122BBFFDC3EC9EED9F50049A
:10099C008C068D07EE4F700990DE11E0FD74204D32
:1009AC00F090F27FE0FCA3E0FD8E388F398C828DC5
:1009BC008302062990DE0EE4F090DE11E0FF30E4B5
:1009CC000E90F258E4F090DE11E0FE74804EF0EFE1
:1009DC0030E22490DE11E4F090F6E37404F090F22F
:1009EC0058E4F0D291900014C007122453C2919095
:1009FC000014122453D00790F258E0FEBE0319D213
:100A0C0091900032C007122453C2919000321224EC
:100A1C0053D00790F258E4F090F258E06003020DC6
:100A2C0000EF20E003020D0090DE0EE4F090DE16E5
:100A3C00E0FFFE7B3F7C007D40EE601690DE20E008
:100A4C00FA8B828C838DF0122A75A3AB82AC831E39
:100A5C0080E7E53FFE20E703020BD374605EFD6088
:100A6C0015BD2003020B8DBD4003020B99BD600325
:100A7C00020BBE020CE8741F5EFF7041AD40BD005E
:100A8C0002801CBD06028005BD0826800C90003F2C
:100A9C0075F0401208C8020CE8120824020CE87524
:100AAC003602753700902C3C75F0801205B5020C9F
:100ABC00E890003F75F040121822020CE8BF014587
:100ACC00AD40BD00028005BD0A2680127536027548
:100ADC003700902C3C75F0801205B5020CE8753689
:100AEC0001753700902C3F75F0801205B5020CE8AB
:100AFC0090DE11E0FD74204DF090003F75F0401237
:100B0C001822020CE8BF0236AD40BD00028008BDC1
:100B1C001203020CE88012753602753700902C3CDB
:100B2C0075F0801205B5020CE890DE11E0FD742022
:100B3C004DF090003F75F040121822020CE8BF03F4
:100B4C002BE4B54012753602753700902C3C75F0CD
:100B5C00801205B5020CE890DE11E0FD74204DF01A
:100B6C0090003F75F040121822020CE890003F757F
:100B7C00F04012182290DE11E0FD74204DF0020CB2
:100B8C00E890DE11E0FD74204DF0020CE8E52D45F7
:100B9C002E6013120BA4800BC02DC02E90003F753D
:100BAC00F04022020CE890003F75F040120D170245
:100BBC000CE890DE11E0FD74204DF090003F75F0D4
:100BCC0040121822020CE874605EFD6015BD200313
:100BDC00020C9FBD4003020CB3BD6003020CD60295
:100BEC000CE8741F5EFF7048AE40BE0103020CE8B7
:100BFC00BE0303020CE8BE0502800BBE0703020C09
:100C0C00E8BE0917800990DE00E541F0020CE8907F
:100C1C00003F75F040120833020CE890003F75F06D
:100C2C004012182290DE11E0FE74204EF0020CE807
:100C3C00BF0129AE40BE0103020CE8BE0303020C47
:100C4C00E8BE1103020CE890003F75F04012182228
:100C5C0090DE11E0FE74204EF0020CE8BF0220AFD3
:100C6C0040BF01028076BF0302807190003F75F097
:100C7C004012182290DE11E0FF74204FF0805D903E
:100C8C00DE11E0FF74204FF090003F75F040121819
:100C9C0022804990003F75F04012182290DE11E03E
:100CAC00FF74204FF08035E52D452E6012120CBEDE
:100CBC00800BC02DC02E90003F75F04022801D90FF
:100CCC00003F75F040120D17801290DE11E0FF749A
:100CDC00204FF090003F75F04012182290DE11E08A
:100CEC00FF74404FF0E5454546700990DE11E0FF7A
:100CFC0074084FF090F258E0FFBF01031206979072
:100D0C00F258E0FFBF020302072522AFF0AE83E5E5
:100D1C008290F281F0EEA3F0EFA3F090F281E0FD6F
:100D2C00A3E0FEA3E0FF8D828E838FF0122BBFFC1D
:100D3C0020E703020E7174012DFAE43EFB8F048A46
:100D4C00828B838CF0122BBFFC601EBC0102802BAB
:100D5C00BC0202803CBC03028073BC0403020E0E76
:100D6C00BCFE03020E2B020ED775360275370090AF
:100D7C00F6E275F0001205B5020ED790DE00E0FC2D
:100D8C007B007538288B398C828B83120629020ED6
:100D9C00D774022DFAE43EFB8F048A828B838CF08D
:100DAC00122BBFFAA3122BBFFB74062DF8E43EF9ED
:100DBC008F04888289838CF0122BBFF538A3122BF9
:100DCC00BFF5398A828B83120629020ED78D028ECB
:100DDC00038F048A478B488C4974062DF8E43EF93E
:100DEC008F04888289838CF0122BBFF536A3122BCB
:100DFC00BFF5378547828548838549F01205B502D2
:100E0C000ED790F24EE0FAA3E0FBA3E0FC7538108D
:100E1C007539008A828B838CF0120629020ED774E6
:100E2C00022DFAE43EFB8F0490F6E87441F0742C2A
:100E3C00A3F07480A3F0750F047510008A828B8365
:100E4C008CF0122518E5828583F045F06012D29162
:100E5C0090012C122453C29190012C122453806BBC
:100E6C0075C983806690F26EE0FCBC015674022D4D
:100E7C00FDE43EFE8D828E838FF0122BBFFDA312FC
:100E8C002BBFFE90DE0EE4F090DE16E0FF7C0075CA
:100E9C000E088F828C83C007C006C005C0041224C4
:100EAC0098D004D005D006D007EF4C601690DE2009
:100EBC00E0FB8D828E83F0A3AD82AE831FBFFF015A
:100ECC001C80E690F257E054FDFFF0900000229059
:100EDC00F269E0FF30E10A90F6E37405F090FFFF51
:100EEC002290DE0E7405F090DE16E0FF8F4A754BF3
:100EFC000090DE17E0FCE4254AF54AEC354BF54B47
:100F0C0090F267E0FCA3E0FD4C705890F263E4F0C3
:100F1C00A3F090DE2AE090F265F090DE2AE090F2E9
:100F2C0066F090DE2AE0FD7C0090F267EDF0ECA319
:100F3C00F090DE2AE0FAE4FB2DFDEA3CFC90F2672F
:100F4C00EDF0ECA3F0E54A24FCF54AE54B34FFF553
:100F5C004BC374049D74029C500990F2677404F0A6
:100F6C0003A3F0E52855D16012D2919000141224FD
:100F7C0053C29190001412245380E890F260E0FB6D
:100F8C00A3E0FCA3E090F263E0FAA3E0FFEA2BFB02
:100F9C00EF3CFC7480252842D685258285268374F7
:100FAC00DEF0852582852683A3742AF0852582852B
:100FBC002683A3A38C07EFF0852582852683A3A324
:100FCC00A3EBF0852582852683A3A3A3A3A3A3A3C8
:100FDC00E0543FF0852582852683A3A3A3A3A3A376
:100FEC00A3E054CF4410F074052525FEE43526FF0C
:100FFC0090DE16E0FD8E828F83EDF074042525FEC5
:10100C00E43526FF90DE17E08E828F83541FF5F0B7
:10101C00E054E045F0F090F263E0FEA3E0FFEE2533
:10102C004AFCEF354BFDC374049C74029D500B7449
:10103C0004C39EF54A74029FF54BC37440954AE471
:10104C00954B502890F6E37406F090DE14E0FD7496
:10105C00FE5DF0750E04900005122498750E108537
:10106C004A82854B8312249890FFFE22E52842D6B3
:10107C00E52842D7E54A2EFEE54B3FFF90F263EEA2
:10108C00F0EFA3F0E52855D160FAE528F452D190A1
:10109C00F263E0FEA3E0FF90F267E0FCA3E0FDC387
:1010AC00EE9CEF9D402C90F269E04402F090F267C8
:1010BC00E4F0A3F090DE0E7405F0AE2274BF55235D
:1010CC00FF8E228F2390DE14E0FF74FE5FF0900001
:1010DC00012290DE0E7405F0AE2274BF5523FF8EF4
:1010EC00228F2390DE14E0FF74FE5FF0900000224C
:1010FC0090F269E0FF20E1012290F260E0FDA3E0B4
:10110C00FEA3E0FF90F284EDF0EEA3F090F265E028
:10111C00F55374FFB55302800302158E90F266E00E
:10112C00FBBB80005003021570EB246F50030215BB
:10113C0070EB2480FA240A83F582EA241583F58364
:10114C00E47370059BD8B8EF10276049707070700D
:10115C00C8FB57111213131213141414141515156C
:10116C00151414158D828E838FF0122BBFFA740117
:10117C002DF54EE43EF54F8A5175520090F267E51D
:10118C0051F0E552A3F0854E82854F83E0F5507403
:10119C0001254EF553E4354FF554A9508902E4F975
:1011AC002551F551EA3552F55290F267E551F0E5CB
:1011BC0052A3F0855382855483E0F8854E82854F87
:1011CC0083A3A3884C894DE0FAE4254CF54CEA3511
:1011DC004DF54D854C34854D3590F265E0FA90F225
:1011EC0066E0F5318551328552338A8212030890BC
:1011FC00F267E4F0A3F00215868D828E838FF012D5
:10120C002BBFFA8D828E83A38A4C754D00E0FA7445
:10121C00022DF553E43EF5548A018902E4254CF580
:10122C004CEA354DF54DA84CAA4D90F26BE8F0EA1E
:10123C00A3F090F263E0F9A3E0FAE924FEF54CEA9E
:10124C0034FFF54D854C51854D52E5514552603D6D
:10125C0090F26BE0F54EA3E0F54F7401254EF9E4E6
:10126C00354FFA90F26BE9F0EAA3F085538285547E
:10127C0083E0FAA3858253858354854E82854F8300
:10128C00EAF0155174FFB55102155280BD90F2650C
:10129C00E0FA90F266E0F5317534677535F2753227
:1012AC00027533008A8212030802158690F269E0F7
:1012BC00FA20E23C8D828E838FF0122BBFFA8D8246
:1012CC008E83A38A4C754D00E0FA90F28474022D43
:1012DC00F0E43EA3F08A018902E4F9254CF54CEACE
:1012EC00354DF54DA84CAA4D90F26BE8F0EAA3F001
:1012FC0090F267E0F9A3E0FA894C8A4DC3744095EB
:10130C004CE4954D5006754C40754D00E9C3954C19
:10131C00F9EA954DFA90F267E9F0EAA3F090F284BD
:10132C00E0F551A3E0F552854C53854D54E55345FA
:10133C0054603D90F26BE0F54EA3E0F54F7401253F
:10134C004EF9E4354FFA90F26BE9F0EAA3F08551CF
:10135C0082855283E0FAA3858251858352854E8221
:10136C00854F83EAF0155374FFB55302155480BDB5
:10137C0090F265E0FA90F266E0F5317534677535F8
:10138C00F27532027533008A82120308021586D276
:10139C0091900002C007C006C005122453C2919060
:1013AC000002122453D005D006D00790F265E0FA63
:1013BC0090F266E0F53190F263E0F532A3E0F5339C
:1013CC008D348E358A821203080215867534467563
:1013DC00352C8B3175320D75330085538212030811
:1013EC0002158690F6E4E0F8A3E0F9A3E0A3E08808
:1013FC003489358B31753204753300855382120371
:10140C000802158675342B75352C8B317532117598
:10141C00330085538212030802158690F263E0F5BF
:10142C0032A3E0F5338B318D348E35855382120324
:10143C00089000C8122453121955021586753422CF
:10144C0075352C8B31753209753300855382120337
:10145C00080215868D828E838FF0122BBFFC7401CF
:10146C002DF9E43EFABC0202800ABC03028021BCC6
:10147C000429800DC002C001121A1ED001D00280B6
:10148C001AC291C002C001121A68D001D002800B9E
:10149C00C002C001121A3FD001D00290F265E0FCEC
:1014AC0090F266E0F53190F263E0F532A3E0F533AB
:1014BC0089348A358C8212030802158690F267747F
:1014CC0001F0E4A3F07534367535DF90F265E0FC7D
:1014DC0090F266E0F53190F267E0F532A3E0F53377
:1014EC008C8212030890F267E4F0A3F00215868D4B
:1014FC00028E048C017C0090F6E87454F0742CA3DA
:10150C00F07480A3F0750F098C108A8289838CF09B
:10151C00C007C006C005122518E5828583F0D005EA
:10152C00D006D00745F0705275C98090F265E0FC8A
:10153C0090F266E0F53190F263E0F532A3E0F5331A
:10154C008D348E358C82120308802F90F6E2E4F0F5
:10155C0090F6E3F090F286EDF0EEA3F075820212B5
:10156C0015B6801690F263E0F532A3E0F5338B31BB
:10157C008D348E3585538212030890F269E054FD48
:10158C00F022E52F45306019852F828530831200BB
:10159C0089AE82AF83EE4F701090F269E054FDF08B
:1015AC002290F269E054FDFFF022E58290F288F07F
:1015BC0090F269E054FDF090F265E0FF90F266E085
:1015CC00F53190F288E0FE8E3275330090F286E0B1
:1015DC00F534A3E0F5358F82020308E52230E011E3
:1015EC0075210274FE5522FEAF238E228F2343BE3B
:1015FC0001E5225406602F90F6E2740AF07521037F
:10160C0074FD5522FEAF238E228F2390DE01E0FF66
:10161C0074044FF090000812245390DE01E0FF7424
:10162C00FB5FF075210190DE0EE4F090DE11E0FF1F
:10163C0030E21A90DE11E0FF74DB5FF090F24CE4C4
:10164C00F0A3F090F251F0A3F090F258F090DE0E6F
:10165C007405F090DE11E0FF30E52090DE11E0FF24
:10166C0074CF5FF090F6E37408F090F25EE4F0A3B0
:10167C00F090F263F0A3F090F26AF090DE14E0FFC9
:10168C0030E62090DE14E0FF749F5FF090F6E37478
:10169C0008F090F25EE4F0A3F090F263F0A3F09007
:1016AC00F26AF0E52220E2057404B5211412045DFF
:1016BC0090F6E2740BF074FB5522FEAF238E228F52
:1016CC0023E52230E4111209C074E75522FE740F91
:1016DC005523FF8E228F23E52330E65490F6E274D7
:1016EC000CF0120EDBAE82AF83BEFE41BFFF3E900C
:1016FC00F2897406F0E4A3F090F265E0FF90F266D4
:10170C00E0F5317534897535F27532027533008F19
:10171C008212030890F265E0FF7534897535F27515
:10172C0031017532027533008F821203081210FCDE
:10173C00E52254E07006E52354BD602990F6E3746D
:10174C0009F0750E08900044122498852282852396
:10175C0083750E1012249874E05522FE74BD552327
:10176C00FF8E228F2322C0E0C082C083C007C00638
:10177C00C005C004C0D075D000E5BE30E6FB90DEDD
:10178C0006E0FF7E00E5224207E52342068F228E0B
:10179C002390DE02E0FDE4CDC4CD6DCD54F0CD6DD3
:1017AC00FCED4207EC42068F228E2390DE04E025EE
:1017BC00E0FCE4FD4207EC42068F22EEF52330E11B
:1017CC001290F269E054FEF0AE2274FD5523FF8EA8
:1017DC00228F23758B00C2E8D0D0D004D005D00660
:1017EC00D007D083D082D0E032C0E0C007C0D07523
:1017FC00D000E5BE30E6FBC2AFE58930E7037521CA
:10180C0003AFBE74FC5FF5BE758900C2C5D2AFD004
:07181C00D0D007D0E032221A
:102C2200534443437633343000444F4E53444F4E63
:102C3200474C45207230343530000000000000520D
:102C420053544E00554E494D504C454D454E5445FA
:102C5200440052455345545F4E4F57001201100134
:102C620000000040501D48600001010203010A06F5
:102C72001001000000400100090220000101008053
:102C8200FA09040000020000010007058502400065
:102C92000107050502400001040309040C03520068
:102CA2006600430061007400180344006F006E0068
:102CB2007300200044006F006E0067006C00650026
:0C2CC2000A03300030003000300000FF3A
:10182300AF83E58290F28BF0EFA3F090F28BE0FEB2
:10183300A3E0FF7C007D008E028F038A828B83E00E
:10184300F9A3AA82AB83E960070CBC00EE0D80EB21
:101853007531F08C328D338E348F357582FE0203F1
:1018630008AF83E58290F28DF0EFA3F090F28DE064
:10187300FEA3E0FF7C007D008E028F038A828B83B0
:10188300E493F9A3AA82AB83E960070CBC00ED0DD6
:1018930080EA8E348F357531F08C328D337582FE4C
:1018A300020308E58290F28FF075348F7535F27577
:1018B30031F17532017533007582FE020308AF837F
:1018C300E58290F290F0EFA3F07534907535F275E0
:1018D30031F27532027533007582FE020308AF825E
:1018E300AE83ADF0FC90F292EFF0EEA3F0EDA3F037
:1018F300ECA3F07534927535F27531F375320475D6
:0819030033007582FE020308A7
:0500E400E4F508F50938
:10190B007E967FF28FD57E967FF28ED47E9E7FF26F
:10191B008FD37E9E7FF27F008ED28F0F7510188F24
:10192B001190F29675F000022A0A7403B50806E4CA
:10193B00B50902800280047582FF22AE08AF09054B
:10194B0008E4B5080205098E822290DF46E0FFBF4E
:10195B00F00E90DF47E0FFBF0D0690DF487469F093
:10196B00C2AF759A0075B80075A8001205B2AFBE6C
:10197B00747F5FF5BE75D69FC29102000022122ABA
:10198B0029AC82AD83AEF0FFC004C005C006C00712
:10199B009037BD75F086743D122906AC82AD83AECF
:1019AB00F0FFE58124FCF581E4C0E0C0E074C0C029
:1019BB00E07441C0E08C828D838EF0EF122AFCAC78
:1019CB0082AD83AEF0FFE58124FCF5818C828D83A3
:1019DB008EF0EF122A3CAC82AD83AEF090DF09EEB5
:1019EB00F08D0390DF0AEBF090DF0BECF02275E14A
:1019FB000490DF3BE0FFBF01F890F6B9E0F5E19012
:101A0B00F6B9E0FFBF04012290DF3BE0FFBF01020C
:101A1B0080ED2290F6B9E0FFBF02012290DF13E0C8
:101A2B00FF74F05FF0E0FF740F4FF090F6B97402A3
:101A3B00F0021E5D90F6B9E0FFBF03012290DF13A9
:101A4B00E0FF74F05FF0E0FF740A4FF090F6B974AA
:101A5B0003F0F5E190DF3BE0FFBF13F82290F6B9FE
:101A6B00E0FFBF04012290DF13E0FF74F05FF0AFE3
:101A7B009174EF5FF59175E10490DF3BE0FFBF01DF
:101A8B00F8AF9B74FC5FF59BAFE974EF5FF5E990E2
:101A9B00F6B97404F02290F6BCE4F0A3F090F6AF24
:101AAB00F0A3F090F6B1F0A3F053C6C7759D008577
:101ABB009E9E439E0485A9A943B90190F6B974046F
:101ACB00F0750F00751000F51190F2AF75F0001264
:101ADB002A0A1201C5D2A87591D175E900750A00C1
:101AEB00439A0175E10490DF3BE0FFBF01F8227ED2
:101AFB00007F00C3EE94DCEF9405502490DF3CE0B4
:101B0B00FD5450600490000122900032C007C006C3
:101B1B0012247AD006D00774322EFEE43FFF80D316
:101B2B0090000022AF83E58290F6D9F0EFA3F090FE
:101B3B00F6DBE4F090DF02E0FF90DF3BE0FEBE134C
:101B4B000BB291C0071215E7D00780EDC29190F749
:101B5B0027E4F090F6D5E0FDA3E0FE90F71DEDF045
:101B6B00EEA3F090F6D7E0FBA3E0FC90F723EBF0AD
:101B7B00ECA3F090F6D3E0F9A3E0FA90F71FE9F0AD
:101B8B00EAA3F090F721E9C39BF0EA9CA3F090F74E
:101B9B0021E0FBA3E0FC8D0F8E108B828C83C007A2
:101BAB00C006C005C002C001122A90AB82AC83D024
:101BBB0001D002D005D006D00790F725EB29F0EC29
:101BCB003AA3F0E94A705D90F6D9E0FBA3E0FC8BF9
:101BDB00828C83E0F8880B750C0090F6D3E50BF044
:101BEB00E50CA3F090DF04E0F8530003B80002808B
:101BFB0018B801028003021CC190F6D37401250BA7
:101C0B00F0E4350CA3F0021CC190F6D974012BF053
:101C1B00E43CA3F090F6D3E0FBA3E0FC90DF02EBF7
:101C2B00F0021CC190DF04E0FC530403BC000280F3
:101C3B0046BC01028003021CC190F6D9E0FBA3E075
:101C4B00FC90F6DCE9F0EAA3F090F6DE7401F0E428
:101C5B00A3F08B828C83C007C002C0011223FED07D
:101C6B0001D002D00790F6D9E0FBA3E0FC89008BF2
:101C7B00828C83E8F0803FED4E603690F725E0FDD7
:101C8B00A3E090DF02EDF090DF04E0FE74FC5EF069
:101C9B0090F725E0FDA3E0FEC374FF9DE49E500981
:101CAB0090DF04E0FE74024EF090F7277401F08091
:101CBB000590DF02E9F0D2A890F728E0FE20E303BD
:101CCB00021DEF90DF04E0FE530603BE010690F603
:101CDB00DB7401F090F6DBE0FE90F6D9E0FCA3E0BC
:101CEB00FDEE2CFAE43DFB90F6D3E0F8A3E0F9907F
:101CFB00F6FAE8F0E9A3F08A828B83C007C006C02E
:101D0B0005C004122747AA82AB83D004D005D006A6
:101D1B00D00790F728E0F9530104B90448C007EE47
:101D2B002CF8E43DF990F728E0FF5307F090F6FE0E
:101D3B00E8F0E9A3F090F700EAF0EBA3F090F702DC
:101D4B00EFF088828983C007C006C005C004C003BA
:101D5B00C002122781D002D003D004D005D006D008
:101D6B0007D0078046C007EE2CF8E43DF990F72822
:101D7B00E0FF5307F090F705E8F0E9A3F090F707C1
:101D8B00EAF0EBA3F090F709EFF088828983C007A4
:101D9B00C006C005C004C003C0021227CAD002D0BF
:101DAB0003D004D005D006D007D007EE601E90F705
:101DBB0028E0FE5306F0BE50098C828D837410F020
:101DCB0080228A068C828D83EEF0801890F728E0B3
:101DDB00FE5306F0BE500890DF027410F0800590A1
:101DEB00DF02EAF090F6D9E0FDA3E0FE90F6B5ED48
:101DFB00F0EEA3F090F71BE4F0A3F075E1037D6028
:101E0B007EEA90DF3BE0FCBC1302801C1DBDFF0192
:101E1B001EED4E6013B291C007C006C0051215E748
:101E2B00D005D006D00780DAD291ED4E700690F631
:101E3B00E37413F090DF3BE0FEBE130BB291C007CF
:101E4B001215E7D00780EDC29190DF02EFF075829B
:101E5B000122D2A8750F0075100075110290F2AF18
:101E6B0075F000122A0A90F6AFE4F0A3F090F6B1E9
:101E7B00F0A3F090F6B3F090F6B404F090F2AEE469
:101E8B00F0AF9B74FC5FF59BAFE974EF5FF5E97501
:101E9B00E10290DF3BE0FFBF0DF84391102290F77A
:101EAB002A7401F02290F72AE4F022C020C0E0C08F
:101EBB00F0C082C083C007C006C005C004C003C009
:101ECB0002C001C000C0D075D00090F6E27411F0D2
:101EDB00C28990DF3BE0FFBF0D028003021FF9D2E6
:101EEB009190F714E0FF602A90F715E0FEA3E0FF56
:101EFB0090F715E024FFFCA3E034FFFD90F715EC01
:101F0B00F0EDA3F074FF2F400990DF04E0FF74FCA9
:101F1B005FF090F6B97402F090F2AEE025E0FEE4CB
:101F2B0024AFFFEE34F2FEE075F002A424AFFC7494
:101F3B00F635F0FD8C828D83E0FAA3E0FB74012A69
:101F4B00F8E43BF98C828D83E8F0E9A3F0EA2FF5F6
:101F5B0082EB3EF583E5D9F090F2AEE075F002A48A
:101F6B0024AFF58274F635F0F583E0FEA3E0FFC3F2
:101F7B009402501A90F2AEE075F002A424AFF582F1
:101F8B0074F635F0F583E0FEA3E0FF4E701A90F285
:101F9B00AEE0FF75F002A424AFF58274F635F0F5D0
:101FAB008374FFF07401A3F090F715E0FEA3E0FF3C
:101FBB004E60030221AF90F714E0FF70030221AFD4
:101FCB0090F717E0FEA3E0FF90F715EEF0EFA3F00C
:101FDB0090F715E0FEA3E090DF02EEF090DF04E057
:101FEB00FF74FC5FF0E0FF74024FF00221AF90DF53
:101FFB003BE0FFBF130280030221AF90F727E0FF06
:10200B00700302214090F6CBE0FEA3E0FF0EBE0072
:10201B00010F90F6CBEEF0EFA3F090F71BE0FEA3D1
:10202B00E0FF90F71FE0FCA3E0FDEEB50406EFB573
:10203B000502800302211390F71DE0FEA3E0FF4E83
:10204B00603790F71DE0FEA3E0FFBEFF05BF000267
:10205B00801490F71DE024FFFEA3E034FFFF90F700
:10206B001DEEF0EFA3F090F723E0FEA3E0FF90F757
:10207B001BEEF0EFA3F002211390F71FE0F50FA377
:10208B00E0F51090F719E0FF7E008F828E83122A05
:10209B0090AE82AF8390F6B5E0FCA3E0FDEE2CF59D
:1020AB0082EF3DF583E4F090F719E02401F0E0FFB7
:1020BB0090F71AE0FEEFB5060590F719E4F090F7EC
:1020CB001FE0F50FA3E0F51090F719E0FF7E008FEE
:1020DB00828E83122A90AE82AF8390F6B5E0FCA37A
:1020EB00E0FDEE2CFEEF3DFF8E828F83E0701090B3
:1020FB00F6BEE4F090F6E37412F01219F9C2919067
:10210B00F71B7401F0E4A3F090F725E0FEA3E0FFCA
:10211B0090F725E024FFFCA3E034FFFD90F725ECBE
:10212B00F0EDA3F0BEFF22BF001F90DF04E0FF74B1
:10213B00FC5FF0801490F725E024FFFEA3E034FF52
:10214B00FF90F725EEF0EFA3F090F6B97403F09043
:10215B00F71FE0F50FA3E0F51090F719E0FF7E00F5
:10216B008F828E83122A90AE82AF8390F71BE0FC96
:10217B00A3E0FD90F71BE02401F0A3E03400F0ECAA
:10218B002EFEED3FFF90F6B5E0FCA3E0FDEE2CF547
:10219B0082EF3DF583E0F5D990F6B7E02401F0A38B
:1021AB00E03400F0D0D0D000D001D002D003D00466
:1021BB00D005D006D007D083D082D0F0D0E0D0208D
:1021CB0032C020C0E0C0F0C082C083C007C006C0D0
:1021DB0005C004C003C002C001C000C0D075D00050
:1021EB00750D0090F6E27410F0AE9B74FC5EF59BDF
:1021FB00E5E9420AE5E930E02090F6BAE0FDA3E01C
:10220B008D067D00AB9C7C0090F6BCED4BF0EE4C4C
:10221B00A3F0AEE974FE5EF5E9E5E95470700302D4
:10222B0023AF90F6B9E0FEBE030AAE0A748F5EF5DB
:10223B000A0223A890F2AEE0FEB40100E43324B30B
:10224B00F582E434F6F583E0FEBE0102800302233F
:10225B008590F728E0FE20E10302235E90DF04E087
:10226B00FE530603BE0103750D0190F728E0FE53E4
:10227B000601BE017090F2AEE025E0FDE424AFFE56
:10228B00ED34F2FDAB0D7C00EB2EFEEC3DFDE0F9E9
:10229B0029FAE424AFF9EA34F2FAEB29FBEC3AFC25
:1022AB00E075F002A424AFF58274F635F0F583E007
:1022BB00F9A3E0FAA80D7F00E9C398F9EA9FFA9019
:1022CB00F728E0FF5307F090F6FEEBF0ECA3F0904D
:1022DB00F700E9F0EAA3F090F702EFF08E828D831E
:1022EB00122781806E90F2AEE025E0FEE424AFFF72
:1022FB00EE34F2FEAC0D7D00EC2FFFED3EFEE02543
:10230B00E0FAE424AFFBEA34F2FAEC2BFCED3AFDF5
:10231B00E075F002A424AFF58274F635F0F583E096
:10232B00FAA3E0FBA80D7900EAC398FAEB99FB90AE
:10233B00F728E0F95301F090F705ECF0EDA3F090DE
:10234B00F707EAF0EBA3F090F709E9F08F828E83A1
:10235B001227CA90F2AEE0FF74016FF0E0FF75F048
:10236B0002A424AFF58274F635F0F583E4F0A3F004
:10237B0090F6B3F090F6B4F0802190F6E37412F07F
:10238B00B29190F2AEE0FF75F002A424AFF5827427
:10239B00F635F0F583E4F0A3F0B291C291AFE97496
:1023AB00CF5FF5E9E5E930E61490F6E37410F0B28F
:1023BB00911219F9B291AFE974BF5FF5E9E5E93014
:1023CB00E71490F6E37411F0B2911219F9B291AFD0
:1023DB00E9747F5FF5E9D0D0D000D001D002D003F3
:1023EB00D004D005D006D007D083D082D0F0D0E077
:1023FB00D02032AF83E58290F6E0F0EFA3F090F6B9
:10240B00DEE0FEA3E0FF90F6E0E0FCA3E0FD90F63B
:10241B00DCE0FAA3E0FB8A008B011ABAFF011BE890
:10242B00496024EE2AF8EF3BF9E82CF8E93DF9EA8C
:10243B002CF582EB3DF583C006C007E088828983CB
:08244B00F0D007D00680CF227B
:102CCE0000000000000001000000000000000000F5
:072CDE0000000000000000EF
:10245300AE82AF831EBEFF011FC3E49E74808FF064
:1024630063F08095F0500F7C4C7D041CBCFF011D74
:10247300EC4D70F780DE22AE82E583CE25E0CE33CD
:10248300FF1EBEFF011FC3E49E74808FF063F080C4
:1024930095F040ED22AE82AF83D2919003E8C0075E
:1024A300C006122453C2919001F4122453D006D0D3
:1024B30007150EAD0EED20E754EE30E02490001921
:1024C300C007C006C005122453D2919002261224DD
:1024D30053C291900019122453D005D006D007801F
:1024E30022900113C007C006C005122453D2919055
:1024F3000032122453C291900113122453D005D0F9
:1025030006D007EFC313CE13CEFF1D80A8C2919050
:1025130003E8022453AFF0AE83E58290F6EBF0EECE
:10252300A3F0EFA3F090F6EBE0FDA3E0FEA3E0FF42
:1025330090F6E8E0FAA3E0FBA3E0FCA80FA910E8FB
:10254300496051C000C0018D828E838FF0122BBF72
:10255300F98A828B838CF0122BBFF8E9C398F511AB
:10256300D001D000E5116010E511F5123395E0F5C7
:1025730013851282851383220DBD00010E90F6EBA5
:10258300EDF0EEA3F0EFA3F00ABA00010B18B8FFC9
:10259300011980AB90000022AFBE74FB5FF5BEE56E
:1025A300BE30E6FBAFC674B85FF5C6E5C620E6FBF2
:1025B30043BE04E5BE30E6FB53C6C743E40C43E425
:1025C30001D2B92243FE03C29122C0E0C082C0837C
:1025D300C0D090F6E4E02401F0A3E03400F0A3E0DF
:1025E3003400F0A3E03400F0D0D0D083D082D0E028
:1025F30032121935AF8290F6F2EFF08FF005F074D6
:1026030001800225E0D5F0FB90F6F3F0EF75F008BA
:10261300A42496FE74F235F0FF90F6EEEEF0EFA3ED
:10262300F08E828F83A3A374DFF08E828F83A3A3A4
:10263300A374B1F08E828F83A3A3A3A3A37410F01A
:1026430074062EF582E43FF583E054E0441DF074F4
:10265300072EF582E43FF583E0543F4440F07407CE
:102663002EF582E43FF583E054FC4401F012193562
:10267300AF8290F6F4EFF08FF005F074018002253D
:10268300E0D5F0FB90F6F5F0EF75F008A42496FE84
:1026930074F235F0FF90F6F0EEF0EFA3F08E828F38
:1026A3008374DFF08E828F83A374B2F08E828F8364
:1026B300A3A3A3A3A37410F074062EF582E43FF53D
:1026C30083E054E0441EF074072EF582E43FF58363
:1026D300E054CF4410F074072EF582E43FF583E015
:1026E30054FC4401F043A91043B91022AF83E5829F
:1026F30090F6F8F0EFA3F0E5B330E3FB90F6EEE0ED
:10270300FEA3E0FF90F6F8E0FCA3E0FD8C028D034E
:102713008B028E828F83EAF090F6EEE0FEA3E0FF59
:102723008E828F83A37D00ECF090F6F3E042D69087
:10273300F6F6E0FF90F6F7E0FE4F4401F5B3E5B39C
:1027430030E3FB22AF83E58290F6FCF0EFA3F09039
:10275300F6FCE0FEA3E0FF90F6FAE0FCA3E0FDEC5C
:10276300540F60158C028D030CBC00010DEA2EF58D
:1027730082EB3FF583E4F080E68C828D8322AF8386
:10278300E58290F703F0EFA3F090F703E0FEA3E0F8
:10279300FF90F6FEE0FCA3E0FD90F700E0FAA3E073
:1027A300FB90F702E0F990F70CECF0EDA3F090F753
:1027B3000EEAF0EBA3F090F710E4F090F711E9F0D4
:1027C3008E828F83022814AF83E58290F70AF0EF9D
:1027D300A3F090F70AE0FEA3E0FF90F705E0FCA367
:1027E300E0FD90F707E0FAA3E0FB90F709E0F9902A
:1027F300F70CECF0EDA3F090F70EEAF0EBA3F090FA
:10280300F7107402F090F711E9F08E828F8302289B
:1028130014AF83E58290F712F0EFA3F0E5B330E352
:10282300FB90F712E0FEA3E0FF90F70CE0F515A391
:10283300E0F51690F711E0FB74505BF51490F71078
:10284300E0F94B4401FB740149F51390F70EE0F5F1
:102853000FA3E0F510E4F511F512C3E511950FE5AB
:10286300129510400122C00390F6EEE0F8A3E0FBBE
:10287300E5112EF9E5123FFA89048A058D04888251
:102883008B83ECF090F6EEE0FCA3E0FD8C828D836D
:10289300A3E9F090F6F0E0FCA3E0FD8C828D83A326
:1028A300A3E5112515FCE5123516FD8C028D038B6E
:1028B30002EAF090F6F0E0FAA3E0FB8A828B83A3AE
:1028C300A3A3ECF090F6F5E0FD90F6F3E0FC4D42A7
:1028D300D6D003E5146017E50F24F0FCE51034FFB0
:1028E300FDECB51109EDB512058513B380028BB369
:1028F300E5B330E3FB74102511F511E43512F5123D
:1029030002285D1229A9BC0003022ACEEF60FA3027
:10291300D502B2D1E583B4FF03022AE4E582B4FF12
:1029230003022AE4258340072482400B022ACE2493
:1029330083145003022AE4F582EA8DF0A4A8F0EA96
:102943008EF0A428F8E435F0F9EB8DF0A428E935EE
:10295300F0F9E433CA8FF0A429F9EA35F0FAEBF879
:102963008EF0A429F9EA35F0FAE433FBEC8DF0A4F8
:1029730029F9EA35F0FAE43BFBE88FF0A42AFAEBF5
:1029830035F0FBE433CCFD8EF0A42AFAEB35F0FBF3
:10299300E43CFCED8FF0A42BFBEC35F0FC20E703CB
:1029A3001229D7022AADAA82AB83A2F73392D1F5BB
:1029B300826002D2F7ACF0E58124F9F8E6FD08E67F
:1029C300FE0886F008E6A2F73392D5F5836002D2BB
:0429D300F7AFF02248
:0600BA00E478FFF6D8FD1A
:1029D7007804EC7011E58224F8500AF582E4C9CA3C
:1029E700CBFCD8EF22EC7820058220E713D58201B3
:1029F70022C3E933F9EA33FAEB33FBEC33FCD8EAC9
:102A0700158222AC82AD83AE10AF11BE0004EF6019
:102A17000C1F0FE50F122A75A3DEFADFF88C828DE3
:022A2700832208
:100098007917E94400601B7A01902CCE7814759387
:1000A800F7E493F2A308B800020593D9F4DAF275DD
:0200B80093FFB4
:102A2900FCABF0AA83A982749EC2D1F5821229D780
:102A3900022AAD7F9E122A6330D103022ACEC3EF48
:102A49009582500974FFF5F0F583F5822279001219
:102A59002BDB89828A838BF0EC22AA82AB83A2F7D3
:102A69003392D1F5826002D2F7ACF02220F711300F
:102A7900F6138883A88220F509F6A88375830022B6
:102A890080FEF280F5F022E582850FF0A4C582C0B0
:102A9900F08510F0A4D0F025F0C583850FF0A425AA
:042AA90083F583220C
:1000C0007800E84400600A79007593F0E4F309D8F9
:1000D000FC7814E84407600C790890F000E4F0A381
:0400E000D8FCD9FA75
:02008900E4731E
:102AAD00B98003EA13B34010EA2401FAE43BFBE4D6
:102ABD003CFC50047C800582BC000EBB000BBA00B0
:102ACD0008E4F5F0F583F58222A2D1E582138CF0AE
:102ADD0092F78B838A8222E4F583F58275F080F478
:102AED00A2D11322E4F583F58275F0C0747F221212
:102AFD0029A930D502B2D1BF0009BC0003022AF1C9
:102B0D00022AE4BC0003022ACEE583B4FF0BE58262
:102B1D00B4FF03022AF1022ACEE582B4FF03022A92
:102B2D00E4C395835007247F400B022ACE248014E2
:102B3D005003022AE4F582C3ED9AEE9BEF9C4011FF
:102B4D001582C3EA33F9EB33FAEC33FBE433FC8043
:102B5D0005E4CCCBCAF9C08275F019C3E99DEA9E94
:102B6D00EB9FEC9400D5F002802D400EE99DF9EA23
:102B7D009EFAEB9FFBEC9400FCC3B3E833F8E582BF
:102B8D0033F582E58333F583C3E933F9EA33FAEBA1
:102B9D0033FBEC33FC80C4B3E4F938FAE43582FB43
:102BAD00E43583FCD082500405827C801229D70243
:022BBD002AC527
:0D008B00758154122C1EE582600302008670
:102BBF0020F71430F6148883A88220F507E6A8833F
:102BCF0075830022E280F7E49322E0226040F8252B
:102BDF0082500274FFF582E824F8501ECCCBCAF95C
:102BEF00E4CC24F85014CBCAF9E4CB24F8500BCA28
:102BFF00F9E4CA24F8500379002224086010F8C3BE
:102C0F00EC13FCEB13FBEA13FAE913F9D8F1227575
:032C1F008200220E
:00000001FF
