:060000000200890207AABC
:01000B0032C2
:0100130032BA
:01001B0032B2
:0100230032AA
:01002B0032A2
:01003300329A
:01003B003292
:01004300328A
:03004B00020EF8AA
:01005300327A
:01005B003272
:01006300326A
:01006B003262
:01007300325A
:01007B003252
:03008300020AC0AE
:0300F30002008682
:0300860002026B08
:1000F60090F000E4F0A3F0A3F0A3F002032F121A8D
:1001060065E508605390F438740DF0E50830E44571
:1001160090F004E0FFB40100E433FF2409FDE43469
:10012600F4FE8D828E83E0702CB2A390F000E02462
:1001360001F0A3E03400F0A3E03400F0A3E03400C3
:10014600F0C007121C5FD007EF2409F582E434F4EF
:10015600F5837401F0750800227528187529317524
:100166002A8075270075820002133690DF2FE4F08F
:1001760090DF30F090DF31F090DF00740CF090DF0C
:1001860001744EF090DF0274FFF090DF037420F0EC
:1001960090DF04E4F090DF05F090DF06F090DF09D1
:1001A6007421F090DF0A7465F090DF0B746AF090AA
:1001B600DF077406F090DF08E4F090DF0C74CAF0F5
:1001C60090DF0D7483F090DF0E7404F090DF0F74EF
:1001D60023F090DF107411F090DF117435F090DF8A
:1001E600127407F090DF13743FF090DF147418F068
:1001F60090DF157416F090DF16746CF090DF1774AC
:1002060043F090DF187440F090DF197491F090DF9E
:100216001A7456F090DF1B7410F090DF1C74E9F02E
:1002260090DF1D742AF090DF1EE4F090DF1F741F2C
:10023600F090DF237481F090DF247435F090DF2591
:100246007409F090DF2E7450F0748EF090DF09740C
:1002560022F090DF0A74B1F090DF0B743BF02212AB
:100266000E8F020EBB120265122AEA120F1F12121D
:1002760031D2A490012C120D47C2A490012C120D6C
:10028600471203B21200F6121624D2AF121EB7128C
:04029600010480F8E7
:10311800494D4D4520534E4946462076302E3100C4
:10029A00122D68AC82AD83AEF0FFC004C005C00663
:1002AA00C0079037BD75F086743D122C45AC82ADFF
:1002BA0083AEF0FFE58124FCF581E4C0E0C0E07480
:1002CA00D0C0E07441C0E08C828D838EF0EF122F93
:1002DA00EAAC82AD83AEF0FFE58124FCF5818C8225
:1002EA008D838EF0EF122D7BAC82AD83AEF090DF62
:1002FA0009EEF08D0390DF0AEBF090DF0BECF022B1
:10030A0075E10490DF3BE0FFBF01F890F40FE0F5E0
:10031A00E190F40FE0FFBF04012290DF3BE0FFBF52
:10032A00010280ED2290F40FE0FFBF02012290DF6C
:10033A0013E0FF74F05FF0E0FF740F4FF090F40FDA
:10034A007402F002075190F40FE0FFBF03012290FC
:10035A00DF13E0FF74F05FF0E0FF740A4FF090F4EF
:10036A000F7403F0F5E190DF3BE0FFBF13F8229032
:10037A00F40FE0FFBF04012290DF13E0FF74F05F87
:10038A00F0AF9174EF5FF59175E10490DF3BE0FF08
:10039A00BF01F8AF9B74FC5FF59BAFE974EF5FF5A3
:1003AA00E990F40F7404F02290F412E4F0A3F090B0
:1003BA00F405F0A3F090F407F0A3F053C6C7759DB7
:1003CA0000859E9E439E0485A9A943B90190F40F16
:1003DA007404F0751000751100F51290F00575F0AF
:1003EA0000122D49120171D2A87591D175E90075D3
:1003FA000800439A0175E10490DF3BE0FFBF01F872
:10040A00227E007F00C3EE94DCEF9405502490DF37
:10041A003CE0FD5450600490000122900032C00775
:10042A00C006120D6ED006D00774322EFEE43FFFCE
:10043A0080D390000022AF83E58290F42FF0EFA3DF
:10044A00F090F431E4F090DF02E0FF90DF3BE0FE51
:10045A00BE1304B2A480F4C2A490F4B7E4F090F4FA
:10046A002BE0FDA3E0FE90F4ADEDF0EEA3F090F4E6
:10047A002DE0FBA3E0FC90F4B3EBF0ECA3F090F4D6
:10048A0029E0F9A3E0FA90F4AFE9F0EAA3F090F4D6
:10049A00B1E9C39BF0EA9CA3F090F4B1E0FBA3E0BE
:1004AA00FC8D108E118B828C83C007C006C005C0DC
:1004BA0002C001122DCFAB82AC83D001D002D0058D
:1004CA00D006D00790F4B5EB29F0EC3AA3F0E94A4C
:1004DA00705D90F42FE0FBA3E0FC8B828C83E0F844
:1004EA008809750A0090F429E509F0E50AA3F09055
:1004FA00DF04E0F8530003B800028018B801028054
:10050A00030205CB90F42974012509F0E4350AA306
:10051A00F00205CB90F42F74012BF0E43CA3F09089
:10052A00F429E0FBA3E0FC90DF02EBF00205CB909C
:10053A00DF04E0FC530403BC00028046BC010280D5
:10054A00030205CB90F42FE0FBA3E0FC90F432E920
:10055A00F0EAA3F090F4347401F0E4A3F08B828CF7
:10056A0083C007C002C001120CF2D001D002D0072A
:10057A0090F42FE0FBA3E0FC89008B828C83E8F0E7
:10058A00803FED4E603690F4B5E0FDA3E090DF02C7
:10059A00EDF090DF04E0FE74FC5EF090F4B5E0FD4F
:1005AA00A3E0FEC374FF9DE49E500990DF04E0FEC1
:1005BA0074024EF090F4B77401F0800590DF02E9FE
:1005CA00F0D2A890F4B8E0FE20E3030206F990DF27
:1005DA0004E0FE530603BE010690F4317401F09064
:1005EA00F431E0FE90F42FE0FCA3E0FDEE2CFAE4F7
:1005FA003DFB90F429E0F8A3E0F990F450E8F0E923
:10060A00A3F08A828B83C007C006C005C0041210FB
:10061A0072AA82AB83D004D005D006D00790F4B872
:10062A00E0F9530104B90448C007EE2CF8E43DF997
:10063A0090F4B8E0FF5307F090F454E8F0E9A3F01F
:10064A0090F456EAF0EBA3F090F458EFF088828920
:10065A0083C007C006C005C004C003C0021210ACA4
:10066A00D002D003D004D005D006D007D0078046E8
:10067A00C007EE2CF8E43DF990F4B8E0FF5307F018
:10068A0090F45BE8F0E9A3F090F45DEAF0EBA3F0F4
:10069A0090F45FEFF088828983C007C006C005C066
:1006AA0004C003C0021210F5D002D003D004D00552
:1006BA00D006D007D007EE601E90F4B8E0FE5306CD
:1006CA00F0BE50098C828D837410F080228A068CC9
:1006DA00828D83EEF0801890F4B8E0FE5306F0BEE7
:1006EA00500890DF027410F0800590DF02EAF09063
:1006FA00F42FE0FDA3E0FE90F40BEDF0EEA3F090F2
:10070A00F4ABE4F0A3F075E1037D607EEA90DF3B91
:10071A00E0FCBC1302800D1DBDFF011EED4E6004FE
:10072A00B2A480E9D2A4ED4E700690F4397413F0A5
:10073A0090DF3BE0FEBE1304B2A480F4C2A490DFB3
:10074A0002EFF075820122D2A875100075110075AA
:10075A00120290F00575F000122D4990F405E4F0AC
:10076A00A3F090F407F0A3F090F409F090F40A04CF
:10077A00F090F004E4F0AF9B74FC5FF59BAFE97472
:10078A00EF5FF5E975E10290DF3BE0FFBF0DF8434B
:10079A0091102290F4BA7401F02290F4BAE4F02293
:1007AA00C020C0E0C0F0C082C083C007C006C00538
:1007BA00C004C003C002C001C000C0D075D0009000
:1007CA00F4387411F0C28990DF3BE0FFBF0D02805C
:1007DA00030208EDD2A490F4A4E0FF602A90F4A5E5
:1007EA00E0FEA3E0FF90F4A5E024FFFCA3E034FFC1
:1007FA00FD90F4A5ECF0EDA3F074FF2F400990DF13
:10080A0004E0FF74FC5FF090F40F7402F090F004BF
:10081A00E025E0FEE42405FFEE34F0FEE075F00288
:10082A00A42405FC74F435F0FD8C828D83E0FAA3D0
:10083A00E0FB74012AF8E43BF98C828D83E8F0E945
:10084A00A3F0EA2FF582EB3EF583E5D9F090F004A8
:10085A00E075F002A42405F58274F435F0F583E01E
:10086A00FEA3E0FFC39402501A90F004E075F00270
:10087A00A42405F58274F435F0F583E0FEA3E0FFC5
:10088A004E701A90F004E0FF75F002A42405F58278
:10089A0074F435F0F58374FFF07401A3F090F4A5B5
:1008AA00E0FEA3E0FF4E6003020AA390F4A4E0FF77
:1008BA007003020AA390F4A7E0FEA3E0FF90F4A558
:1008CA00EEF0EFA3F090F4A5E0FEA3E090DF02EED5
:1008DA00F090DF04E0FF74FC5FF0E0FF74024FF079
:1008EA00020AA390DF3BE0FFBF13028003020AA3C0
:1008FA0090F4B7E0FF7003020A3490F421E0FEA3FB
:10090A00E0FF0EBE00010F90F421EEF0EFA3F0908D
:10091A00F4ABE0FEA3E0FF90F4AFE0FCA3E0FDEE51
:10092A00B50406EFB505028003020A0790F4ADE0AC
:10093A00FEA3E0FF4E603790F4ADE0FEA3E0FFBEF9
:10094A00FF05BF0002801490F4ADE024FFFEA3E08F
:10095A0034FFFF90F4ADEEF0EFA3F090F4B3E0FEB5
:10096A00A3E0FF90F4ABEEF0EFA3F0020A0790F4D5
:10097A00AFE0F510A3E0F51190F4A9E0FF7E008F37
:10098A00828E83122DCFAE82AF8390F40BE0FCA34C
:10099A00E0FDEE2CF582EF3DF583E4F090F4A9E05A
:1009AA002401F0E0FF90F4AAE0FEEFB5060590F40A
:1009BA00A9E4F090F4AFE0F510A3E0F51190F4A9E2
:1009CA00E0FF7E008F828E83122DCFAE82AF83909E
:1009DA00F40BE0FCA3E0FDEE2CFEEF3DFF8E828FD0
:1009EA0083E0701090F414E4F090F4397412F01269
:1009FA00030AC2A490F4AB7401F0E4A3F090F4B536
:100A0A00E0FEA3E0FF90F4B5E024FFFCA3E034FF8E
:100A1A00FD90F4B5ECF0EDA3F0BEFF22BF001F90ED
:100A2A00DF04E0FF74FC5FF0801490F4B5E024FF6B
:100A3A00FEA3E034FFFF90F4B5EEF0EFA3F090F4DC
:100A4A000F7403F090F4AFE0F510A3E0F51190F401
:100A5A00A9E0FF7E008F828E83122DCFAE82AF83F4
:100A6A0090F4ABE0FCA3E0FD90F4ABE02401F0A32A
:100A7A00E03400F0EC2EFEED3FFF90F40BE0FCA317
:100A8A00E0FDEE2CF582EF3DF583E0F5D990F40D0B
:100A9A00E02401F0A3E03400F0D0D0D000D001D09F
:100AAA0002D003D004D005D006D007D083D082D09C
:100ABA00F0D0E0D02032C020C0E0C0F0C082C083B5
:100ACA00C007C006C005C004C003C002C001C00000
:100ADA00C0D075D000750B0090F4387410F0AE9B3E
:100AEA0074FC5EF59BE5E94208E5E930E02090F404
:100AFA0010E0FDA3E08D067D00AB9C7C0090F41213
:100B0A00ED4BF0EE4CA3F0AEE974FE5EF5E9E5E9D3
:100B1A0054707003020CA390F40FE0FEBE030AAEF9
:100B2A0008748F5EF508020C9C90F004E0FEB40194
:100B3A0000E4332409F582E434F4F583E0FEBE01CF
:100B4A00028003020C7990F4B8E0FE20E103020C63
:100B5A005290DF04E0FE530603BE0103750B0190B9
:100B6A00F4B8E0FE530601BE017090F004E025E0FF
:100B7A00FDE42405FEED34F0FDAB0B7C00EB2EFE0C
:100B8A00EC3DFDE0F929FAE42405F9EA34F0FAEB40
:100B9A0029FBEC3AFCE075F002A42405F58274F412
:100BAA0035F0F583E0F9A3E0FAA80B7F00E9C398D2
:100BBA00F9EA9FFA90F4B8E0FF5307F090F454EB87
:100BCA00F0ECA3F090F456E9F0EAA3F090F458EFB1
:100BDA00F08E828D831210AC806E90F004E025E0D6
:100BEA00FEE42405FFEE34F0FEAC0B7D00EC2FFF93
:100BFA00ED3EFEE025E0FAE42405FBEA34F0FAECE7
:100C0A002BFCED3AFDE075F002A42405F58274F49C
:100C1A0035F0F583E0FAA3E0FBA80B7900EAC39864
:100C2A00FAEB99FB90F4B8E0F95301F090F45BEC1D
:100C3A00F0EDA3F090F45DEAF0EBA3F090F45FE935
:100C4A00F08F828E831210F590F004E0FF74016F2A
:100C5A00F0E0FF75F002A42405F58274F435F0F58E
:100C6A0083E4F0A3F090F409F090F40AF080219064
:100C7A00F4397412F0B2A490F004E0FF75F002A403
:100C8A002405F58274F435F0F583E4F0A3F0B2A4F8
:100C9A00C2A4AFE974CF5FF5E9E5E930E61490F450
:100CAA00397410F0B2A412030AB2A4AFE974BF5F98
:100CBA00F5E9E5E930E71490F4397411F0B2A412B9
:100CCA00030AB2A4AFE9747F5FF5E9D0D0D000D0AF
:100CDA0001D002D003D004D005D006D007D083D0EB
:100CEA0082D0F0D0E0D02032AF83E58290F436F0A3
:100CFA00EFA3F090F434E0FEA3E0FF90F436E0FCBA
:100D0A00A3E0FD90F432E0FAA3E0FB8A008B011A1B
:100D1A00BAFF011BE8496024EE2AF8EF3BF9E82CF8
:100D2A00F8E93DF9EA2CF582EB3DF583C006C007E8
:0D0D3A00E088828983F0D007D00680CF22A8
:1036EB0000000000000001000000000000000000CE
:0736FB0000000000000000C8
:100D4700AE82AF831EBEFF011FC3E49E74808FF087
:100D570063F08095F0500F7CB07D041CBCFF011D33
:100D6700EC4D70F780DE22AE82E583CE25E0CE33F0
:100D7700FF1EBEFF011FC3E49E74808FF063F080E7
:100D870095F040ED22AE82AF83D2A49003E8C0076E
:100D9700C006120D47C2A49001F4120D47D006D029
:100DA70007150CAD0CED20E754EE30E02490001948
:100DB700C007C006C005120D47D2A4900226120D27
:100DC70047C2A4900019120D47D005D006D007805E
:100DD70022900113C007C006C005120D47D2A49088
:100DE7000032120D47C2A4900113120D47D005D04F
:100DF70006D007EFC313CE13CEFF1D80A8C2A49061
:100E070003E8020D47AFF0AE83E58290F441F0EEC0
:100E1700A3F0EFA3F090F441E0FDA3E0FEA3E0FF11
:100E270090F43EE0FAA3E0FBA3E0FCA810A911E8C8
:100E3700496051C000C0018D828E838FF01230B59A
:100E4700F98A828B838CF01230B5F8E9C398F512D2
:100E5700D001D000E5126010E512F5133395E0F5E7
:100E670014851382851483220DBD00010E90F44171
:100E7700EDF0EEA3F0EFA3F00ABA00010B18B8FFEC
:100E8700011980AB90000022AFBE74FB5FF5BEE591
:100E9700BE30E6FBAFC674B85FF5C6E5C620E6FB15
:100EA70043BE04E5BE30E6FB53C6C743E40C43E448
:100EB70001D2B922AF9A74DF5FF59AA2AFE433F497
:100EC70052A812123C12124912126D7582001212A8
:100ED700F3C2847582001212FF1213247528287535
:100EE7002931752A80752700758200121336D2843E
:100EF70022C0E0C082C083C0D090F43AE02401F061
:100F0700A3E03400F0A3E03400F0A3E03400F0D015
:080F1700D0D083D082D0E0327B
:10312800494D4D4520534E4946462076302E3100B4
:100F1F00122B14AF8290F448EFF08FF005F07401AC
:100F2F00800225E0D5F0FB90F449F0EF75F008A4AE
:100F3F00248CFE74F435F0FF90F444EEF0EFA3F040
:100F4F008E828F83A3A374DFF08E828F83A3A3A3DC
:100F5F0074B1F08E828F83A3A3A3A3A37410F07434
:100F6F00062EF582E43FF583E054E0441DF074074C
:100F7F002EF582E43FF583E0543F4440F074072E92
:100F8F00F582E43FF583E054FC4401F0122B14AFDB
:100F9F008290F44AEFF08FF005F07401800225E0A3
:100FAF00D5F0FB90F44BF0EF75F008A4248CFE7491
:100FBF00F435F0FF90F446EEF0EFA3F08E828F83BE
:100FCF0074DFF08E828F83A374B2F08E828F83A32F
:100FDF00A3A3A3A37410F074062EF582E43FF58348
:100FEF00E054E0441EF074072EF582E43FF583E0F1
:100FFF0054CF4410F074072EF582E43FF583E0548C
:10100F00FC4401F043A91043B91022AF83E582904D
:10101F00F44EF0EFA3F0E5B330E3FB90F444E0FEC1
:10102F00A3E0FF90F44EE0FCA3E0FD8C028D038B58
:10103F00028E828F83EAF090F444E0FEA3E0FF8EED
:10104F00828F83A37D00ECF090F449E042D690F4B8
:10105F004CE0FF90F44DE0FE4F4401F5B3E5B330A3
:10106F00E3FB22AF83E58290F452F0EFA3F090F40C
:10107F0052E0FEA3E0FF90F450E0FCA3E0FDEC543F
:10108F000F60158C028D030CBC00010DEA2EF5824A
:10109F00EB3FF583E4F080E68C828D8322AF83E50E
:1010AF008290F459F0EFA3F090F459E0FEA3E0FF23
:1010BF0090F454E0FCA3E0FD90F456E0FAA3E0FBBB
:1010CF0090F458E0F990F462ECF0EDA3F090F46432
:1010DF00EAF0EBA3F090F466E4F090F467E9F08E99
:1010EF00828F8302113FAF83E58290F460F0EFA30C
:1010FF00F090F460E0FEA3E0FF90F45BE0FCA3E06F
:10110F00FD90F45DE0FAA3E0FB90F45FE0F990F45A
:10111F0062ECF0EDA3F090F464EAF0EBA3F090F43E
:10112F00667402F090F467E9F08E828F8302113FAC
:10113F00AF83E58290F468F0EFA3F0E5B330E3FB03
:10114F0090F468E0FEA3E0FF90F462E0F516A3E0F0
:10115F00F51790F467E0FB74505BF51590F466E0BB
:10116F00F94B4401FB740149F51490F464E0F51058
:10117F00A3E0F511E4F512F513C3E5129510E5138D
:10118F009511400122C00390F444E0F8A3E0FBE581
:10119F00122EF9E5133FFA89048A058D0488828B94
:1011AF0083ECF090F444E0FCA3E0FD8C828D83A3EC
:1011BF00E9F090F446E0FCA3E0FD8C828D83A3A3BD
:1011CF00E5122516FCE5133517FD8C028D038B02F6
:1011DF00EAF090F446E0FAA3E0FB8A828B83A3A3A4
:1011EF00A3ECF090F44BE0FD90F449E0FC4D42D6B7
:1011FF00D003E5156017E51024F0FCE51134FFFD71
:10120F00ECB51209EDB513058514B380028BB3E568
:10121F00B330E3FB74102512F512E43513F5130206
:02122F00118824
:0C00E200752100752201752303752407A9
:1012310090F46BE4F0A3F02202000043F32843FD95
:101241001443FE0275FF182275860075C2AA75C582
:1012510030228582C1E58630E1FBAF8674FD5FF502
:101261008622D282021253C282021253C29190008C
:1012710001120D47D291C2847582E2121268758201
:1012810024121268758281121268758260121268C6
:101291007582E612126875820012126875822F1229
:1012A10012687582A11212687582AF121268758276
:1012B100A41212687582001212FFD284227582ACC8
:1012C1001212687582AE1212687582A5021268AF99
:1012D1008274B02FF582121268740F5526F58212AE
:1012E1001268E526C4540FFF740F5F2410F58202C3
:1012F1001268AF82743F5F4440F582021268AF8288
:1013010074015F44A6F5820212687526001212D09C
:101311007F00758200C007121263D0070FBF8400DF
:1013210040F0227F008F82C00712130BD0070FBF3E
:10133100090040F122AF82852882852983852AF020
:10134100C007122FD2AD82AE83D007EF24F7500130
:1013510022E52775F006A4F5268F82C0051212D06A
:10136100D005AC28AE29AF2A8D031DEB60268C82F7
:101371008E838FF01230B5FBA3AC82AE838B82C01B
:1013810007C006C005C004122A71D004D005D006DA
:10139100D00780D422AF82E4FBFCFDFEEF24F7509E
:1013A1000122E52B75F006A4F5268F82C006C00543
:1013B100C004C0031212D0D003D004D005D00675EA
:1013C1003000E52C452D452E452F700302145B8B13
:1013D100108C118D128E1390000AE4F5F0122DEC91
:1013E100AB82AC83ADF0FE75100AE4F511F512F590
:1013F10013852C82852D83852EF0E52FC006C0052F
:10140100C004C003122B5DA882A983AAF0FFD003F8
:10141100D004D005D006E82BFBE93CFCEA3DFDEF0A
:101421003EFE75100AE4F511F512F513852C82853F
:101431002D83852EF0E52FC006C005C004C0031220
:101441002BE085822C85832D85F02EF52FD003D0BE
:1014510004D005D00605300213C3E530604D751088
:101461000AE4F511F512F5138B828C838DF0EEC031
:1014710006C005C004C003122B5DA882743028F594
:1014810082122A71D003D004D005D00675100AE467
:10149100F511F512F5138B828C838DF0EE122BE092
:1014A100AB82AC83ADF0FE153080AF22AF82E4FD9C
:1014B100FEEF24F7500122E53175F006A4F5268FE1
:1014C10082C006C0051212D0D005D0067F00E532D9
:1014D100453360538D108E1190000AC007122DCF35
:1014E100AD82AE8375100A75110085328285338312
:1014F100C006C005122E5AAB82AC83D005D006EBD4
:101501002DFDEC3EFE75100A751100853282853382
:1015110083C006C005122B34858232858333D00502
:10152100D006D0070F80A7EF603775100A7511003C
:101531008D828E83C007C006C005122E5AAB8274FD
:10154100302BF582122A71D005D00675100A75115B
:10155100008D828E83122B34AD82AE83D0071F8023
:10156100C622E582FF24F7500122E53475F006A476
:10157100F5268F821212D07F048F061FEE6047740A
:10158100F05536C4540FFD7E00C3ED940AEE94006D
:1015910050108D0474302CF582C007122A71D007C7
:1015A100800C74372DF582C007122A71D007E536F9
:1015B100C454F0C535C4C5356535C53554F0C53598
:1015C1006535F53680B322AF8253077FC3EF648060
:1015D10094A0404EEF24E0C2D575F00530E704B287
:1015E100D5F404A430D50AF42401C5F0F43400C5BF
:1015F100F02438FE743135F0FF7D00ED2EF582E4E4
:101601003FF583E493F582C007C006C0051212635B
:10161100D005D006D0070DBD050040DF7582000260
:1016210012632222AF8290DF0EE0FE53068FEFC4D9
:1016310054F090DF0E4EF022E52575F003A424222C
:10164100F582743335F0F583E493FDA3E493FEA3AF
:10165100E493FF8D828E838FF022AF8290DF0EE0C4
:10166100FE5306F874075F90DF0E4EF02285823735
:1016710085833885F039F53A7B007A00BA04004059
:10168100030217388AF005F0780179008006E8280E
:10169100F8E933F9D5F0F78810E9F5113395E0F55C
:1016A10012F5138537828538838539F0E53AC00212
:1016B100122DEC122D68AC82AD83AEF0FFC004C0D8
:1016C10005C006C007900000E4F5F07441122C45F6
:1016D100AC82AD83AEF0FFE58124FCF581C004C08E
:1016E10005C006C007905D4075F0C6744B122FEA25
:1016F100AC82AD83AEF0FFE58124FCF581E4C0E06E
:10170100C0E07460C0E023C0E08C828D838EF0EF76
:10171100122EA7AC82AD83AEF0FFE58124FCF581EA
:101721008C828D838EF0EF1230ADAB82D002BB0480
:101731000040040A02167D90DF0CE0FF53070FEA18
:10174100030354C04207EBC454F090DF0C4FF02266
:1017510090DF0CE0FFE4A2E7CF33CF33A2E7CF3332
:10176100CF33CF54035307037E0090DF0CE0FDE439
:10177100CDC4540F6DCD540FCD6DCD5305037C00F9
:101781008D828C83A3A3A3A3C007C006122F52AAE4
:1017910082AB83ACF0FDC002C003C004C005900061
:1017A10000E4F5F07441122C45AA82AB83ACF0FD44
:1017B100E58124FCF581D006D0078FF005F090007B
:1017C10001800BE5822582F582E58333F583D5F02F
:1017D100F2C005C004C003C002122F52A882A9831F
:1017E100AEF0FFD002D003D004D005C000C001C0CC
:1017F10006C0078A828B838CF0ED122C45AC82AD3A
:1018010083AEF0FFE58124FCF5818C828D838EF01F
:10181100EF122F5EAE82AF838E108F11751200759D
:10182100130090BA8075F08C7401022F0085823B01
:1018310085833C85F03DF53E780079007A007B0098
:101841008B3F74F0253F50030218EB853FF005F004
:101851007D017E008006ED2DFDEE33FED5F0F78D86
:1018610010EEF5113395E0F512F513853B82853CB9
:1018710083853DF0E53E122BE0122D68AC82AD83ED
:10188100AEF0FFC004C005C006C0079030E975F096
:10189100257441122C45AC82AD83AEF0FFE5812465
:1018A100FCF581E4C0E07480C0E014C0E074C3C002
:1018B100E08C828D838EF0EF122EA7AC82AD83AEC9
:1018C100F0FFE58124FCF5818C828D838EF0EF128F
:1018D1002D7BA882A983AAF0FBC3E99401EA9400B5
:1018E100EB94004005053F02184390DF0CE0FF74C4
:1018F100F05F453FF090DF0DE8F02290DF0CE0FF54
:1019010053070F90DF0DE0FE8FF005F07F017D00A2
:101911008006EF2FFFED33FDD5F0F7ED3395E0FCB9
:10192100FB7A0074012AFA8E10EAF5113395E0F57D
:1019310012F5138F828D838CF0EB122DEC122D6832
:10194100A882A983AAF0FEC000C001C002C006900F
:101951005D4075F0C6743D122C45A882A983AAF09A
:10196100FEE58124FCF581888289838AF0EE022DCF
:101971007B0525E52524FC5003752500E52524215B
:10198100F98782021625E525700575250380021564
:1019910025E5252421F98782021625122D68AC82BE
:1019A100AD83AEF0FFC004C005C006C0079030E9AA
:1019B10075F025743B122C45AC82AD83AEF0FFE58A
:1019C1008124FCF5818C828D838EF0EF122D7BAC0E
:1019D10082AD83AEF08E0390DF09EBF08D0390DFD3
:1019E1000AEBF090DF0BECF02290DF09E0FF7E00C4
:1019F1007D008D048E058F067F0090DF0AE0F8E4FC
:101A0100F9FAFBE82FFFE93EFEEA3DFDEB3C8D04D0
:101A11008E058F067F0090DF0BE0F8E4F9FAFBE812
:101A21002FFFE93EFEEA3DFDEB3C8F828E838DF078
:101A3100122D68A882A983AAF0FBC000C001C002D0
:101A4100C003905D4075F0C67443122C45A882A96D
:101A510083AAF0FBE58124FCF581888289838AF0E1
:101A6100EB022D7BC28490DF3BE0FF8F35753600A2
:101A71007534007582071215638508357536007552
:101A8100340A758207121563D28422C28412132488
:101A910075282E752933752A8075270075820112E4
:101AA1001336752832752933752A8075270075829A
:101AB10002121336752835752933752A807527006A
:101AC100758203121336752839752933752A807585
:101AD100270075820412133675283E752933752A3D
:101AE10080752700758205121336752845752933CF
:101AF100752A8075270075820612133675284B7575
:101B01002933752A80752706758201121336121939
:101B1100EAAC82AD83AEF0FF752B068C2C8D2D8E39
:101B21002E8F2F75820112139690DF06E0FB8B3505
:101B310075360075340675820212156312163985E1
:101B4100822885832985F02A752706758203121359
:101B5100361218FCAC82AD83AEF0FF75285675299C
:101B610033752A80752706758204C007C006C00533
:101B7100C004121336D004D005D006D007752B0649
:101B81008C2C8D2D8E2E8F2F758204121396752815
:101B910056752933752A8075270875820512133603
:101BA100121751AC82AD83AEF0FF75284B75293306
:101BB100752A80752708758205C007C006C005C053
:101BC10004121336D004D005D006D007752B088C2B
:101BD1002C8D2D8E2E8F2F75820512139690DF0C72
:101BE100E0FF8F3575360075340F75820412156369
:101BF10090DF0DE0FF8F3575360075340F75820566
:101C010012156390DF0EE0FF8F3575360075340FC6
:101C110075820612156390DF0EE0FF5403601F907A
:101C2100DF00E0FE7F0090DF01E07C004FF535EC46
:101C31004EF53675340675820612156380127528C5
:101C41005F752933752A807527067582061213364A
:101C5100D28422C28412132412015FD2842290F012
:101C610004E0FFB40100E433FF3395E0EF2FFEE41D
:101C71002405FFEE34F0FE90F004E0FDB40100E431
:101C810033FDC2D575F002ED30E704B2D5F404A4FA
:101C910030D50AF42401C5F0F43400C5F02405F56B
:101CA1008274F435F0F583E0FCA3E090F48BECF062
:101CB100C284752864752933752A80752700758259
:101CC10003C007C006C00412133675286475293392
:101CD100752A80752700758204121336752864757C
:101CE1002933752A807527007582051213367528E8
:101CF10085752933752A807527007582011213367F
:101D0100D0048C35753600753409758201C0041212
:101D1100156375288E752933752A8075270075829C
:101D21000212133690F004E0FD8D357536007534DE
:101D310006758202121563752895752933752A80F7
:101D410075270C75820212133690F000E0F9A3E0BA
:101D5100FAA3E0A3E089358A36753411758202123F
:101D61001563D004D006D007EC24E1500690F48B23
:101D7100741EF0752600758203C007C0061212D0CA
:101D8100D006D0077D037C0090F48BE0FB8B021B17
:101D9100EA7003021EB48F828E83E0FA24E0504081
:101DA100BA7F00503B758220C007C006C005C00441
:101DB100C003122A71D003D004D005D006D0078FFA
:101DC100828E83E0F582C007C006C005C004C0034F
:101DD100122A71D003D004D005D006D007021E8587
:101DE1008F828E83E054F0C4540FF97A00C3E994D2
:101DF1000AEA940050208900743028F582C007C097
:101E010006C005C004C003122A71D003D004D00556
:101E1100D006D007801C743729F582C007C006C0E0
:101E210005C004C003122A71D003D004D005D00626
:101E3100D0078F828E83E0FA53020F8A017A00C3A2
:101E4100E9940AEA940050208900743028F582C090
:101E510007C006C005C004C003122A71D003D00414
:101E6100D005D006D007801C743729F582C007C081
:101E710006C005C004C003122A71D003D004D005E6
:101E8100D006D0070C75F00AEC84E5F0701D0D75D5
:101E910026008D82C007C006C005C004C00312120F
:101EA100D0D003D004D005D006D0070FBF00010E5B
:101EB100021D8ED2842290F46AE0FFBF012F90F4BC
:101EC1006BE0FEA3E0FFC3EE942CEF94014013906E
:101ED100F46BE4F0A3F090F46AF0121C54121C5F4E
:101EE100800B90F46B74012EF0E43FA3F090F46B3F
:101EF100E4F0A3F0122A5DAF82BF0103022895BF6F
:101F010002030222E2BF03030222A7BF0A03022443
:101F1100EB8F06BE20030228C7BE2C0302258EBF0D
:101F21003C03022439BF3E030223D1BE41030220F8
:101F310010BE4403022175BE4503022127BE46039C
:101F4100022212BE47030227EDBE48030227A9BEA3
:101F510049030225E3BE4A03022765BE4B0302275C
:101F610021BE4C030226DDBE4D03022627BE4E03D1
:101F71000226A5BE4F03022539BE500302249CBE92
:101F81005102803DBE52030221C3BE53030220C44D
:101F9100BE5403022824BE550302266CBE5603021A
:101FA100285DBE570302205EBE5A03022260BF5E57
:101FB10003022378BF83030228A3BF870302231DE3
:101FC1002275E10490DF3BE0FFBF01F890DF0EE0F6
:101FD100FF74F85FF0E0FF74054FF090DF00E0243C
:101FE10010F0121A8C90F46A7401F090F46BE4F022
:101FF100A3F0900032120D4775E10190DF3BE0FF45
:10200100BF01F875E10290DF3BE0FFBF0DF82275DB
:10201100E10490DF3BE0FFBF01F890DF0EE0FF74C9
:10202100F85FF0E0FF74054FF090DF00E024F0F07E
:10203100121A8C90F46A7401F090F46BE4F0A3F03E
:10204100900032120D4775E10190DF3BE0FFBF01C7
:10205100F875E10290DF3BE0FFBF0DF82275E10466
:1020610090DF3BE0FFBF01F890DF0EE0FF74F85F07
:10207100F0E0FF74054FF090DF00E0FF53070FBF62
:102081000F02800990DF00E02401F0800990DF0059
:10209100E0FF74F05FF0121A8C90F46A7401F09012
:1020A100F46BE4F0A3F0900032120D4775E101905A
:1020B100DF3BE0FFBF01F875E10290DF3BE0FFBFCE
:1020C1000DF82275E10490DF3BE0FFBF01F890DFDE
:1020D1000EE0FF74F85FF0E0FF74054FF090DF0051
:1020E100E0FF540F600890DF00E014F0800B90DFF8
:1020F10000E0FF74F05F2409F0121A8C90F46A7406
:1021010001F090F46BE4F0A3F0900032120D4775EA
:10211100E10190DF3BE0FFBF01F875E10290DF3B99
:10212100E0FFBF0DF82275E10490DF3BE0FFBF0146
:10213100F890DF0EE0FF74F85FF0E0FF74054FF0F8
:1021410090DF01E02410F0121A8C90F46A7401F00F
:1021510090F46BE4F0A3F0900032120D4775E101A9
:1021610090DF3BE0FFBF01F875E10290DF3BE0FF4C
:10217100BF0DF82275E10490DF3BE0FFBF01F8904D
:10218100DF0EE0FF74F85FF0E0FF74054FF090DFC1
:1021910001E024F0F0121A8C90F46A7401F090F4CA
:1021A1006BE4F0A3F0900032120D4775E10190DF6E
:1021B1003BE0FFBF01F875E10290DF3BE0FFBF0D9F
:1021C100F82275E10490DF3BE0FFBF01F890DF0EDC
:1021D100E0FF74F85FF0E0FF74054FF090DF01E07D
:1021E100E02401F0121A8C90F46A7401F090F46BFF
:1021F100E4F0A3F0900032120D4775E10190DF3B4E
:10220100E0FFBF01F875E10290DF3BE0FFBF0DF891
:102211002275E10490DF3BE0FFBF01F890DF0EE0A3
:10222100FF74F85FF0E0FF74054FF090DF01E0E02C
:1022310014F0121A8C90F46A7401F090F46BE4F0CB
:10224100A3F0900032120D4775E10190DF3BE0FFF2
:10225100BF01F875E10290DF3BE0FFBF0DF8227589
:10226100E10490DF3BE0FFBF01F890DF0EE0FF7477
:10227100F85FF0E0FF74044FF0121A8C90F46A7466
:1022810001F090F46BE4F0A3F0900032120D477569
:10229100E10190DF3BE0FFBF01F875E10290DF3B18
:1022A100E0FFBF0DF82275E10490DF3BE0FFBF01C5
:1022B100F8121972121A8C90F46A7401F090F46B8E
:1022C100E4F0A3F0900032120D4775E10190DF3B7D
:1022D100E0FFBF01F875E10290DF3BE0FFBF0DF8C1
:1022E1002275E10490DF3BE0FFBF01F8121987126C
:1022F1001A8C90F46A7401F090F46BE4F0A3F090FE
:102301000032120D4775E10190DF3BE0FFBF01F89C
:1023110075E10290DF3BE0FFBF0DF82275E104900B
:10232100DF3BE0FFBF01F890DF0CE0FE7F0074109F
:102331002EFEE43FFFC374FF9EE49F5008EE24107D
:10234100FEEF34FFFF90DF0CEEF0121A8C90F46A6E
:102351007401F090F46BE4F0A3F0900032120D4799
:1023610075E10190DF3BE0FDBD01F875E10290DF11
:102371003BE0FDBD0DF82275E10490DF3BE0FDBDC2
:1023810001F890DF0CE0FDFE7F00C3EE9410EF94A6
:1023910000500474012FFFEE24F0FEEF34FF90DFB4
:1023A1000CEEF0121A8C90F46A7401F090F46BE464
:1023B100F0A3F0900032120D4775E10190DF3BE090
:1023C100FFBF01F875E10290DF3BE0FFBF0DF8228E
:1023D10075E10490DF3BE0FFBF01F890DF0DE0C441
:1023E100540FFFBF0F1D90DF0CE0FF53070FBF0F0E
:1023F10000501890DF0CE004F090DF0DE0FF241096
:10240100F0800890DF0DE0FF2410F0121A8C90F498
:102411006A7401F090F46BE4F0A3F0900032120DB5
:102421004775E10190DF3BE0FFBF01F875E10290E4
:10243100DF3BE0FFBF0DF82275E10490DF3BE0FFD9
:10244100BF01F890DF0DE0C4540FFF701990DF0C4D
:10245100E0FF540F601890DF0CE014F090DF0DE006
:10246100FF24F0F0800890DF0DE0FF24F0F0121A55
:102471008C90F46A7401F090F46BE4F0A3F0900096
:1024810032120D4775E10190DF3BE0FFBF01F875A6
:10249100E10290DF3BE0FFBF0DF82275E10490DF20
:1024A1003BE0FFBF01F890DF0BE02401F0E0FF709B
:1024B1001290DF0AE02401F0E0FF700790DF09E0ED
:1024C1002401F0121A8C90F46A7401F090F46BE418
:1024D100F0A3F075E10190DF3BE0FFBF01F875E18A
:1024E1000290DF3BE0FFBF0DF82275E10490DF3B76
:1024F100E0FFBF01F890DF0BE014F0E0FFBFFF1138
:1025010090DF0AE014F0E0FFBFFF0690DF09E0145E
:10251100F0121A8C90F46A7401F090F46BE4F0A359
:10252100F075E10190DF3BE0FFBF01F875E102903A
:10253100DF3BE0FFBF0DF82275E10490DF3BE0FFD8
:10254100BF01F890DF0BE0FFBFF000401290DF0AFF
:10255100E02401F0E0FF700790DF09E02401F09032
:10256100DF0BE02410F0121A8C90F46A7401F090E1
:10257100F46BE4F0A3F075E10190DF3BE0FFBF01F4
:10258100F875E10290DF3BE0FFBF0DF82275E10431
:1025910090DF3BE0FFBF01F890DF0BE0FF24EF404D
:1025A1001390DF0AE0FF700690DF09E014F090DF7E
:1025B1000AE014F090DF0BE024F0F0121A8C90F492
:1025C1006A7401F090F46BE4F0A3F075E10190DF1F
:1025D1003BE0FFBF01F875E10290DF3BE0FFBF0D7B
:1025E100F82275E10490DF3BE0FFBF01F890DF0ABC
:1025F100E02401F0E0FF700790DF09E02401F01210
:102601001A8C90F46A7401F090F46BE4F0A3F07505
:10261100E10190DF3BE0FFBF01F875E10290DF3B94
:10262100E0FFBF0DF82275E10490DF3BE0FFBF0141
:10263100F890DF0AE0FF700690DF09E014F090DF08
:102641000AE014F0121A8C90F46A7401F090F46BA1
:10265100E4F0A3F075E10190DF3BE0FFBF01F87505
:10266100E10290DF3BE0FFBF0DF82275E10490DF4E
:102671003BE0FFBF01F890DF09E02401F0121A8C62
:1026810090F46A7401F090F46BE4F0A3F075E10149
:1026910090DF3BE0FFBF01F875E10290DF3BE0FF17
:1026A100BF0DF82275E10490DF3BE0FFBF01F89018
:1026B100DF09E014F0121A8C90F46A7401F090F4BE
:1026C1006BE4F0A3F075E10190DF3BE0FFBF01F89F
:1026D10075E10290DF3BE0FFBF0DF82275E1049048
:1026E100DF3BE0FFBF01F890DF097423F090DF0AC0
:1026F1007431F090DF0B743BF0121A8C90F46A7411
:1027010001F090F46BE4F0A3F075E10190DF3BE0A0
:10271100FFBF01F875E10290DF3BE0FFBF0DF8223A
:1027210075E10490DF3BE0FFBF01F890DF09742100
:10273100F090DF0A7462F090DF0B7476F0121A8C5D
:1027410090F46A7401F090F46BE4F0A3F075E10188
:1027510090DF3BE0FFBF01F875E10290DF3BE0FF56
:10276100BF0DF82275E10490DF3BE0FFBF01F89057
:10277100DF097410F090DF0A74A7F090DF0B746228
:10278100F0121A8C90F46A7401F090F46BE4F0A3E7
:10279100F075E10190DF3BE0FFBF01F875E10290C8
:1027A100DF3BE0FFBF0DF82275E10490DF3BE0FF66
:1027B100BF01F890DF09740CF090DF0A741DF090EE
:1027C100DF0B7489F0121A8C90F46A7401F090F4A2
:1027D1006BE4F0A3F075E10190DF3BE0FFBF01F88E
:1027E10075E10290DF3BE0FFBF0DF82275E1049037
:1027F100DF3BE0FFBF01F890DF06E4F0121A8C9096
:10280100F46A7401F090F46BE4F0A3F075E10190C7
:10281100DF3BE0FFBF01F875E10290DF3BE0FFBF66
:102821000DF82275E10490DF3BE0FFBF01F890DF76
:1028310006E02401F0121A8C90F46A7401F090F40D
:102841006BE4F0A3F075E10190DF3BE0FFBF01F81D
:1028510075E10290DF3BE0FFBF0DF82275E10490C6
:10286100DF3BE0FFBF01F890DF06E014F0121A8CA5
:1028710090F46A7401F090F46BE4F0A3F075E10157
:1028810090DF3BE0FFBF01F875E10290DF3BE0FF25
:10289100BF0DF8221212BE122A2BAF82BF01F8021D
:1028A100123990DF3BE0FFBF0D0E75E10490DF3B75
:1028B100E0FFBF01F802035075E10490DF3BE0FF48
:1028C100BF01F802032F90F46AE0FF700990F46AE7
:1028D1007401F0021A8CBF010B90F46AE4F0121C2F
:0528E10054021C5F22FF
:10313800000000000000005E0000000E000E0028E5
:103148007C287C2808547C542026100864002854C5
:1031580028400000000E0000003C42000000423CF5
:103168000000005438540010107C101000806020BB
:10317800001010101000006060000020100804000B
:10318800003C423C0000447E40004462524C002215
:103198004A4A360018147E10002E4A4A32003C4A29
:1031A8004A300002621A0600344A4A34000C52526D
:1031B8003C00006C6C0000806C2C0000001028445F
:1031C80000282828280000442810000004520C0079
:1031D8003C425A1C007C12127C007E4A4A34003C55
:1031E800424224007E42423C007E4A4A42007E0A15
:1031F8000A02003C425274007E08087E0000427EAB
:1032080042002040403E007E182442007E4040405C
:10321800007E0C0C7E007E0C307E003C42423C005E
:103228007E12120C003C6242BC007E12324C00241A
:103238004A52240000027E02003E40403E001E60CA
:10324800601E007E30307E006618186600000E7022
:103258000E0062524A4600007E42420004081020D6
:10326800000042427E00000402040040404040004A
:10327800000204000030482878007E4848300030BA
:10328800484800003048487E003068581000107CDC
:1032980012040050A8A898007E0808700000487A18
:1032A80040000040807A007E1028400000427E40A6
:1032B800007810187000780808700030484830000E
:1032C800F848483000304848F8007808081000509E
:1032D80058682800083E48400038404078000038C8
:1032E8004038007860607800483030480018A040C6
:1032F8003800486858480000083C420000007E003A
:103308000000423C08003246534B004746534B00EE
:1033180041534B20004D534B20000E338013338014
:103328001833801D3380465251004348004D4F44A6
:103338000042415544004348414E42570053594EBC
:10334800435700202020202020202020200020205B
:10335800202020202020002D2D2D2D002020202071
:103368002020202020202020202020202020202055
:10337800202020202020202020202020004C656EA6
:103388006774683A2000437572723A2000436E747D
:033398003A2000D8
:1028E600AFFD743D5FF5FDAFFE74035FF5FE4380FB
:1028F600C24390FC7F007E00EEFD24F850030229BF
:1029060079EE240A83F582EE240C83F583E473259D
:1029160027333F4B57636F292929292929292980DC
:102926005243FD02AC8074FD5CF580804643FE0494
:10293600AC9074FB5CF590803A43FE08AC9074F75B
:102946005CF590802E43FE10AC9074EF5CF59080A1
:102956002243FE20AC9074DF5CF590801643FE4067
:10296600AC9074BF5CF590800A43FE80AC90747F97
:102976005CF590AB807C00EBF4FBECF4FCEB30E117
:10298600027D01AB907C00EBF4FBECF4FCEB30E257
:10299600027D02AB907C00EBF4FBECF4FCEB30E345
:1029A600027D03AB907C00EBF4FBECF4FCEB30E433
:1029B600027D04AB907C00EBF4FBECF4FCEB30E521
:1029C600027D05AB907C00EBF4FBECF4FCEB30E60F
:1029D600027D06AB907C00EBF4FBECF4FCEB30E7FD
:1029E600027D07AB807C00EBF4FBECF4FCEB30E6FD
:1029F600027D08AB807C00EBF4FBECF4FCEB30E7EB
:102A0600027D09EDB50602800DEF75F00AA42D9042
:102A1600339B93F582220E8E07BE080050030228D0
:102A2600FE758200221228E6AF82C0071228E6AEA3
:102A360082D007EFB5060280071228E6AF8280EA49
:102A4600AEFD743D5EF5FDAEFE74035EF5FE43809D
:102A5600C24390FC8F8222122A2BE582FFB50D021B
:0B2A660080048F0D80027F008F822211
:10339B0000004F4B4E4D0150000000005947432099
:1033AB003C2C033E00000051574552545549000038
:1033BB00000041534446484A0000000000825A581E
:1033CB005642000000000000838485860000000048
:1033DB00000000025E5E00000000000000000A4CCE
:102A7100E582FF7012FE758200C006121263D00655
:102A81000EBE070040F022C3EF648094E1400F7452
:102A9100FA8FF063F08095F04004EF24E0FFEF330C
:102AA10095E0FEEF24E0FFEE34FFFE8F108E1190D3
:102AB1000006122DCFAF82AE837D008D037C00EB2B
:102AC1002FFBEC3EFCEB24EBF582EC3433F583E495
:102AD10093F582C007C006C005121263D005D00667
:092AE100D0070DBD060040D32210
:1033EB00000000000000005F5F000000000300030E
:1033FB000000147F147F1400000000000000231352
:10340B0008646200000007000000000000000000DC
:10341B0000000000000000000000000000000000A1
:10342B000000000000000000000000000000000091
:10343B000000000000000000000000000000000081
:10344B003E5149453E0000427F40000042615149D8
:10345B0046002141454B31001814127F10002745BF
:10346B00454539003C4A49493000017109050300C3
:10347B00364949493600064949291E0000363600AF
:10348B0000000056360000000814224100001414FE
:10349B001414140041221408000002015109060003
:1034AB003E415D494F007E0909097E007F4949492C
:1034BB0036003E41414122007F4141413E007F4960
:1034CB00494941007F09090901003E4149497900F9
:1034DB007F0808087F0000417F41000030404040DA
:1034EB003F007F08142241007F40404040007F0294
:1034FB000C027F007F0408107F003E4141413E00DB
:10350B007F09090906003C42523C40007F091929FA
:10351B00460046494949310001017F0101007F40C6
:10352B0040407F000718601807003F4038403F00BD
:10353B00631C081C630003047C0403006161514994
:10354B004700020151090600020151090600020160
:10355B00510906000201510906000201510906003A
:10356B00020151090600020151090600020151092D
:10357B000600020151090600020151090600020171
:10358B00510906000201510906000201510906000A
:10359B0002015109060002015109060002015109FD
:1035AB000600020151090600020151090600020141
:1035BB0051090600020151090600020151090600DA
:1035CB0002015109060002015109060002015109CD
:1035DB000600020151090600020151090600020111
:1035EB0051090600020151090600020151090600AA
:1035FB00020151090600020151090600020151099D
:10360B0006000201510906000201510906000201E0
:10361B005109060002015109060002015109060079
:10362B00020151090600020151090600020151096C
:10363B0006000201510906000201510906000201B0
:10364B005109060002015109060002015109060049
:10365B00000000000000000000000000000000005F
:10366B00000000000000000000000000000000004F
:10367B00000000000000000000000000000000003F
:10368B00000000000000000000000000000000002F
:10369B00000000000000000000000000000000001F
:1036AB00000000000000000000000000000000000F
:1036BB0000000000000000000000000000000000FF
:1036CB0000000000000000000000000000000000EF
:1036DB0000000000000000000000000000000000DF
:0500EE00E4F50EF50F22
:102AEA007E8C7FF48FD57E8C7FF48ED47E947FF497
:102AFA008FD37E947FF47F008ED28F107511188F3A
:102B0A001290F48C75F000022D497403B50E06E498
:102B1A00B50F02800280047582FF22AE0EAF0F0548
:102B2A000EE4B50E02050F8E82227A10E4FBFCE554
:102B3A008225E0F582E58333F583EB33FBEC33FC46
:102B4A00EB9510F5F0EC95114006FCABF0438201D1
:102B5A00DADD22F9E5104511451245136077780050
:102B6A00C308E51320E73BE51025E0F510E511332E
:102B7A00F511E51233F512E51333F513E5829510D5
:102B8A00E5839511E5F09512E9951350D4C3E51341
:102B9A0013F513E51213F512E51113F511E51013E8
:102BAA00F510E5829510FCE5839511FDE5F0951287
:102BBA00FEE995134007F98EF08D838C82C3E513E5
:102BCA0013F513E51213F512E51113F511E51013B8
:102BDA00F510D8CEE922FB7A20E4FCFDFEFFE5825F
:102BEA002582F582E58333F583E5F033F5F0EB339F
:102BFA00FB4017DAE98042E5822582F582E58333D4
:102C0A00F583E5F033F5F0EB33FBEC33FCED33FD04
:102C1A00EE33FEEF33FFEC9510ED9511EE9512EFC2
:102C2A0095134013EC9510FCED9511FDEE9512FEEF
:102C3A00EF9513FF438201DABEEB22122CE8BC00A7
:102C4A0003022F8AEF60FA30D502B2D1E583B4FFCE
:102C5A0003022FA0E582B4FF03022FA025834007B9
:102C6A002482400B022F8A2483145003022FA0F5DA
:102C7A0082EA8DF0A4A8F0EA8EF0A428F8E435F0F0
:102C8A00F9EB8DF0A428E935F0F9E433CA8FF0A402
:102C9A0029F9EA35F0FAEBF88EF0A429F9EA35F0C9
:102CAA00FAE433FBEC8DF0A429F9EA35F0FAE43BB7
:102CBA00FBE88FF0A42AFAEB35F0FBE433CCFD8E67
:102CCA00F0A42AFAEB35F0FBE43CFCED8FF0A42BE0
:102CDA00FBEC35F0FC20E703122D16022F69AA82BD
:102CEA00AB83A2F73392D1F5826002D2F7ACF0E55A
:102CFA008124F9F8E6FD08E6FE0886F008E6A2F760
:0C2D0A003392D5F5836002D2F7AFF022BF
:0600B800E478FFF6D8FD1C
:102D16007804EC7011E58224F8500AF582E4C9CAF9
:102D2600CBFCD8EF22EC7820058220E713D5820170
:102D360022C3E933F9EA33FAEB33FBEC33FCD8EA86
:102D4600158222AC82AD83AE11AF12BE0004EF60D5
:102D56000C1F0FE510122DB4A3DEFADFF88C828D5E
:022D66008322C6
:100096007917E94400601B7A019036EB78A47593D2
:1000A600F4E493F2A308B800020593D9F4DAF275E2
:0200B60093FFB6
:102D6800FCABF0AA83A982749EC2D1F582122D16FB
:102D7800022F697F9E122DA230D103022F8AC3EF42
:102D88009582500974FFF5F0F583F58222790012D7
:102D980030D189828A838BF0EC22AA82AB83A2F796
:102DA8003392D1F5826002D2F7ACF02220F71130CD
:102DB800F6138883A88220F509F6A8837583002274
:102DC80080FEF280F5F022E5828510F0A4C582C06D
:102DD800F08511F0A4D0F025F0C5838510F0A42566
:102DE80083F58322AAF0FBE5828510F0A4FCADF000
:102DF800E5838510F0A42DFDE435F0FEE58285110C
:102E0800F0A42DFDE5F03EFEE433FFEA8510F0A4C2
:102E18002EFEE5F03FFFE5838511F0A42EFEE5F0D8
:102E28003FFFE5828512F0A42EFEE5F03FFFEB851B
:102E380010F0A42FFFEA8511F0A42FFFE583851277
:102E4800F0A42FFFE5828513F0A42F8EF08D838CDC
:102E58008222E510451160467A01E51025E0F5105B
:102E6800E511334012F511E5829510E5839511407F
:102E7800030A80E6C3E51113F511E51013F510C335
:102E8800E5829510F5F0E58395114005F58385F009
:102E980082C3E51113F511E51013F510DAE12212DA
:102EA8002CE87900E583B58202800D5003122FB813
:102EB800E583C395821230D1E5D0C465D020E117EF
:102EC800EA2DFAEB3EFBEC3FFC500974011230D1BD
:102ED800EC4480FC022F69C3EA9DFAEB9EFBEC9F51
:102EE800FC500FC3E499F9E49AFAE49BFBE49CFCD8
:082EF800B2D1122D16022F6960
:1000BE007800E84400600A79007593F0E4F309D8FB
:1000CE00FC78A4E84404600C790590F000E4F0A3F9
:0400DE00D8FCD9FA77
:102F0000FBC2D530E715D2D5E4C39582F582E495AE
:102F100083F583E495F0F5F0E49BFBE51330E717C8
:102F2000B2D5E4C39510F510E49511F511E49512AE
:102F3000F512E49513F513EB122BE030D513FBE4F7
:102F4000C39582F582E49583F583E495F0F5F0E48A
:102F50009B22E4AC83AB82FAF9748E022D717F8ED2
:102F6000122D7DF58385F08222B98003EA13B340E8
:102F700010EA2401FAE43BFBE43CFC50047C8005AD
:102F800082BC000EBB000BBA0008E4F5F0F583F537
:102F90008222A2D1E582138CF092F78B838A82225F
:102FA000E4F583F58275F080F4A2D11322E4F58371
:102FB000F58275F0C0747F22E582C583F582A2D1C7
:102FC00033A2D592D11392D5ECCFFCEBCEFBEACD58
:102FD000FA22AA82AB831230B56003A380F8C3E55E
:102FE000829AF582E5839BF58322122CE830D50284
:102FF000B2D1BF0009BC0003022FAD022FA0BC005C
:1030000003022F8AE583B4FF0BE582B4FF03022F8E
:10301000AD022F8AE582B4FF03022FA0C39583502F
:1030200007247F400B022F8A2480145003022FA014
:10303000F582C3ED9AEE9BEF9C40111582C3EA33F3
:10304000F9EB33FAEC33FBE433FC8005E4CCCBCA78
:10305000F9C08275F019C3E99DEA9EEB9FEC9400DC
:10306000D5F002802D400EE99DF9EA9EFAEB9FFB18
:10307000EC9400FCC3B3E833F8E58233F582E583D2
:1030800033F583C3E933F9EA33FAEB33FBEC33FC72
:1030900080C4B3E4F938FAE43582FBE43583FCD02C
:0D30A00082500405827C80122D16022F81C3
:0D00890075813F123114E58260030200868C
:1030AD007F86122D7DF5822220F71430F614888349
:1030BD00A88220F507E6A88375830022E280F7E455
:1030CD009322E0226040F82582500274FFF582E8D9
:1030DD0024F8501ECCCBCAF9E4CC24F85014CBCA3A
:1030ED00F9E4CB24F8500BCAF9E4CA24F85003795B
:1030FD00002224086010F8C3EC13FCEB13FBEA1359
:0B310D00FAE913F9D8F12275820022C4
:00000001FF
