:0614000002148B02498F6B
:01140B0032AE
:0114130032A6
:01141B00329E
:011423003296
:01142B00328E
:0314330002424B27
:01143B00327E
:011443003276
:03144B000250A6A6
:03145300021A95E5
:03145B00021D6F00
:011463003256
:03146B000242CE6C
:011473003246
:01147B00323E
:03148300024CA573
:0314E90002148664
:03148600022DAF85
:1014EC00AF83E58290F554F0EFA3F075E10490DF43
:1014FC003BE0FFBF01F890F554E0FEA3E0FF90DF66
:10150C0006EEF075E10290DF3BE0FFBF0DF8227EA6
:10151C00007F0090FC48E0FCA3E0FD8E028F03C32B
:10152C00EA9CEB9D503AEE2400FCEF34F0FD90FC6D
:10153C0046E0F514A3E0F5158A828B83C007C0063C
:10154C00C005C0041255DBAA82AB83D004D005D0F1
:10155C0006D0078C828D83EAF00EBE00B60F80B3E6
:10156C0022E58290F556F0E0FFE59CC39FF59CE5E3
:10157C009C24FAF59C439E10D2BA22AF9E74EF5F66
:10158C00F59E22AF83E58290F55AF0EFA3F090FC24
:10159C0041E0601390579D12433D90FC41E0F58271
:1015AC0012437F7582EF2290FC417406F090DF3B72
:1015BC00E0FFBF130280F6C29090F557E0FEA3E067
:1015CC00FF90FCA8EEF0EFA3F090FCA274F1F0E415
:1015DC00A3F090FC387472F074F3A3F090FCA0E4C8
:1015EC00F0A3F090FC53F090FC9CF090FC52F09027
:1015FC00FC9E04F0E4A3F090FC9D7402F090F55C6A
:10160C00E4F090000012173490F55AE0FEA3E0FFCE
:10161C0090F559E0FD7B007C008D017A00C3EB99BD
:10162C00EC9A50548B02EA75F0F0A42EF9E43FFAD0
:10163C0090F55C74F0F089828A83C007C006C005FF
:10164C00C004C003121734AA82D003D004D005D032
:10165C0006D007EA601B9057EFC00212433DD00240
:10166C0090FC41E4F08A82C00212437FD0028A824D
:10167C00220BBB00A40C80A190FCABE0FF30E33349
:10168C0090FCA8E0FEA3E0FFEE540F602690FCA8AF
:10169C00E0FEA3E053060F7F007410C39EFEE49F90
:1016AC00FF90FCA8E0FCA3E0FD90FCA8EE2CF0EF72
:1016BC003DA3F090FCA8E0FEA3E0FFC374FF9EE402
:1016CC009F502390FCA8E0FEA3E090DF02EEF09088
:1016DC00DF04E0FF74FC5FF0E0FF74024FF090FC5D
:1016EC00AA7401F0801290FCA8E0FEA3E0FF90DF4A
:1016FC0002EEF090FCAAE4F075E1037E607FEA90C4
:10170C00DF3BE0FDBD130280091EBEFF011FEE4F43
:10171C0070EDD290EE4F700C90FC667413F09058F4
:10172C000712433D75820022AF83E58290F55DF090
:10173C00EFA3F090F55CE0FF240F500A90581812BC
:10174C00433D7582FF22EF703E90FC52E4F090FC1A
:10175C0052E0FE90FC9DE0FDC3EE9D502190FC52AA
:10176C00E075F0F1A42472F58274F335F0F583E49E
:10177C00F090FC52E0FE0E90FC52EEF080D090FC0B
:10178C0052E4F07582002290FC41E0FE601DBE0622
:10179C001E90FC52E0601890DF3BE0FEBE1302800E
:1017AC000E90FC417407F07582ED227582ED22904B
:1017BC00FC52E075F0F1A42472FD74F335F0FE8D4B
:1017CC00828E83E0600A90FC667418F07582FE22AB
:1017DC008D828E8374FFF090FC52E075F0F1A4249E
:1017EC0072FD74F335F0FE0DBD00010E7C0090F51A
:1017FC005DE0FAA3E0FB8A148B158C168F037F0037
:10180C008B178F188D828E838CF0C007C0031255F6
:10181C0002D003D00790FCABE0FE20E3030218DCFF
:10182C0090FC52E075F0F1A42472FD74F335F0FED7
:10183C000DBD00010E90FC7DEBF0EFA3F08D828EC0
:10184C0083125220AE8290F55CEEF090FCABE0FF80
:10185C00530704BF043F90FC52E075F0F1A42472CE
:10186C00FD74F335F0FF0DBD00010F8E037C00906D
:10187C00FCABE0FA5302F090FC81EDF0EFA3F0909A
:10188C00FC83EBF0ECA3F090FC85EAF08D828F8367
:10189C0012525A803B90FC52E075F0F1A42472FD78
:1018AC0074F335F0FF0DBD00010F7C0090FCABE034
:1018BC00FB5303F090FC88EDF0EFA3F090FC8AEE64
:1018CC00F0ECA3F090FC8CEBF08D828F831252A382
:1018DC0090FC52E075F0F1A42472FE74F335F0FF25
:1018EC0090F55CE0FD8E828F83F090FC52E0FF0F50
:1018FC0090FC52EFF090FC9DE0FEEFB5060590FCDD
:10190C0052E4F075820022AF83E58290F55FF0EF30
:10191C00A3F090FC41E0FF6014BF0102800F9058CF
:10192C003212433D90FC41E0F58212437F12158741
:10193C0090FC4AE4F0A3F090FC4AE0FEA3E0FF8E9A
:10194C00828F83121A1590DF3BE0FFBF0DF890DFFA
:10195C003AE0FF53077FBF6000402790FC4AE0FE4F
:10196C00A3E0FF0EBE00010F90FC4AEEF0EFA3F0D7
:10197C00D29090000A124F2CC29090000A124F2C59
:10198C0080B590FC417402F090FC67E0FCA3E0FD94
:10199C00A3E0A3E090FC4CECF0EDA3F090F55FE03D
:1019AC00FEA3E0FF90FC50EEF0EFA3F02290FC4180
:1019BC00E4F090FC67E0FCA3E0FDA3E0A3E090FC66
:1019CC004CECF0EDA3F02290FC417404F090FC6719
:1019DC00E0FCA3E0FDA3E0A3E090FC4CECF0EDA355
:1019EC00F02290FC417405F090FC54E4F0A3F090CC
:1019FC00FC67E0FCA3E0FDA3E0A3E090FC4CECF062
:101A0C00EDA3F075820002156DAF83E58290F56150
:101A1C00F0EFA3F090F561E0FEA3E0FFEE2400F5FB
:101A2C0082EF34F0F583E0FF7E008F828E83021408
:101A3C00ECAF83E58290F563F0EFA3F090F563E0F3
:101A4C00FEA3E0FF90F370EEF0EFA3F0222290FCE7
:101A5C004AE0FEA3E0FF0EBE00010F90FC4AEEF040
:101A6C00EFA3F0C3EE9470EF9403400790FC4AE4AC
:101A7C00F0A3F090FC4AE0FEA3E0FFEE2400F58218
:101A8C00EF34F0F583E0F58222C021C0E0C0F0C055
:101A9C0082C083C007C006C005C004C003C002C01A
:101AAC0001C000C0D075D00090FC3DE02401F0A333
:101ABC00E03400F090FC42E0FEA3E0FF90FC3DE03F
:101ACC00FCA3E0FDECB5060BEDB5070790FC3DE47F
:101ADC00F0A3F090FC3DE0FEA3E0FFBE0005BF00CC
:101AEC0002800BBE0105BF00028068021C5790FCEF
:101AFC003DE0FEA3E08E077E00AC9C7D00EC420630
:101B0C00ED420790FC4EEEF0EFA3F090FC4AE0FEA5
:101B1C00A3E0FF0EBE00010F90FC4AEEF0EFA3F025
:101B2C0090FC48E0FCA3E0FDC3EE9CEF9D400790C9
:101B3C00FC4AE4F0A3F090DF3BE0FFBF1303021D6F
:101B4C005290FC4AE0FEA3E0FF8E828F83121A159E
:101B5C00021D5290FC41E0FFBF05028003021D52A2
:101B6C00900019124F2C90F567741CF090FC4AE011
:101B7C00FEA3E090F568EEF090FC4AE0A3E090F54F
:101B8C0069F090F56A7442F090F56B744CF090F536
:101B9C006C7441F090F56D7448F090F56E7442F0F1
:101BAC0090F56F744CF090F5707441F090F5717481
:101BBC0048F090F5727442F090F573744CF090F517
:101BCC00747441F090F5757448F090F5767442F0A9
:101BDC0090F577744CF090F5787441F090F5797439
:101BEC0048F090F57A7442F090F57B744CF090F5D7
:101BFC007C7441F090F57D7448F090F57E7442F061
:101C0C0090F57F744CF090F5807441F090F58174F0
:101C1C0048F090F5827420F090FC56741CF0E4A30C
:101C2C00F090FC58F0A3F090FC5AF0A3F090F568FB
:101C3C0012460890FC54E0FEA3E0FF0EBE00010F1C
:101C4C0090FC54EEF0EFA3F0021D5290FC41E0FF2B
:101C5C00BF03028065BF04028008BF050280030237
:101C6C001D5290FC4CE0FEA3E0FF90FC67E0FAA351
:101C7C00E0FBA3E0FCA3E0FD8E008F01E4FEFFEA95
:101C8C00C398FAEB99FBEC9EFCED9FFDC374649A30
:101C9C00E49BE49CE49D502290586012433D90FCE0
:101CAC00417405F090FC67E0FCA3E0FDA3E0FEA30B
:101CBC00E0FF90FC4CECF0EDA3F090FC53E075F0E1
:101CCC00F1A42472FE74F335F0FF8E828F83E060F2
:101CDC0075900019124F2C90FC53E075F0F1A42470
:101CEC0072FE74F335F0FF90DF04E05401FDB40193
:101CFC0000E4332EFDE43FFC8E828F83E090FC5693
:101D0C00F0E4A3F090FC58F0A3F090FC5AF0A3F090
:101D1C008D828C8312460890FC53E075F0F1A4245C
:101D2C0072F58274F335F0F583E4F090FC53E0FF28
:101D3C000F90FC53EFF0BF0200400590FC53E4F011
:101D4C0090587E12433DD0D0D000D001D002D003A9
:101D5C00D004D005D006D007D083D082D0F0D0E00C
:101D6C00D021323290FC41E4F090FC52F090FC53C4
:101D7C00F090FC4AF0A3F090FC467453F0E4A3F00E
:101D8C0090FC487453F0E4A3F090FC4EF0A3F09058
:101D9C00FC4CF0A3F090FC427406F0E4A3F090FC31
:101DAC0044F0A3F090FC50F0A3F090FC54F0A3F09E
:101DBC0012151B90FC41E4F0759DDC859E9E439EA4
:101DCC000443CB1022021D709021F81232F690FCC5
:101DDC0067E4F0A3F0A3F0A3F0121DD190F583E417
:101DEC00F090F5847432F074F8A3F02290FC41E08A
:101DFC00FFBF000302212DBF0103021FFEBF020320
:101E0C00021EFCBF030302212DBF040302212DBFC0
:101E1C00050302210EBF060122BF40028006BF410E
:101E2C000280422275E10490DF3BE0FFBF01F89095
:101E3C00DF0374E5F090DF047404F090DF07741294
:101E4C00F090DF08E4F090DF147410F090DF17E0EE
:101E5C00FF74C04FF090FC417441F090F5847432E3
:101E6C00F074F8A3F090F583E4F090FC54E0FEA33A
:101E7C00E0FF90F583E0FDFB7C00C3EB9EEC9F50F4
:101E8C004590DF06EDF075E10490DF3BE0FFBF010C
:101E9C00F875E10290DF3BE0FFBF0DF890000212F5
:101EAC004F2C90F584E0FEA3E0FF90F583E02EFE2E
:101EBC00E43FFF90DF3AE0FD8E828F83F090F58354
:101ECC00E02401F080A475E10490DF3BE0FFBF014A
:101EDC00F890FC54E0FEA3E08E3375340090F5844A
:101EEC00E0F535A3E0F536753201758243022DE13C
:101EFC00E50F7003021FEC90FC65740DF0AF9A7443
:101F0C00FE5FF59AE50F20E403021FEC90FC417490
:101F1C0003F090FC3FE0FEA3E08E8212156D90580A
:101F2C008C12433D90FC3FE0FEA3E0FF8E828F833A
:101F3C0012439A90F831E025E0FEE42432FFEE34AF
:101F4C00F8FE8F828E8312433D90F831E0FFB4018E
:101F5C0000E433FF90F583F0EF2436FDE434FCFE0F
:101F6C008D828E83E0707290DF04E0FE30E0378F5C
:101F7C0006EE2EFDE42432F582ED34F8F583E0FE16
:101F8C008E337534008F06EE2EFDE42432FEED34D4
:101F9C00F8FD74012EF535E43DF536753201758288
:101FAC0042122DE1802290DF02E0FE8E33E4F53404
:101FBC00EF2FFEE42432FFEE34F8FE8F358E3675AB
:101FCC003201758242122DE190F583E0FF2436F543
:101FDC0082E434FCF5837401F0AF0F74EF5FF50FFE
:101FEC00D20010AF02C200750F00A20092AF439A4C
:101FFC000122E50F70030220FC90FC65740DF0AF1C
:10200C009A74FE5FF59AE50F20E4030220FC90F829
:10201C0031E0FF90F583B40100E433F09058A11245
:10202C00433D90F583E025E0FEE42432FFEE34F8E6
:10203C00FE8F828E8312439A90F583E025E0FEE4B6
:10204C002432FFEE34F8FE8F828E8312433D90F8DB
:10205C0031E0FFB40100E433FF90F583F0EF243658
:10206C00FDE434FCFE8D828E83E0707290DF04E020
:10207C00FE30E0378F06EE2EFDE42432F582ED348F
:10208C00F8F583E0FE8E337534008F06EE2EFDE4FA
:10209C002432FEED34F8FD74012EF535E43DF536B1
:1020AC00753201758242122DE1802290DF02E0FE32
:1020BC008E33E4F534EF2FFEE42432FFEE34F8FED9
:1020CC008F358E36753201758242122DE190F58373
:1020DC00E0FF2436F582E434FCF5837401F0D20081
:1020EC0010AF02C200AF0F74EF5FF50FA20092AFFA
:1020FC00D20010AF02C200750F00A20092AF439A3B
:10210C00012290FC54E0FEA3E0FF90FC48E0FCA30D
:10211C00E0FDC3EE9CEF9D50012290FC417404F055
:10212C0022E50F70012290FC65740DF0E50F543020
:10213C0070012290F831E0FFB40100E433FF90F518
:10214C0083F0EF2436FDE434FCFE8D828E83E06058
:10215C00030221E590DF04E0FE30E0378F06EE2E1F
:10216C00FDE42432F582ED34F8F583E0FE8E337510
:10217C0034008F06EE2EFDE42432FEED34F8FD74AF
:10218C00012EF535E43DF536753201758242122D7E
:10219C00E1803590FC97E0FE600A90FC9AE0FDA38C
:1021AC00E0FE800890DF02E0FCFD7E00EF2FFCE4F7
:1021BC002432FFEC34F8FC8F358C367532018D33BC
:1021CC008E34758242122DE190F583E0FF2436F5B2
:1021DC0082E434FCF5837401F0D20010AF02C2002B
:1021EC00AF0F74CF5FF50FA20092AF2290F7E3E030
:1021FC00FDA3E0FEA3E0FF90F7E8E0FCBC42028008
:10220C0003022B7790F7E9E0FC24BE5003022B6904
:10221C00EC240A83F582EC244683F583E473696924
:10222C00FE3869B15E7C8FC8012568066969BE3DC0
:10223C0064D7FC0F7BEF2469696969696969CE57BA
:10224C009E94B76969696969696969696969696944
:10225C006969696969696969696969696969AEE81E
:10226C002B2B22252B2324242424252525262B2BFC
:10227C0028292929292A2A27292B2B2B2B2B2B2BB5
:10228C002A2B2A29292B2B2B2B2B2B2B2B2B2B2B98
:10229C002B2B2B2B2B2B2B2B2B2B2B2B2B2B2B2B82
:1022AC002222C007C006C005121587D005D006D063
:1022BC000790FC417440F08D828E838FF012573A58
:1022CC00FC7B0090FC54ECF0EBA3F090F809EDF0E3
:1022DC00EEA3F075820112408F022B7790FC41E443
:1022EC00F090F809EDF0EEA3F075820112408F0228
:1022FC002B7790FC41E060099058BB12433D022BB8
:10230C00778D828E838FF012573AFC7B0090F58686
:10231C00ECF0EBA3F08D828E83A3E0FAE4F92CFCB5
:10232C00EA3BFB90F586ECF0EBA3F08D828E83A359
:10233C00A3A3A3E0FA8A0889098D828E83A3A3A3A1
:10234C00A3A3E0FAE42508F508EA3509F50990FCA1
:10235C003AE4F0A3F074062DF9E43EFA90FC56EC46
:10236C00F0EBA3F090FC58E4F0A3F090FC5AE508D5
:10237C00F0E509A3F089828A83C007C006C0051264
:10238C004608AC82D005D006D0078D828E838FF0A4
:10239C00EC1255A390F809EDF0EEA3F07582011242
:1023AC00408F022B778D828E838FF012573A90FCE0
:1023BC009AF0E4A3F08D828E83A3E0FB7C0090FC6A
:1023CC009AE0F9A3E0FA90FC9AEC29F0EB3AA3F02E
:1023DC0090FC9AE0FBA3E0FC4B604490FC977401EA
:1023EC00F090FC98E0FBA3E0FC4B70471245419049
:1023FC00FC9AE0FBA3E0FC90FC98EBF0ECA3F090D3
:10240C00FC98E0FBA3E090DF02EBF090DF04E0FC33
:10241C0074FC5CF0E0FC74024CF01244F7801490F5
:10242C00FC97E4F090FC98F0A3F090FC9AF0A3F0E9
:10243C0012454190F7E8E0FC90F7E9E0F53275358C
:10244C009A7536FC7533017534008C82122DE102BD
:10245C002B778D828E838FF012573A90FCABF090D5
:10246C00F809EDF0EEA3F075820112408F022B7784
:10247C0090F80974ABF074FCA3F075820112408FD4
:10248C00022B7790FCABE0FC5304F090FC797406C3
:10249C00F090FC7AECF08D828E838FF0C007C00632
:1024AC00C0051251C8D005D006D00790F809EDF040
:1024BC00EEA3F075821012408F022B7790FCABE0EC
:1024CC00FC5304F090FC797404F090FC7AECF08DE1
:1024DC00828E838FF0C007C006C0051251C8D0058C
:1024EC00D006D00790F809EDF0EEA3F0758210122B
:1024FC00408F022B778D828E838FF012573A90FC8F
:10250C00ACF0E0FC74015CF090F809EDF0EEA3F097
:10251C0075820112408F022B7790F80974ACF0741D
:10252C00FCA3F075820112408F022B778D828E8373
:10253C008FF012573AFC7B008C828B83C007C0064D
:10254C00C005121A3DD005D006D00790F809EDF061
:10255C00EEA3F075820112408F022B7790FC41E0C4
:10256C00601C8D828E838FF074EF1255A390F80946
:10257C00EDF0EEA3F075820112408F022B778D8265
:10258C008E838FF012573AFC7B0090F586ECF0EBC3
:10259C00A3F08D828E83A3E0FAE42CFCEA3BFB9043
:1025AC00F586ECF0EBA3F08D828E83A3A3E0FA907A
:1025BC00FC3AE4F0A3F074032DF8E43EF990F557DF
:1025CC00ECF0EBA3F090F559EAF088828983C00710
:1025DC00C006C00512158FAC82D005D006D0078D71
:1025EC00828E838FF0EC1255A390F809EDF0EEA3D8
:1025FC00F075820112408F022B778D828E838FF0C3
:10260C0012573AFB7C0090F586EBF0ECA3F0EB4C08
:10261C00600302270090FCA8E0F9A3E0FA49601CD3
:10262C0090DF3BE0FABA1314900028C007C006C034
:10263C0005124F2CD005D006D00780D990FCA8E00D
:10264C00F9A3E0FA49606B9058E0C007C006C005DA
:10265C0012433D90FCA8E0F9A3E0FA89828A831228
:10266C00439A90F372E0F58212437F90F463E0F5A5
:10267C008212437FD005D006D00790FC667412F00E
:10268C008D828E838FF074EC1255A3C290C007C05C
:10269C0006C0051244D2D005D006D00790FC41E408
:1026AC00F090F809EDF0EEA3F075820112408F0264
:1026BC002B77C29090FC41E4F08D828E838FF012C8
:1026CC0055A39058F4C007C006C00512433D90FCBA
:1026DC003AE0F9A3E0FA89828A8312439AD005D0B2
:1026EC0006D00790F809EDF0EEA3F07582011240C8
:1026FC008F022B7790FC41E0FABA06028061905968
:10270C0004C007C006C00512433DD005D006D00753
:10271C0090FC66E0FABA121B8D828E838FF074ECFB
:10272C001255A390F809EDF0EEA3F075820112405A
:10273C008F801F90FC667417F08D828E838FF074DF
:10274C00EF1255A390F809EDF0EEA3F0758201128B
:10275C00408FC2901244D290FC41E4F0022B77746B
:10276C00012DF9E43EFA90F55CEBF089828A83C086
:10277C0007C006C005121734AC82D005D006D007AE
:10278C008D828E838FF0EC1255A38D828E838FF009
:10279C0012573AFBEC603BBBFE02803690590DC0E1
:1027AC0007C006C00512433DD005D006D0078D8268
:1027BC008E838FF012573AF582C007C006C00512FF
:1027CC00437FC2901244D2D005D006D00790FC4172
:1027DC00E4F090F809EDF0EEA3F075820112408F51
:1027EC00022B778D828E838FF012573AFB7C0090F0
:1027FC00F586EBF0ECA3F0C374F09BE49C501990BD
:10280C00581812433D90F8097486F074F5A3F075CE
:10281C00820112408F022B7790FC52E075F0F1A4EC
:10282C002472F974F335F0FA89828A83E060199086
:10283C00591A12433D90F8097486F074F5A3F0759B
:10284C00820112408F022B778B0089828A83E8F0F9
:10285C0090FC52E075F0F1A42472F974F335F0FA9F
:10286C0009B900010A890A8A0B750C0074012DF94B
:10287C00E43EFA89148A157516008B178C18850A94
:10288C0082850B83850CF012550290FC52E0FC0CF7
:10289C0090FC52ECF0BC0200400590FC52E4F0902D
:1028AC00F8097486F074F5A3F075820112408F025A
:1028BC002B778D828E838FF012573AFC7B0090FC25
:1028CC0046ECF0EBA3F090FC46E0F9A3E0FAC374FD
:1028DC00709C74039B402E74022DFBE43EFC8B1405
:1028EC008C1575160089178A1890F00075F0001277
:1028FC00550290F8097446F074FCA3F0758202122C
:10290C00408F022B7790F809743BF07459A3F07543
:10291C00820812408F022B7790FC46E0FBA3E090DC
:10292C00F8097400F074F0A3F08B8212408F022B24
:10293C0077121A5A7B008B83121A1590FC4AE0FB13
:10294C00A3E0FC90F809EB2400F0EC34F0A3F07554
:10295C00820112408F022B778D828E838FF012575B
:10296C003AFC7B008C828B83C007C006C005121416
:10297C00ECD005D006D00790F809EDF0EEA3F07579
:10298C00820112408F022B77758200C007C006C0EF
:10299C000512156DD005D006D00790F809EDF0EEB4
:1029AC00A3F075820112408F022B77C007C006C0BE
:1029BC0005121587D005D006D00790F809EDF0EE7A
:1029CC00A3F075820112408F022B778D828E838F3C
:1029DC00F012573AFC7B0090FC42ECF0EBA3F09029
:1029EC00F809EDF0EEA3F075820112408F022B77FF
:1029FC0090F8097442F074FCA3F075820412408FB5
:102A0C00022B778D828E838FF0C007C006C0051213
:102A1C0042FCD005D006D0078D828E838FF01257E2
:102A2C003AF582C007C006C00512437FD005D00618
:102A3C00D0078D828E838FF012573AFC7B008C145A
:102A4C008B158B167517158B1890FC4175F000C003
:102A5C0007C006C005125502D005D006D00790F865
:102A6C0009EDF0EEA3F075821512408F022B7790D2
:102A7C00FC3DE0FBA3E0FC90FC44EBF0ECA3F090FD
:102A8C00F8097441F074FCA3F075821512408F02A2
:102A9C002B778D828E838FF012573AFC7B008C82C1
:102AAC008B83C007C006C005121913D005D006D001
:102ABC000790F809EDF0EEA3F075820112408F0239
:102ACC002B7790FC67E0F9A3E0FAA3E0A3E090FC7D
:102ADC004CE9F0EAA3F08D828E838FF012573AFC0A
:102AEC0090FC41F090FC41E0FBEC24FA404DEB2BC8
:102AFC002B902B0173022B13022B13022B13022B83
:102B0C0035022B35022B24C007C006C005121587D1
:102B1C00D005D006D0078023C007C006C005121907
:102B2C00EED005D006D0078012758200C007C00613
:102B3C00C00512156DD005D006D00790F809EDF040
:102B4C00EEA3F075820112408F802090F809744139
:102B5C00F074FCA3F075820112408F800E90F8097E
:102B6C00EDF0EEA3F075820112408F90000022224E
:102B7C0090F7F1E0FFBF013990F7D1E0FEA3E0FF41
:102B8C0090F7F4E0FCA3E0FD90F7D4E0FAA3E0FBAF
:102B9C00EA4B601D8E828F83E0F9A3AE82AF838CEB
:102BAC00828D83E9F0A3AC82AD831ABAFF011B803E
:102BBC00DF90F7DAE054FDF090DE11E0FF74084F7F
:102BCC00F022AE82AF83E0FD20E703022CC78E8299
:102BDC008F83A3E0FD601DBD0102802ABD0202802F
:102BEC003BBD0302805ABD04028076BDFE03022C5D
:102BFC0089022CC775370275380090FC6575F0009A
:102C0C0012308E022CC790DE00E0FD7C0075392856
:102C1C008C3A8D828C83123102022CC78E828F8368
:102C2C00A3A3E0FCA3E0FD74062EF582E43FF5833C
:102C3C00E0F539A3E0F53A8C828D83123102807B6A
:102C4C008E048F057B0074062EF582E43FF583E03D
:102C5C00F537A3E0F5388C828D838BF012308E80A3
:102C6C005A90F7D1E0FBA3E0FCA3E0FD7539107599
:102C7C003A008B828C838DF0123102803E74022ECE
:102C8C00FEE43FFF7D00756B43756C59756D807567
:102C9C0014048D158E828F838DF0124FF1E5828591
:102CAC0083F045F06012D29090012C124F2CC29000
:102CBC0090012C124F2C800375C983900000229038
:102CCC00DF2FE4F090DF30F090DF31F090DF007414
:102CDC00AAF090DF01740FF090DF027430F090DFF7
:102CEC00037440F090DF04E4F090DF05F090DF0611
:102CFC00F090DF077406F090DF08E4F090DF0974C1
:102D0C0024F090DF0A742EF090DF0B74EEF090DF5D
:102D1C000C74BAF090DF0D74B5F090DF0E7405F002
:102D2C0090DF0F7423F090DF107411F090DF1174AA
:102D3C0036F090DF127407F090DF13740FF090DF11
:102D4C00147418F090DF1514F090DF16746CF0907A
:102D5C00DF177403F090DF187440F090DF19749152
:102D6C00F090DF1A7456F090DF1B7410F090DF1C9B
:102D7C0074E9F090DF1D742AF090DF1EE4F090DF10
:102D8C001F741FF090DF237488F090DF247431F0EF
:102D9C0090DF257409F090DF2E74C0F0221250746D
:102DAC000250A0122DA91243E41250CD1230591228
:102DBC00457A121DD4123088D2AF122F2CD290909B
:102DCC000002124F2CC29090000A124F2C1240C0DD
:052DDC00121DF880F853
:10579D0043616E6E6F742063616C6C207472616E08
:1057AD00736D69745F6C6F6E67207768696C6520C7
:1057BD004648535320486F7070696E67206F722092
:1057CD00616C72656164792070726F636573736962
:1057DD006E67207472616E736D69745F6C6F6E6746
:1057ED0021004D41435F74782829207265747572CC
:1057FD006E6564206572726F72006E6576657220DB
:10580D00656E74657265642054580046485353782C
:10581D006D6974206D65737361676520746F6F209A
:10582D006C6F6E6700464853532073746174652026
:10583D00656E746572696E672053594E4348494EC3
:10584D00472066726F6D2077726F6E67207374617B
:10585D0074650053594E43485F4D41535445522092
:10586D002D3E2053594E43494E474D4153544552B9
:10587D000046485353786D697420646F6E65006EF1
:10588D006574776F726B207061636B6574287379C3
:10589D006E6329006E6574776F726B207061636B38
:1058AD00657428646973636F766572792900637214
:1058BD0061702C20706C6561736520757365204671
:1058CD00485353786D6974282920696E7374656126
:1058DD0064210064726F706F75742066696E616CFF
:1058ED0020776169742100746F74616C2062797422
:1058FD0065732074783A00756E64657272756E000A
:10590D00627566666572206572726F720073746976
:10591D006C6C2077616974696E67206F6E20746896
:10592D0065206C617374207061636B6574004E4FFC
:0B593D00204445414C005253544E00E2
:102DE100AF827E0190DE0E7405F090FC657412F0E6
:102DF100E53345347003022F227C107D2790DE11CC
:102E0100E0FB30E00D90FC667401F01CBCFF011D7D
:102E110080EBEC4D7014D2909003E8124F2CC290CD
:102E21009003E8124F2C90FFFF22BE012C7E0090F0
:102E3100DE2A7440F0EFF0E532F0AC337D00ECF0C7
:102E4100E534F0C3743B9533E4953450067C3B7D07
:102E510000801AAC33AD348014C374409533E495CB
:102E61003450067C407D008004AC33AD3474802541
:102E71002942D6852682852783AA35AB368B01E97F
:102E8100F0852682852783A3EAF08526828527831C
:102E9100A3A374DEF0852682852783A3A3A3742AC6
:102EA100F0852682852783A3A3A3A3A3ECFBF0854A
:102EB1002682852783A3A3A3A3E054E0F08526827D
:102EC100852783A3A3A3A3A3A3A3E0543F4440F076
:102ED100852682852783A3A3A3A3A3A3A3E054CF1D
:102EE100F0E52942D6E52942D7E52955D160FAE531
:102EF10029F452D190DE0E7405F090DE11E0FB74DE
:102F0100014BF0E533C39CF533E5349DF534EC25F5
:102F110035F535ED3536F53690FC657413F0022D37
:102F2100F190FC657414F090000022E52270051206
:102F310040C080F722AFBE747F5FF5BE43BE809074
:102F4100DE0B74F7F090DE0774FFF090DE09F043BA
:102F51008C10AF8C74FE5FF58CD2BD439A027589DB
:102F610000C2C5758B00C2E843A90243B902852698
:102F710082852783A3A3A3A3E054E0F0852682855D
:102F81002783A3A3A3A3A3A3E0549F4420F08526F2
:102F910082852783A3A3A3A3A3A3A3E04408F08569
:102FA1002682852783A3A3A3A3A3A3A3E054FC4460
:102FB10001F090DE01E0FF74FE5FF0E4F525F523FA
:102FC100F524F52290DE0EF090DE107408F090DE0C
:102FD10013F090F7DBE4F090F7DAF090F7CFF0A37D
:102FE100F090F7D17488F074F5A3F0E4A3F090F7B2
:102FF100D4F0A3F090F7D6F090F7D7F090F7D8F08F
:10300100A3F090DE0E7405F090DE107408F090DEEF
:1030110013F090DE12E0FF74014FF090DE15E0FF37
:1030210074014FF090F7EDE4F090F7ECF090F7E1D8
:10303100F0A3F090F7E374C8F074F5A3F0E4A3F003
:1030410090F7E6F0A3F090F7E8F090F7E9F090F749
:10305100EAF0A3F0439A022212440E8582288528C1
:10306100F005F07401800225E0D5F0FBF529E52893
:1030710075F008A42419F52674F835F0F52790FCAD
:10308100657402F0022F36D29122C29122AFF0AEC6
:1030910083E58290F7F6F0EEA3F0EFA3F090F7DB73
:1030A100E06034D2909003E8124F2CC2909003E874
:1030B100124F2CD2909003E8124F2CC2909003E84B
:1030C100124F2CD2909003E8124F2CC2909003E83B
:1030D100124F2C90FFFF2290F7F6E0FDA3E0FEA334
:1030E100E0FF90F7CCEDF0EEA3F0EFA3F090F7CF77
:1030F100E537F0E538A3F090F7DB7401F0900000BC
:1031010022AF83E58290F7F9F0EFA3F090F7DBE0CF
:103111006034D2909003E8124F2CC2909003E812D1
:103121004F2CD2909003E8124F2CC2909003E812DA
:103131004F2CD2909003E8124F2CC2909003E812CA
:103141004F2C90FFFF2290F7F9E0FEA3E0FF7D00F6
:1031510090F7CCEEF0EFA3F0EDA3F090F7CFE539C7
:10316100F0E53AA3F090F7DB7401F0900000227FC4
:103171000290DE0EE4F090F7CFE0FDA3E0FEC37411
:10318100409DE49E50047C4080048D047F0A8C02A3
:103191007B00EDC39AFDEE9BFE90F7CFEDF0EEA321
:1031A100F08C06EE603690F7CCE0FBA3E0FCA3E0E8
:1031B100FD8B828C838DF012573A90DE20F090F7D0
:1031C100CCE0FBA3E0FCA3E0FD0BBB00010C90F7FE
:1031D100CCEBF0ECA3F0EDA3F01E80C790DE11E084
:1031E1004FF090F7CFE0FEA3E0FF4E700590F7DBC4
:1031F100E4F02290F7DB7402F07582002290F7D19F
:10320100E0FDA3E0FEA3E0FF90DE11E0FCB40100CD
:10321100E433FC20E0F290DE0EE4F090DE16E0FCF8
:103221007B0090F7D4ECF0EBA3F090F7DAE0FC3000
:10323100E11390F7DB7403F090DE11E0FC74044CB1
:10324100F090FFFF2290F7DAE04402F090F7D4E02B
:10325100FBA3E0FCC374409BE49C501CD290900102
:103261002CC007C006C005124F2CC29090012C1231
:103271004F2CD005D006D00790F7D4E0FBA3E0FC9B
:103281008D07EB4C601690DE20E0FD8F828E83F07F
:10329100A3AF82AE831BBBFF011C80E6E52C452D4D
:1032A1006009852C82852D8312148990F7D4E0FE64
:1032B100A3E0FFC3EE9440EF9400501DE52A452B97
:1032C1006009852A82852B8312148990DE11E0FF23
:1032D10074084FF090F7DBE4F090DE11E0FF7440EA
:1032E1004FF090F7D4E0FEA3E08E82F58322858231
:1032F1002E85832F22858230858331227537017592
:10330100380090002575F04002308EAFF0AE83E5B5
:103311008290F7FBF0EEA3F0EFA3F090F7FBE0FD56
:10332100A3E0FEA3E0FF74022DFDE43EFE8D828E3C
:10333100838FF012573AFDA312573A8D257522015A
:1033410022AF827D817E598D828E83A3E090F7FE2C
:10335100F0AC1490F7FEE0FBBBFF02803EEBB5073B
:1033610023EC700890F7FE74FFF080E71C8D828ECD
:1033710083E02DFDE43EFE8D828E83A3E0FB90F77A
:10338100FEF080CF8D828E83E02DFDE43EFE8D82A6
:103391008E83A3E0FB90F7FEF080B88D828E8322AE
:1033A100AFF0AE83E58290F7FFF0EEA3F0EFA3F06C
:1033B10090F7FFE0F53DA3E0F53EA3E0F53F740291
:1033C100253DFAE4353EFBAC3F8A828B838CF012BB
:1033D100573AF8A312573AF9893B753C007402B584
:1033E1003B06E4B53C0280227407B53B06E4B53CDC
:1033F100028002804274AF58FE7F008A828B838CE8
:10340100F0EE1255A3A3EF1255A38A828B838CF0A1
:1034110012573AFAA312573AF5828A14123342AE7E
:1034210082AF8390F802EEF0EFA3F08E828F83A338
:10343100A3E0FE7F00801C89828814123342AC8293
:10344100AD8390F802ECF0EDA3F08C828D83E0FC6B
:10345100FE7F007406253DFBE4353EFCAD3F8B82CB
:103461008C838DF012573AFCA312573AFDC3EC9EA0
:10347100ED9F50048C068D07EE4F700990DE11E030
:10348100FD74204DF090F802E0FCA3E0FD8E398F31
:103491003A8C828D8302310290DE0EE4F090DE11CF
:1034A100E0FF30E40E90F7DBE4F090DE11E0FE7413
:1034B100804EF0EF30E22490DE11E4F090FC66746F
:1034C10004F090F7DBE4F0D290900014C007124FA3
:1034D1002CC290900014124F2CD00790F7DBE0FE25
:1034E100BE0319D290900032C007124F2CC29090A7
:1034F1000032124F2CD00790F7DBE4F090F7DBE0BD
:1035010060030237D9EF20E0030237D990DE0EE4E1
:10351100F090DE16E0FFFE7B407C007D40EE601601
:1035210090DE20E0FA8B828C838DF01255A3A3AB41
:1035310082AC831E80E7E540FE20E7030236AC74CF
:10354100605EFD6015BD2003023666BD4003023694
:1035510072BD60030236970237C1741F5EFF70416E
:10356100AD41BD0002801CBD06028005BD0826805C
:103571000C90004075F0401233A10237C11232FDA8
:103581000237C175370275380090595F75F08012A6
:10359100308E0237C190004075F0401242FB023775
:1035A100C1BF0145AD41BD00028005BD0A268012A3
:1035B10075370275380090595F75F08012308E02B0
:1035C10037C175370175380090596275F080123036
:1035D1008E0237C190DE11E0FD74204DF090004065
:1035E10075F0401242FB0237C1BF0236AD41BD004A
:1035F100028008BD12030237C18012753702753887
:103601000090595F75F08012308E0237C190DE1143
:10361100E0FD74204DF090004075F0401242FB0235
:1036210037C1BF032BE4B5411275370275380090DD
:10363100595F75F08012308E0237C190DE11E0FDC6
:1036410074204DF090004075F0401242FB0237C1EA
:1036510090004075F0401242FB90DE11E0FD7420B5
:103661004DF00237C190DE11E0FD74204DF00237BC
:10367100C1E52E452F601312367D800BC02EC02F61
:1036810090004075F040220237C190004075F04033
:103691001237F00237C190DE11E0FD74204DF09039
:1036A100004075F0401242FB0237C174605EFD605C
:1036B10015BD2003023778BD400302378CBD60037E
:1036C1000237AF0237C1741F5EFF7048AE41BE01C1
:1036D100030237C1BE03030237C1BE0502800BBE20
:1036E10007030237C1BE0917800990DE00E542F0E9
:1036F1000237C190004075F04012330C0237C1907F
:10370100004075F0401242FB90DE11E0FE74204E45
:10371100F00237C1BF0129AE41BE01030237C1BE6C
:1037210003030237C1BE11030237C190004075F097
:10373100401242FB90DE11E0FE74204EF00237C1D0
:10374100BF0220AF41BF01028076BF0302807190AA
:10375100004075F0401242FB90DE11E0FF74204FF3
:10376100F0805D90DE11E0FF74204FF09000407515
:10377100F0401242FB804990004075F0401242FB3C
:1037810090DE11E0FF74204FF08035E52E452F606B
:1037910012123797800BC02EC02F90004075F04059
:1037A10022801D90004075F0401237F0801290DEAB
:1037B10011E0FF74204FF090004075F0401242FB81
:1037C10090DE11E0FF74404FF0E5464547700990E7
:1037D100DE11E0FF74084FF090F7DBE0FFBF01035B
:1037E10012317090F7DBE0FFBF02030231FE22AF1E
:1037F100F0AE83E58290F804F0EEA3F0EFA3F09031
:10380100F804E0FDA3E0FEA3E0FF8D828E838FF03C
:1038110012573AFC20E70302394A74012DFAE43EBB
:10382100FB8F048A828B838CF012573AFC601EBC9A
:103831000102802BBC0202803CBC03028073BC04E9
:10384100030238E7BCFE030239040239B0753702BE
:1038510075380090FC6575F00012308E0239B09019
:10386100DE00E0FC7B007539288B3A8C828B831259
:1038710031020239B074022DFAE43EFB8F048A82D0
:103881008B838CF012573AFAA312573AFB74062D28
:10389100F8E43EF98F04888289838CF012573AF557
:1038A10039A312573AF53A8A828B831231020239CF
:1038B100B08D028E038F048A488B498C4A74062D81
:1038C100F8E43EF98F04888289838CF012573AF527
:1038D10037A312573AF538854882854983854AF0DE
:1038E10012308E0239B090F7D1E0FAA3E0FBA3E0E9
:1038F100FC753910753A008A828B838CF012310283
:103901000239B074022DFAE43EFB8F0490FC6B7413
:1039110064F07459A3F07480A3F075140475150054
:103921008A828B838CF0124FF1E5828583F045F01A
:103931006012D29090012C124F2CC29090012C1247
:103941004F2C806B75C983806690F7F1E0FCBC0158
:103951005674022DFDE43EFE8D828E838FF0125748
:103961003AFDA312573AFE90DE0EE4F090DE16E027
:10397100FF7C007513088F828C83C007C006C005C9
:10398100C004124F71D004D005D006D007EF4C60AF
:103991001690DE20E0FB8D828E83F0A3AD82AE8394
:1039A1001FBFFF011C80E690F7DAE054FDFFF090A5
:1039B10000002290F7ECE0FF30E10A90FC6674050C
:1039C100F090FFFF2290DE0E7405F090DE16E0FF0E
:1039D1008F4B754C0090DE17E0FCE4254BF54BEC6A
:1039E100354CF54C90F7EAE0FCA3E0FD4C705890A3
:1039F100F7E6E4F0A3F090DE2AE090F7E8F090DE3D
:103A01002AE090F7E9F090DE2AE0FD7C0090F7EAE9
:103A1100EDF0ECA3F090DE2AE0FAE4FB2DFDEA3CA8
:103A2100FC90F7EAEDF0ECA3F0E54B24FCF54BE557
:103A31004C34FFF54CC374049D74029C500990F7FB
:103A4100EA7404F003A3F0E52955D16012D29090F5
:103A51000014124F2CC290900014124F2C80E89049
:103A6100F7E3E0FBA3E0FCA3E090F7E6E0FAA3E0D4
:103A7100FFEA2BFBEF3CFC7480252942D685268288
:103A810085278374DEF0852682852783A3742AF037
:103A9100852682852783A3A38C07EFF0852682855F
:103AA1002783A3A3A3EBF0852682852783A3A3A362
:103AB100A3A3A3A3E0543FF0852682852783A3A374
:103AC100A3A3A3A3A3E054CF4410F074052526FEBD
:103AD100E43527FF90DE16E0FD8E828F83EDF074D2
:103AE100042526FEE43527FF90DE17E08E828F83C2
:103AF100541FF5F0E054E045F0F090F7E6E0FEA346
:103B0100E0FFEE254BFCEF354CFDC374049C7402C1
:103B11009D500B7404C39EF54B74029FF54CC37406
:103B210040954BE4954C502890FC667406F090DE6D
:103B310014E0FD74FE5DF0751304900005124F71E1
:103B4100751310854B82854C83124F7190FFFE22B5
:103B5100E52942D6E52942D7E54B2EFEE54C3FFF4C
:103B610090F7E6EEF0EFA3F0E52955D160FAE529EB
:103B7100F452D190F7E6E0FEA3E0FF90F7EAE0FC13
:103B8100A3E0FDC3EE9CEF9D402C90F7ECE04402D6
:103B9100F090F7EAE4F0A3F090DE0E7405F0AE23A6
:103BA10074BF5524FF8E238F2490DE14E0FF74FE32
:103BB1005FF09000012290DE0E7405F0AE2374BF19
:103BC1005524FF8E238F2490DE14E0FF74FE5FF0F6
:103BD1009000002290F7ECE0FF20E1012290F7E352
:103BE100E0FDA3E0FEA3E0FF90F807EDF0EEA3F007
:103BF10090F7E8E0F55474FFB55402800302406782
:103C010090F7E9E0FBBB80005003024049EB246FD1
:103C11005003024049EB2480FA240A83F582EA2406
:103C21001583F583E47349DE74B191C8E900392243
:103C310049494949A1D4303C3C3E3E3D3E3E3F3F8F
:103C41003F404040403F3F408D828E838FF012576E
:103C51003AFA74012DF54FE43EF5508A527553003E
:103C610090F7EAE552F0E553A3F0854F8285508342
:103C7100E0F5517401254FF554E43550F555A9513E
:103C81008902E4F92552F552EA3553F55390F7EAE2
:103C9100E552F0E553A3F0855482855583E0F8851C
:103CA1004F82855083A3A3884D894EE0FAE4254DC8
:103CB100F54DEA354EF54E854D35854E3690F7E892
:103CC100E0FA90F7E9E0F5328552338553348A8280
:103CD100122DE190F7EAE4F0A3F002405F8D828EAD
:103CE100838FF012573AFA8D828E83A38A4D754ED7
:103CF10000E0FA74022DF554E43EF5558A0189027B
:103D0100E4254DF54DEA354EF54EA84DAA4E90F7F6
:103D1100EEE8F0EAA3F090F7E6E0F9A3E0FAE9248F
:103D2100FEF54DEA34FFF54E854D52854E53E55271
:103D31004553603D90F7EEE0F54FA3E0F550740177
:103D4100254FF9E43550FA90F7EEE9F0EAA3F08552
:103D51005482855583E0FAA3858254858355854F26
:103D610082855083EAF0155274FFB55202155380D3
:103D7100BD90F7E8E0FA90F7E9E0F5327535EA75BC
:103D810036F77533027534008A82122DE102405FE5
:103D910090F7ECE0FA20E23C8D828E838FF012578F
:103DA1003AFA8D828E83A38A4D754E00E0FA90F81F
:103DB1000774022DF0E43EA3F08A018902E4F9259B
:103DC1004DF54DEA354EF54EA84DAA4E90F7EEE869
:103DD100F0EAA3F090F7EAE0F9A3E0FA894D8A4E00
:103DE100C37440954DE4954E5006754D40754E0097
:103DF100E9C3954DF9EA954EFA90F7EAE9F0EAA39D
:103E0100F090F807E0F552A3E0F553854D54854E47
:103E110055E5544555603D90F7EEE0F54FA3E0F5CB
:103E2100507401254FF9E43550FA90F7EEE9F0EAC4
:103E3100A3F0855282855383E0FAA385825285835C
:103E410053854F82855083EAF0155474FFB55402AF
:103E5100155580BD90F7E8E0FA90F7E9E0F5327585
:103E610035EA7536F77533027534008A82122DE111
:103E710002405FD290900002C007C006C005124FF9
:103E81002CC290900002124F2CD005D006D0079082
:103E9100F7E8E0FA90F7E9E0F53290F7E6E0F5337C
:103EA100A3E0F5348D358E368A82122DE102405F12
:103EB1007535697536598B3275330D7534008554F6
:103EC10082122DE102405F90FC67E0F8A3E0F9A3C4
:103ED100E0A3E0883589368B32753304753400856B
:103EE1005482122DE102405F7535517536598B327E
:103EF10075330E753400855482122DE102405F90B6
:103F0100F7E6E0F533A3E0F5348B328D358E368557
:103F11005482122DE19000C8124F2C12442E0240FF
:103F21005F7535487536598B32753309753400859F
:103F31005482122DE102405F8D828E838FF01257E1
:103F41003AFC74012DF9E43EFABC0202800ABC037A
:103F5100028021BC0429800DC002C0011244F7D0A7
:103F610001D002801AC290C002C001124541D001A5
:103F7100D002800BC002C001124518D001D00290BE
:103F8100F7E8E0FC90F7E9E0F53290F7E6E0F53389
:103F9100A3E0F53489358A368C82122DE102405F27
:103FA10090F7EA7401F0E4A3F07535367536DF90C9
:103FB100F7E8E0FC90F7E9E0F53290F7EAE0F53355
:103FC100A3E0F5348C82122DE190F7EAE4F0A3F03E
:103FD10002405F8D028E048C017C0090FC6B747733
:103FE100F07459A3F07480A3F07514098C158A82BA
:103FF10089838CF0C007C006C005124FF1E58285A8
:1040010083F0D005D006D00745F0705275C9809075
:10401100F7E8E0FC90F7E9E0F53290F7E6E0F533F8
:10402100A3E0F5348D358E368C82122DE1802F90F0
:10403100FC65E4F090FC66F090F809EDF0EEA3F079
:1040410075820212408F801690F7E6E0F533A3E007
:10405100F5348B328D358E36855482122DE190F7F1
:10406100ECE054FDF022E530453160198530828560
:104071003183121489AE82AF83EE4F701090F7EC4A
:10408100E054FDF02290F7ECE054FDFFF022E582D0
:1040910090F80BF090F7ECE054FDF090F7E8E0FFBA
:1040A10090F7E9E0F53290F80BE0FE8E33753400BD
:1040B10090F809E0F535A3E0F5368F82022DE1E5B0
:1040C1002330E01175220274FE5523FEAF248E23A6
:1040D1008F2443BE01E5235406602F90FC65740ACA
:1040E100F075220374FD5523FEAF248E238F249097
:1040F100DE01E0FF74044FF0900008124F2C90DEB7
:1041010001E0FF74FB5FF075220190DE0EE4F09098
:10411100DE11E0FF30E21A90DE11E0FF74DB5FF0A8
:1041210090F7CFE4F0A3F090F7D4F0A3F090F7DB91
:10413100F090DE0E7405F090DE11E0FF30E5209086
:10414100DE11E0FF74CF5FF090FC667408F090F729
:10415100E1E4F0A3F090F7E6F0A3F090F7EDF09032
:10416100DE14E0FF30E62090DE14E0FF749F5FF084
:1041710090FC667408F090F7E1E4F0A3F090F7E6A4
:10418100F0A3F090F7EDF0E52320E2057404B522E9
:1041910014122F3690FC65740BF074FB5523FEAF9F
:1041A100248E238F24E52330E41112349974E755CA
:1041B10023FE740F5524FF8E238F24E52430E6540B
:1041C10090FC65740CF01239B4AE82AF83BEFE412F
:1041D100BFFF3E90F80C7406F0E4A3F090F7E8E01E
:1041E100FF90F7E9E0F53275350C7536F875330255
:1041F1007534008F82122DE190F7E8E0FF75350CE0
:104201007536F87532017533027534008F82122DBF
:10421100E1123BD5E52354E07006E52454BD602945
:1042210090FC667409F0751308900044124F718573
:104231002382852483751310124F7174E05523FE78
:1042410074BD5524FF8E238F2422C0E0C082C08319
:10425100C007C006C005C004C0D075D000E5BE309F
:10426100E6FB90DE06E0FF7E00E5234207E52442FF
:10427100068F238E2490DE02E0FDE4CDC4CD6DCD0A
:1042810054F0CD6DFCED4207EC42068F238E249055
:10429100DE04E025E0FCE4FD4207EC42068F23EE5C
:1042A100F52430E11290F7ECE054FEF0AE2374FDFA
:1042B1005524FF8E238F24758B00C2E8D0D0D00403
:1042C100D005D006D007D083D082D0E032C0E0C084
:1042D10007C0D075D000E5BE30E6FBC2AFE589303E
:1042E100E703752203AFBE74FC5FF5BE758900C29A
:0B42F100C5D2AFD0D0D007D0E0322201
:105948005344434376333430004348524F4E4F5309
:105958002072303435300000000000005253544E9D
:1059680000554E494D504C454D454E544544005206
:10597800455345545F4E4F57001201100100000077
:1059880040501D47600001010203010A0610010092
:1059980000004001000902200001010080FA09040A
:1059A800000002000001000705850240000107050C
:1059B8000502400001040309040C03520066004379
:1059C80000610074001E034300680072006F006EDF
:1059D800006F007300200044006F006E0067006CC9
:0F59E8000065000A03300030003000300000FF7F
:1042FC00AF83E58290F80EF0EFA3F090F80EE0FE9D
:10430C00A3E0FF7C007D008E028F038A828B83E00A
:10431C00F9A3AA82AB83E960070CBC00EE0D80EB1D
:10432C007532F08C338D348E358F367582FE022DBE
:10433C00E1AF83E58290F810F0EFA3F090F810E075
:10434C00FEA3E0FF7C007D008E028F038A828B83AC
:10435C00E493F9A3AA82AB83E960070CBC00ED0DD2
:10436C0080EA8E358F367532F08C338D347582FE43
:10437C00022DE1E58290F812F07535127536F8755C
:10438C0032F17533017534007582FE022DE1AF8375
:10439C00E58290F813F0EFA3F07535137536F875C8
:1043AC0032F27533027534007582FE022DE1AF8254
:1043BC00AE83ADF0FC90F815EFF0EEA3F0EDA3F0AA
:1043CC00ECA3F07535157536F87532F37533047545
:0843DC0034007582FE022DE1A0
:0514E400E4F50DF50E1A
:1043E4007E197FF88FD57E197FF88ED47E217FF8D1
:1043F4008FD37E217FF87F008ED28F147515188F8E
:104404001690F81975F0000254E37403B50D06E430
:10441400B50E02800280047582FF22AE0DAF0E0538
:104424000DE4B50D02050E8E822290DF46E0FFBF3B
:10443400F00E90DF47E0FFBF0D0690DF487469F08F
:10444400C2AF759A0075B80075A80012308BAFBE64
:10445400747F5FF5BE75D69FC2900200002212558C
:1044640057AC82AD83AEF0FFC004C005C006C007E0
:104474009037BD75F086743D1253DFAC82AD83AEC8
:10448400F0FFE58124FCF581E4C0E0C0E074C0C025
:10449400E07441C0E08C828D838EF0EF125677ACCD
:1044A40082AD83AEF0FFE58124FCF5818C828D839F
:1044B4008EF0EF12556AAC82AD83AEF090DF09EE58
:1044C400F08D0390DF0AEBF090DF0BECF02275E146
:1044D4000490DF3BE0FFBF01F890FC3CE0F5E19085
:1044E400FC3CE0FFBF04012290DF3BE0FFBF010280
:1044F40080ED2290FC3CE0FFBF02012290DF13E03C
:10450400FF74F05FF0E0FF740F4FF090FC3C740216
:10451400F002493690FC3CE0FFBF03012290DF1318
:10452400E0FF74F05FF0E0FF740A4FF090FC3C741D
:1045340003F0F5E190DF3BE0FFBF13F82290FC3C71
:10454400E0FFBF04012290DF13E0FF74F05FF0AFDF
:104554009174EF5FF59175E10490DF3BE0FFBF01DB
:10456400F8AF9B74FC5FF59BAFE974EF5FF5E990DE
:10457400FC3C7404F02290FC3FE4F0A3F090FC3285
:10458400F0A3F090FC34F0A3F053C6C7759D0085EA
:104594009E9E439E0485A9A943B90190FC3C7404E2
:1045A400F0751400751500F51690F83275F00012C8
:1045B40054E3122CCBD2A87591D175E900750F0084
:1045C400439A0175E10490DF3BE0FFBF01F8227ECE
:1045D400007F00C3EE94DCEF9405502490DF3CE0B0
:1045E400FD5450600490000122900032C007C006C0
:1045F400124F53D006D00774322EFEE43FFF80D30F
:1046040090000022AF83E58290FC5CF0EFA3F09071
:10461400FC5EE4F090DF02E0FF90DF3BE0FEBE13BF
:104624000BB290C0071240C0D00780EDC29090FC3E
:10463400AAE4F090FC58E0FDA3E0FE90FCA0EDF0AD
:10464400EEA3F090FC5AE0FBA3E0FC90FCA6EBF098
:10465400ECA3F090FC56E0F9A3E0FA90FCA2E9F098
:10466400EAA3F090FCA4E9C39BF0EA9CA3F090FCBD
:10467400A4E0FBA3E0FC8D148E158B828C83C00711
:10468400C006C005C002C0011255BEAB82AC83D0C7
:1046940001D002D005D006D00790FCA8EB29F0EC9D
:1046A4003AA3F0E94A705D90FC5CE0FBA3E0FC8B6C
:1046B400828C83E0F8881075110090FC56E510F0A8
:1046C400E511A3F090DF04E0F8530003B800028082
:1046D40018B80102800302479A90FC567401251011
:1046E400F0E43511A3F002479A90FC5C74012BF0BE
:1046F400E43CA3F090FC56E0FBA3E0FC90DF02EB6B
:10470400F002479A90DF04E0FC530403BC000280EB
:1047140046BC0102800302479A90FC5CE0FBA3E0E4
:10472400FC90FC5FE9F0EAA3F090FC617401F0E412
:10473400A3F08B828C83C007C002C001124ED7D075
:1047440001D002D00790FC5CE0FBA3E0FC89008B65
:10475400828C83E8F0803FED4E603690FCA8E0FD4B
:10476400A3E090DF02EDF090DF04E0FE74FC5EF065
:1047740090FCA8E0FDA3E0FEC374FF9DE49E5009F5
:1047840090DF04E0FE74024EF090FCAA7401F08005
:104794000590DF02E9F0D2A890FCABE0FE20E30331
:1047A4000248C890DF04E0FE530603BE010690FCF5
:1047B4005E7401F090FC5EE0FE90FC5CE0FCA3E023
:1047C400FDEE2CFAE43DFB90FC56E0F8A3E0F990F2
:1047D400FC7DE8F0E9A3F08A828B83C007C006C0A1
:1047E40005C004125220AA82AB83D004D005D0069F
:1047F400D00790FCABE0F9530104B90448C007EEBC
:104804002CF8E43DF990FCABE0FF5307F090FC81F9
:10481400E8F0E9A3F090FC83EAF0EBA3F090FC85C8
:10482400EFF088828983C007C006C005C004C003B6
:10483400C00212525AD002D003D004D005D006D000
:1048440007D0078046C007EE2CF8E43DF990FCAB96
:10485400E0FF5307F090FC88E8F0E9A3F090FC8AAD
:10486400EAF0EBA3F090FC8CEFF088828983C00718
:10487400C006C005C004C003C0021252A3D002D0B7
:1048840003D004D005D006D007D007EE601E90FCFC
:10489400ABE0FE5306F0BE50098C828D837410F099
:1048A40080228A068C828D83EEF0801890FCABE027
:1048B400FE5306F0BE500890DF027410F08005909D
:1048C400DF02EAF090FC5CE0FDA3E0FE90FC38ED32
:1048D400F0EEA3F090FC9EE4F0A3F075E1037D609C
:1048E4007EEA90DF3BE0FCBC1302801C1DBDFF018F
:1048F4001EED4E6013B290C007C006C0051240C042
:10490400D005D006D00780DAD290ED4E700690FC28
:10491400667413F090DF3BE0FEBE130BB290C00749
:104924001240C0D00780EDC29090DF02EFF0758294
:104934000122D2A875140075150075160290F8327C
:1049440075F0001254E390FC32E4F0A3F090FC34D0
:10495400F0A3F090FC36F090FC3704F090F831E4CA
:10496400F0AF9B74FC5FF59BAFE974EF5FF5E975FD
:10497400E10290DF3BE0FFBF0DF84391102290FC71
:10498400AD7401F02290FCADE4F022C021C0E0C07F
:10499400F0C082C083C007C006C005C004C003C005
:1049A40002C001C000C0D075D00090FC657411F045
:1049B400C28990DF3BE0FFBF0D028003024AD2D2DE
:1049C4009090FC97E0FF602A90FC98E0FEA3E0FF43
:1049D40090FC98E024FFFCA3E034FFFD90FC98ECED
:1049E400F0EDA3F074FF2F400990DF04E0FF74FCA6
:1049F4005FF090FC3C7402F090F831E025E0FEE4B6
:104A04002432FFEE34F8FEE075F002A42432FC7484
:104A1400FC35F0FD8C828D83E0FAA3E0FB74012A5F
:104A2400F8E43BF98C828D83E8F0E9A3F0EA2FF5F2
:104A340082EB3EF583E5D9F090F831E075F002A4FD
:104A44002432F58274FC35F0F583E0FEA3E0FFC365
:104A54009402501A90F831E075F002A42432F582E1
:104A640074FC35F0F583E0FEA3E0FF4E701A90F875
:104A740031E0FF75F002A42432F58274FC35F0F5C0
:104A84008374FFF07401A3F090FC98E0FEA3E0FFB0
:104A94004E6003024C8890FC97E0FF7003024C8840
:104AA40090FC9AE0FEA3E0FF90FC98EEF0EFA3F0F8
:104AB40090FC98E0FEA3E090DF02EEF090DF04E0CB
:104AC400FF74FC5FF0E0FF74024FF0024C8890DF4B
:104AD4003BE0FFBF13028003024C8890FCAAE0FF76
:104AE4007003024C1990FC4EE0FEA3E0FF0EBE00E2
:104AF400010F90FC4EEEF0EFA3F090FC9EE0FEA3BD
:104B0400E0FF90FCA2E0FCA3E0FDEEB50406EFB5E7
:104B140005028003024BEC90FCA0E0FEA3E0FF4EF4
:104B2400603790FCA0E0FEA3E0FFBEFF05BF0002DB
:104B3400801490FCA0E024FFFEA3E034FFFF90FC6F
:104B4400A0EEF0EFA3F090FCA6E0FEA3E0FF90FC43
:104B54009EEEF0EFA3F0024BEC90FCA2E0F514A360
:104B6400E0F51590FC9CE0FF7E008F828E83125549
:104B7400BEAE82AF8390FC38E0FCA3E0FDEE2CF5E2
:104B840082EF3DF583E4F090FC9CE02401F0E0FF2B
:104B940090FC9DE0FEEFB5060590FC9CE4F090FCD3
:104BA400A2E0F514A3E0F51590FC9CE0FF7E008FD5
:104BB400828E831255BEAE82AF8390FC38E0FCA394
:104BC400E0FDEE2CFEEF3DFF8E828F83E0701090AF
:104BD400FC41E4F090FC667412F01244D2C290904E
:104BE400FC9E7401F0E4A3F090FCA8E0FEA3E0FFB7
:104BF40090FCA8E024FFFCA3E034FFFD90FCA8ECAB
:104C0400F0EDA3F0BEFF22BF001F90DF04E0FF74AD
:104C1400FC5FF0801490FCA8E024FFFEA3E034FFC6
:104C2400FF90FCA8EEF0EFA3F090FC3C7403F0902E
:104C3400FCA2E0F514A3E0F51590FC9CE0FF7E00D7
:104C44008F828E831255BEAE82AF8390FC9EE0FCB1
:104C5400A3E0FD90FC9EE02401F0A3E03400F0EC1E
:104C64002EFEED3FFF90FC38E0FCA3E0FDEE2CF5BA
:104C740082EF3DF583E0F5D990FC3AE02401F0A3FE
:104C8400E03400F0D0D0D000D001D002D003D00462
:104C9400D005D006D007D083D082D0F0D0E0D02188
:104CA40032C021C0E0C0F0C082C083C007C006C0CB
:104CB40005C004C003C002C001C000C0D075D0004C
:104CC40075120090FC657410F0AE9B74FC5EF59B4D
:104CD400E5E9420FE5E930E02090FC3DE0FDA3E08A
:104CE4008D067D00AB9C7C0090FC3FED4BF0EE4CC0
:104CF400A3F0AEE974FE5EF5E9E5E95470700302D1
:104D04004E8890FC3CE0FEBE030AAE0F748F5EF545
:104D14000F024E8190F831E0FEB40100E4332436F2
:104D2400F582E434FCF583E0FEBE01028003024E0A
:104D34005E90FCABE0FE20E103024E3790DF04E01E
:104D4400FE530603BE010375120190FCABE0FE5353
:104D54000601BE017090F831E025E0FDE42432FE46
:104D6400ED34F8FDAB127C00EB2EFEEC3DFDE0F9DA
:104D740029FAE42432F9EA34F8FAEB29FBEC3AFC98
:104D8400E075F002A42432F58274FC35F0F583E07A
:104D9400F9A3E0FAA8127F00E9C398F9EA9FFA9010
:104DA400FCABE0FF5307F090FC81EBF0ECA3F09038
:104DB400FC83E9F0EAA3F090FC85EFF08E828D830A
:104DC40012525A806E90F831E025E0FEE42432FF5E
:104DD400EE34F8FEAC127D00EC2FFFED3EFEE02534
:104DE400E0FAE42432FBEA34F8FAEC2BFCED3AFD69
:104DF400E075F002A42432F58274FC35F0F583E00A
:104E0400FAA3E0FBA8127900EAC398FAEB99FB90A5
:104E1400FCABE0F95301F090FC88ECF0EDA3F090CA
:104E2400FC8AEAF0EBA3F090FC8CE9F08F828E838D
:104E34001252A390F831E0FF74016FF0E0FF75F0B7
:104E440002A42432F58274FC35F0F583E4F0A3F077
:104E540090FC36F090FC37F0802190FC667412F0E0
:104E6400B29090F831E0FF75F002A42432F5827418
:104E7400FC35F0F583E4F0A3F0B290C290AFE9748E
:104E8400CF5FF5E9E5E930E61490FC667410F0B202
:104E9400901244D2B290AFE974BF5FF5E9E5E9300E
:104EA400E71490FC667411F0B2901244D2B290AF41
:104EB400E9747F5FF5E9D0D0D000D001D002D003EF
:104EC400D004D005D006D007D083D082D0F0D0E073
:104ED400D02132AF83E58290FC63F0EFA3F090FC25
:104EE40061E0FEA3E0FF90FC63E0FCA3E0FD90FC26
:104EF4005FE0FAA3E0FB8A008B011ABAFF011BE80A
:104F0400496024EE2AF8EF3BF9E82CF8E93DF9EA88
:104F14002CF582EB3DF583C006C007E088828983C7
:084F2400F0D007D00680CF2277
:1059F700000000000000010000000000000000009F
:075A07000000000000000098
:104F2C00AE82AF831EBEFF011FC3E49E74808FF060
:104F3C0063F08095F0500F7C4C7D041CBCFF011D70
:104F4C00EC4D70F780DE22AE82E583CE25E0CE33C9
:104F5C00FF1EBEFF011FC3E49E74808FF063F080C0
:104F6C0095F040ED22AE82AF83D2909003E8C0075B
:104F7C00C006124F2CC2909001F4124F2CD006D0C8
:104F8C00071513AD13ED20E754EE30E02490001913
:104F9C00C007C006C005124F2CD290900226124FAB
:104FAC002CC290900019124F2CD005D006D007803F
:104FBC0022900113C007C006C005124F2CD290904E
:104FCC000032124F2CC290900113124F2CD005D0EE
:104FDC0006D007EFC313CE13CEFF1D80A8C290904E
:104FEC0003E8024F2CAFF0AE83E58290FC6EF0EE3E
:104FFC00A3F0EFA3F090FC6EE0FDA3E0FEA3E0FFB6
:10500C0090FC6BE0FAA3E0FBA3E0FCA814A915E864
:10501C00496051C000C0018D828E838FF012573AC7
:10502C00F98A828B838CF012573AF8E9C398F516FB
:10503C00D001D000E5166010E516F5173395E0F5B4
:10504C0018851782851883220DBD00010E90FC6E09
:10505C00EDF0EEA3F0EFA3F00ABA00010B18B8FFC5
:10506C00011980AB90000022AFBE74FB5FF5BEE56A
:10507C00BE30E6FBAFC674B85FF5C6E5C620E6FBEE
:10508C0043BE04E5BE30E6FB53C6C743E40C43E421
:10509C0001D2B92243FE03C29022C0E0C082C08379
:1050AC00C0D090FC67E02401F0A3E03400F0A3E052
:1050BC003400F0A3E03400F0D0D0D083D082D0E024
:1050CC003212440EAF8290FC75EFF08FF005F07445
:1050DC0001800225E0D5F0FB90FC76F0EF75F0082E
:1050EC00A42419FE74F835F0FF90FC71EEF0EFA3D8
:1050FC00F08E828F83A3A374DFF08E828F83A3A3A1
:10510C00A374B1F08E828F83A3A3A3A3A37410F016
:10511C0074062EF582E43FF583E054E0441DF074F0
:10512C00072EF582E43FF583E0543F4440F07407CA
:10513C002EF582E43FF583E054FC4401F012440E5A
:10514C00AF8290FC77EFF08FF005F07401800225B0
:10515C00E0D5F0FB90FC78F0EF75F008A42419FE74
:10516C0074F835F0FF90FC73EEF0EFA3F08E828FA5
:10517C008374DFF08E828F83A374B2F08E828F8360
:10518C00A3A3A3A3A37410F074062EF582E43FF539
:10519C0083E054E0441EF074072EF582E43FF5835F
:1051AC00E054CF4410F074072EF582E43FF583E011
:1051BC0054FC4401F043A91043B91022AF83E5829B
:1051CC0090FC7BF0EFA3F0E5B330E3FB90FC71E0D7
:1051DC00FEA3E0FF90FC7BE0FCA3E0FD8C028D03C2
:1051EC008B028E828F83EAF090FC71E0FEA3E0FFCD
:1051FC008E828F83A37D00ECF090FC76E042D690FB
:10520C00FC79E0FF90FC7AE0FE4F4401F5B3E5B386
:10521C0030E3FB22AF83E58290FC7FF0EFA3F090AC
:10522C00FC7FE0FEA3E0FF90FC7DE0FCA3E0FDEC46
:10523C00540F60158C028D030CBC00010DEA2EF589
:10524C0082EB3FF583E4F080E68C828D8322AF8382
:10525C00E58290FC86F0EFA3F090FC86E0FEA3E0E4
:10526C00FF90FC81E0FCA3E0FD90FC83E0FAA3E05E
:10527C00FB90FC85E0F990FC8FECF0EDA3F090FC3A
:10528C0091EAF0EBA3F090FC93E4F090FC94E9F03D
:10529C008E828F830252EDAF83E58290FC8DF0EF0E
:1052AC00A3F090FC8DE0FEA3E0FF90FC88E0FCA353
:1052BC00E0FD90FC8AE0FAA3E0FB90FC8CE0F99016
:1052CC00FC8FECF0EDA3F090FC91EAF0EBA3F090E6
:1052DC00FC937402F090FC94E9F08E828F8302525E
:1052EC00EDAF83E58290FC95F0EFA3F0E5B330E3EE
:1052FC00FB90FC95E0FEA3E0FF90FC8FE0F51AA379
:10530C00E0F51B90FC94E0FB74505BF51990FC935A
:10531C00E0F94B4401FB740149F51890FC91E0F560
:10532C0014A3E0F515E4F516F517C3E5169514E589
:10533C00179515400122C00390FC71E0F8A3E0FB27
:10534C00E5162EF9E5173FFA89048A058D04888243
:10535C008B83ECF090FC71E0FCA3E0FD8C828D83E0
:10536C00A3E9F090FC73E0FCA3E0FD8C828D83A399
:10537C00A3E516251AFCE517351BFD8C028D038B56
:10538C0002EAF090FC73E0FAA3E0FB8A828B83A321
:10539C00A3A3ECF090FC78E0FD90FC76E0FC4D4291
:1053AC00D6D003E5196017E51424F0FCE51534FF9D
:1053BC00FDECB51609EDB517058518B380028BB356
:1053CC00E5B330E3FB74102516F516E43517F51725
:1053DC00025336125482BC0003025649EF60FA3075
:1053EC00D502B2D1E583B4FF0302565FE582B4FF68
:1053FC000302565F258340072482400B0256492442
:10540C008314500302565FF582EA8DF0A4A8F0EAEB
:10541C008EF0A428F8E435F0F9EB8DF0A428E935EA
:10542C00F0F9E433CA8FF0A429F9EA35F0FAEBF875
:10543C008EF0A429F9EA35F0FAE433FBEC8DF0A4F4
:10544C0029F9EA35F0FAE43BFBE88FF0A42AFAEBF1
:10545C0035F0FBE433CCFD8EF0A42AFAEB35F0FBEF
:10546C00E43CFCED8FF0A42BFBEC35F0FC20E703C7
:10547C001254B0025628AA82AB83A2F73392D1F50C
:10548C00826002D2F7ACF0E58124F9F8E6FD08E67B
:10549C00FE0886F008E6A2F73392D5F5836002D2B7
:0454AC00F7AFF02244
:0614BA00E478FFF6D8FD06
:1054B0007804EC7011E58224F8500AF582E4C9CA38
:1054C000CBFCD8EF22EC7820058220E713D58201AF
:1054D00022C3E933F9EA33FAEB33FBEC33FCD8EAC5
:1054E000158222AC82AD83AE15AF16BE0004EF600C
:1054F0000C1F0FE5141255A3A3DEFADFF88C828D82
:105500008322AD82AE83AFF08D198E1A8F1B851466
:105510001C85151D85161EA817A91888038904184F
:10552000B8FF0119EB4C6025851C82851D83851E03
:10553000F012573AFCA385821C85831D8D828E83D1
:105540008FF0EC1255A3A3AD82AE8380CE85198275
:07555000851A83851BF02280
:101498007917E94400601B7A019059F7789775939A
:1014A800FCE493F2A308B800020593D9F4DAF275C4
:0214B80093FFA0
:10555700FCABF0AA83A982749EC2D1F5821254B023
:105567000256287F9E12559130D103025649C3EF48
:105577009582500974FFF5F0F583F58222790012C0
:10558700575689828A838BF0EC22AA82AB83A2F7D3
:105597003392D1F5826002D2F7ACF02220F71130B6
:1055A700F6138883A88220F509F6A883758300225D
:1055B70080FEF280F5F022E5828514F0A4C582C052
:1055C700F08515F0A4D0F025F0C5838514F0A42547
:1055D70083F58322E514451560467A01E51425E035
:1055E700F514E515334012F515E5829514E5839515
:1055F7001540030A80E6C3E51513F515E51413F501
:1056070014C3E5829514F5F0E58395154005F583F8
:1056170085F082C3E51513F515E51413F514DAE1E2
:015627002260
:1014C0007800E84400600A79007593F0E4F309D8E5
:1014D000FC7897E8440C600C790D90F000E4F0A3E0
:0414E000D8FCD9FA61
:02148900E4730A
:10562800B98003EA13B34010EA2401FAE43BFBE42F
:105638003CFC50047C800582BC000EBB000BBA0009
:1056480008E4F5F0F583F58222A2D1E582138CF007
:1056580092F78B838A8222E4F583F58275F080F4D1
:10566800A2D11322E4F583F58275F0C0747F22126B
:10567800548230D502B2D1BF0009BC000302566C77
:1056880002565FBC0003025649E583B4FF0BE5826E
:10569800B4FF0302566C025649E582B4FF03025672
:1056A8005FC395835007247F400B0256492480141A
:1056B800500302565FF582C3ED9AEE9BEF9C4011B2
:1056C8001582C3EA33F9EB33FAEC33FBE433FC809D
:1056D80005E4CCCBCAF9C08275F019C3E99DEA9EEE
:1056E800EB9FEC9400D5F002802D400EE99DF9EA7D
:1056F8009EFAEB9FFBEC9400FCC3B3E833F8E58219
:1057080033F582E58333F583C3E933F9EA33FAEBFA
:1057180033FBEC33FC80C4B3E4F938FAE43582FB9C
:10572800E43583FCD082500405827C801254B00298
:025738005640D9
:0D148B00758155125799E5826003021486A1
:10573A0020F71430F6148883A88220F507E6A88398
:10574A0075830022E280F7E49322E0226040F82584
:10575A0082500274FFF582E824F8501ECCCBCAF9B5
:10576A00E4CC24F85014CBCAF9E4CB24F8500BCA81
:10577A00F9E4CA24F8500379002224086010F8C317
:10578A00EC13FCEB13FBEA13FAE913F9D8F12275CF
:03579A0082002268
:00000001FF
