:0600000002008B0235DE58
:01000B0032C2
:0100130032BA
:01001B0032B2
:0100230032AA
:01002B0032A2
:03003300022E9A00
:01003B003292
:01004300328A
:03004B00023CF57F
:030053000206C0E2
:03005B0002099AFD
:01006300326A
:03006B00022F1D44
:01007300325A
:01007B003252
:030083000238F44C
:0300E9000200868C
:030086000219FE5E
:1000EC00AF83E58290F554F0EFA3F0C2A0C2A4D286
:1000FC00A375E10490DF3BE0FFBF01F890F554E0FD
:10010C00FEA3E090DF06EEF0C2A090FCACE024FF72
:10011C0092A4E06401FF24FF92A375E10290DF3BFF
:10012C00E0FFBF0DF8227E007F0090FC48E0FCA3AE
:10013C00E0FD8E028F03C3EA9CEB9D503AEE240047
:10014C00FCEF34F0FD90FC46E0F514A3E0F5158AC5
:10015C00828B83C007C006C005C00412422AAA8243
:10016C00AB83D004D005D006D0078C828D83EAF007
:10017C000EBE00B60F80B322E58290F556F0E0FF7C
:10018C00E59CC39FF59CE59C24FAF59C439E10D2FC
:10019C00BA22AF9E74EF5FF59E22AF83E58290F595
:1001AC005AF0EFA3F090FC41E060139043EC122F57
:1001BC008C90FC41E0F582122FCE7582EF2290FCE0
:1001CC00417406F090DF3BE0FFBF130280F6C29152
:1001DC0090F557E0FEA3E0FF90FCA8EEF0EFA3F043
:1001EC0090FCA274F1F0E4A3F090FC387472F074FB
:1001FC00F3A3F090FCA0E4F0A3F090FC53F090FC7F
:10020C009CF090FC52F090FC9E04F0E4A3F090FC67
:10021C009D7402F090F55CE4F090000012035F9086
:10022C00F55AE0FEA3E0FF90F559E0FD7B007C0061
:10023C008D017A00C3EB99EC9A50548B02EA75F05D
:10024C00F0A42EF9E43FFA90F55C74F0F089828A00
:10025C0083C007C006C005C004C00312035FAA8296
:10026C00D003D004D005D006D007EA601B90443EE2
:10027C00C002122F8CD00290FC41E4F08A82C002A2
:10028C00122FCED0028A82220BBB00A40C80A1902C
:10029C00FCABE0FF30E33390FCA8E0FEA3E0FFEE04
:1002AC00540F602690FCA8E0FEA3E053060F7F00DD
:1002BC007410C39EFEE49FFF90FCA8E0FCA3E0FD3D
:1002CC0090FCA8EE2CF0EF3DA3F090FCA8E0FEA370
:1002DC00E0FFC374FF9EE49F502390FCA8E0FEA3B4
:1002EC00E090DF02EEF090DF04E0FF74FC5FF0E0E2
:1002FC00FF74024FF090FCAA7401F0801290FCA8DD
:10030C00E0FEA3E0FF90DF02EEF090FCAAE4F09098
:10031C00FCACE024FF92A0C2A490FCACE0640124ED
:10032C00FF92A375E1037E607FEA90DF3BE0FDBDA9
:10033C00130280091EBEFF011FEE4F70EDD291EE2D
:10034C004F700C90FC667413F0904456122F8C7501
:10035C00820022AF83E58290F55DF0EFA3F090F57B
:10036C005CE0FF240F500A904467122F8C7582FFBB
:10037C0022EF703E90FC52E4F090FC52E0FE90FCB8
:10038C009DE0FDC3EE9D502190FC52E075F0F1A470
:10039C002472F58274F335F0F583E4F090FC52E0AE
:1003AC00FE0E90FC52EEF080D090FC52E4F0758280
:1003BC00002290FC41E0FE601DBE061E90FC52E047
:1003CC00601890DF3BE0FEBE1302800E90FC41747F
:1003DC0007F07582ED227582ED2290FC52E075F0EB
:1003EC00F1A42472FD74F335F0FE8D828E83E060EF
:1003FC000A90FC667418F07582FE228D828E8374CE
:10040C00FFF090FC52E075F0F1A42472FD74F3350A
:10041C00F0FE0DBD00010E7C0090F55DE0FAA3E04E
:10042C00FB8A148B158C168F037F008B178F188DFE
:10043C00828E838CF0C007C003124151D003D007C9
:10044C0090FCABE0FE20E30302050790FC52E07544
:10045C00F0F1A42472FD74F335F0FE0DBD00010E15
:10046C0090FC7DEBF0EFA3F08D828E83123E6FAE8D
:10047C008290F55CEEF090FCABE0FF530704BF04F8
:10048C003F90FC52E075F0F1A42472FD74F335F04A
:10049C00FF0DBD00010F8E037C0090FCABE0FA5306
:1004AC0002F090FC81EDF0EFA3F090FC83EBF0EC0C
:1004BC00A3F090FC85EAF08D828F83123EA9803BDD
:1004CC0090FC52E075F0F1A42472FD74F335F0FF4A
:1004DC000DBD00010F7C0090FCABE0FB5303F090D2
:1004EC00FC88EDF0EFA3F090FC8AEEF0ECA3F0901A
:1004FC00FC8CEBF08D828F83123EF290FC52E075F7
:10050C00F0F1A42472FE74F335F0FF90F55CE0FD7D
:10051C008E828F83F090FC52E0FF0F90FC52EFF034
:10052C0090FC9DE0FEEFB5060590FC52E4F0758260
:10053C000022AF83E58290F55FF0EFA3F090FC41D1
:10054C00E0FF6014BF0102800F904481122F8C9049
:10055C00FC41E0F582122FCE12019E90FC4AE4F091
:10056C00A3F090FC4AE0FEA3E0FF8E828F8312067C
:10057C004090DF3BE0FFBF0DF890DF3AE0FF530700
:10058C007FBF6000402790FC4AE0FEA3E0FF0EBE58
:10059C0000010F90FC4AEEF0EFA3F0D29190000A0C
:1005AC00123B7BC29190000A123B7B80B590FC41C0
:1005BC007402F090FC67E0FCA3E0FDA3E0A3E090E4
:1005CC00FC4CECF0EDA3F090F55FE0FEA3E0FF90A7
:1005DC00FC50EEF0EFA3F02290FC41E4F090FC67AD
:1005EC00E0FCA3E0FDA3E0A3E090FC4CECF0EDA359
:1005FC00F02290FC417404F090FC67E0FCA3E0FD59
:10060C00A3E0A3E090FC4CECF0EDA3F02290FC41B5
:10061C007405F090FC54E4F0A3F090FC67E0FCA3AC
:10062C00E0FDA3E0A3E090FC4CECF0EDA3F07582B0
:10063C0000020184AF83E58290F561F0EFA3F090A6
:10064C00F561E0FEA3E0FFEE2400F582EF34F0F557
:10065C0083E0FF7E008F828E830200ECAF83E58205
:10066C0090F563F0EFA3F090F563E0FEA3E0FF904C
:10067C00F370EEF0EFA3F0222290FC4AE0FEA3E030
:10068C00FF0EBE00010F90FC4AEEF0EFA3F0C3EE9C
:10069C009470EF9403400790FC4AE4F0A3F090FCB4
:1006AC004AE0FEA3E0FFEE2400F582EF34F0F58380
:1006BC00E0F58222C021C0E0C0F0C082C083C00738
:1006CC00C006C005C004C003C002C001C000C0D039
:1006DC0075D00090FC3DE02401F0A3E03400F090D4
:1006EC00FC42E0FEA3E0FF90FC3DE0FCA3E0FDEC4F
:1006FC00B5060BEDB5070790FC3DE4F0A3F090FCBC
:10070C003DE0FEA3E0FFBE0005BF0002800BBE0172
:10071C0005BF0002806802088290FC3DE0FEA3E069
:10072C008E077E00AC9C7D00EC4206ED420790FCEF
:10073C004EEEF0EFA3F090FC4AE0FEA3E0FF0EBEFD
:10074C0000010F90FC4AEEF0EFA3F090FC48E0FCA7
:10075C00A3E0FDC3EE9CEF9D400790FC4AE4F0A3A0
:10076C00F090DF3BE0FFBF130302097D90FC4AE0F1
:10077C00FEA3E0FF8E828F8312064002097D90FC5F
:10078C0041E0FFBF0502800302097D900019123B76
:10079C007B90F567741CF090FC4AE0FEA3E090F5AA
:1007AC0068EEF090FC4AE0A3E090F569F090F56AF1
:1007BC007442F090F56B744CF090F56C7441F090C1
:1007CC00F56D7448F090F56E7442F090F56F744CC2
:1007DC00F090F5707441F090F5717448F090F572EA
:1007EC007442F090F573744CF090F5747441F09081
:1007FC00F5757448F090F5767442F090F577744C7A
:10080C00F090F5787441F090F5797448F090F57AA1
:10081C007442F090F57B744CF090F57C7441F09040
:10082C00F57D7448F090F57E7442F090F57F744C31
:10083C00F090F5807441F090F5817448F090F58259
:10084C007420F090FC56741CF0E4A3F090FC58F06B
:10085C00A3F090FC5AF0A3F090F56812325790FC7C
:10086C0054E0FEA3E0FF0EBE00010F90FC54EEF02E
:10087C00EFA3F002097D90FC41E0FFBF030280650D
:10088C00BF04028008BF0502800302097D90FC4C66
:10089C00E0FEA3E0FF90FC67E0FAA3E0FBA3E0FC22
:1008AC00A3E0FD8E008F01E4FEFFEAC398FAEB99FA
:1008BC00FBEC9EFCED9FFDC374649AE49BE49CE40A
:1008CC009D50229044AF122F8C90FC417405F090F7
:1008DC00FC67E0FCA3E0FDA3E0FEA3E0FF90FC4C72
:1008EC00ECF0EDA3F090FC53E075F0F1A42472FE53
:1008FC0074F335F0FF8E828F83E0607590001912CF
:10090C003B7B90FC53E075F0F1A42472FE74F3353C
:10091C00F0FF90DF04E05401FDB40100E4332EFD40
:10092C00E43FFC8E828F83E090FC56F0E4A3F090C1
:10093C00FC58F0A3F090FC5AF0A3F08D828C83123B
:10094C00325790FC53E075F0F1A42472F58274F3E5
:10095C0035F0F583E4F090FC53E0FF0F90FC53EF7F
:10096C00F0BF0200400590FC53E4F09044CD122FF0
:10097C008CD0D0D000D001D002D003D004D005D080
:10098C0006D007D083D082D0F0D0E0D02132329084
:10099C00FC41E4F090FC52F090FC53F090FC4AF0D7
:1009AC00A3F090FC467453F0E4A3F090FC4874530D
:1009BC00F0E4A3F090FC4EF0A3F090FC4CF0A3F00C
:1009CC0090FC427406F0E4A3F090FC44F0A3F09089
:1009DC00FC50F0A3F090FC54F0A3F012013290FC08
:1009EC0041E4F0759DDC859E9E439E0443CB102212
:1009FC0002099B900E47121F4590FC67E4F0A3F090
:100A0C00A3F0A3F01209FC90F583E4F090F5847444
:100A1C0032F074F8A3F02290FC41E0FFBF00030217
:100A2C000D7CBF0103020C4DBF0203020B4BBF0335
:100A3C0003020D7CBF0403020D7CBF0503020D5D98
:100A4C00BF060122BF40028006BF4102804822C27D
:100A5C00A0C2A4D2A375E10490DF3BE0FFBF01F874
:100A6C0090DF0374E5F090DF047404F090DF0774FA
:100A7C0012F090DF08E4F090DF147410F090DF17A0
:100A8C00E0FF74C04FF090FC417441F090F5847419
:100A9C0032F074F8A3F090F583E4F090FC54E0FE8F
:100AAC00A3E0FF90F583E0FDFB7C00C3EB9EEC9F85
:100ABC00505D90DF06EDF0C2A0C2A4D2A375E10494
:100ACC0090DF3BE0FFBF01F8C2A090FCACE024FF3C
:100ADC0092A4E06401FF24FF92A375E10290DF3B36
:100AEC00E0FFBF0DF8900002123B7B90F584E0FE16
:100AFC00A3E0FF90F583E02EFEE43FFF90DF3AE0A9
:100B0C00FD8E828F83F090F583E02401F0808CC2FF
:100B1C00A0C2A4D2A375E10490DF3BE0FFBF01F8B3
:100B2C0090FC54E0FEA3E08E3375340090F584E025
:100B3C00F535A3E0F536753201758243021A30E5BE
:100B4C000F7003020C3B90FC65740DF0AF9A74FEB1
:100B5C005FF59AE50F20E403020C3B90FC41740313
:100B6C00F090FC3FE0FEA3E08E821201849044DB07
:100B7C00122F8C90FC3FE0FEA3E0FF8E828F83123D
:100B8C002FE990F831E025E0FEE42432FFEE34F852
:100B9C00FE8F828E83122F8C90F831E0FFB401000F
:100BAC00E433FF90F583F0EF2436FDE434FCFE8D46
:100BBC00828E83E0707290DF04E0FE30E0378F06A7
:100BCC00EE2EFDE42432F582ED34F8F583E0FE8E52
:100BDC00337534008F06EE2EFDE42432FEED34F82E
:100BEC00FD74012EF535E43DF53675320175824202
:100BFC00121A30802290DF02E0FE8E33E4F534EFDF
:100C0C002FFEE42432FFEE34F8FE8F358E3675322B
:100C1C0001758242121A3090F583E0FF2436F5827A
:100C2C00E434FCF5837401F0AF0F74EF5FF50FD271
:100C3C000010AF02C200750F00A20092AF439A01E0
:100C4C0022E50F7003020D4B90FC65740DF0AF9A0A
:100C5C0074FE5FF59AE50F20E403020D4B90F8311A
:100C6C00E0FF90F583B40100E433F09044F0122FD0
:100C7C008C90F583E025E0FEE42432FFEE34F8FEA0
:100C8C008F828E83122FE990F583E025E0FEE42419
:100C9C0032FFEE34F8FE8F828E83122F8C90F83157
:100CAC00E0FFB40100E433FF90F583F0EF2436FD50
:100CBC00E434FCFE8D828E83E0707290DF04E0FEE3
:100CCC0030E0378F06EE2EFDE42432F582ED34F859
:100CDC00F583E0FE8E337534008F06EE2EFDE42492
:100CEC0032FEED34F8FD74012EF535E43DF5367524
:100CFC003201758242121A30802290DF02E0FE8EA1
:100D0C0033E4F534EF2FFEE42432FFEE34F8FE8F9B
:100D1C00358E36753201758242121A3090F583E0A9
:100D2C00FF2436F582E434FCF5837401F0D2001014
:100D3C00AF02C200AF0F74EF5FF50FA20092AFD2FB
:100D4C000010AF02C200750F00A20092AF439A01CF
:100D5C002290FC54E0FEA3E0FF90FC48E0FCA3E0F2
:100D6C00FDC3EE9CEF9D50012290FC417404F022D7
:100D7C00E50F70012290FC65740DF0E50F54307096
:100D8C00012290F831E0FFB40100E433FF90F583C9
:100D9C00F0EF2436FDE434FCFE8D828E83E060039C
:100DAC00020E3490DF04E0FE30E0378F06EE2EFDAD
:100DBC00E42432F582ED34F8F583E0FE8E3375349D
:100DCC00008F06EE2EFDE42432FEED34F8FD7401A6
:100DDC002EF535E43DF536753201758242121A3026
:100DEC00803590FC97E0FE600A90FC9AE0FDA3E051
:100DFC00FE800890DF02E0FCFD7E00EF2FFCE42477
:100E0C0032FFEC34F8FC8F358C367532018D338E15
:100E1C0034758242121A3090F583E0FF2436F58245
:100E2C00E434FCF5837401F0D20010AF02C200AFC1
:100E3C000F74CF5FF50FA20092AF2290F7E3E0FDA5
:100E4C00A3E0FEA3E0FF90F7E8E0FCBC42028003C5
:100E5C000217C690F7E9E0FC24BE50030217B8EC69
:100E6C00240A83F582EC244683F583E473B8B84DE9
:100E7C0087B800ADCBDE175074B755B8B80D8CB32E
:100E8C00264B5ECA3E73B8B8B8B8B8B8B81DA6ED54
:100E9C00E306B8B8B8B8B8B8B8B8B8B8B8B8B8B84D
:100EAC00B8B8B8B8B8B8B8B8B8B8B8B8B8FD371793
:100EBC00170F1117101010101111111112171715FF
:100ECC0015151616161614151717171717171717B3
:100EDC00171615161717171717171717171717179A
:100EEC001717171717171717171717171717170E8F
:100EFC000FC007C006C00512019ED005D006D00752
:100F0C0090FC417440F08D828E838FF0124389FCEB
:100F1C007B0090FC54ECF0EBA3F090F809EDF0EEB4
:100F2C00A3F0758201122CDE0217C690FC41E4F08E
:100F3C0090F809EDF0EEA3F0758201122CDE021789
:100F4C00C690FC41E0600990450A122F8C0217C62E
:100F5C008D828E838FF0124389FC7B0090F586EC9A
:100F6C00F0EBA3F08D828E83A3E0FAE4F92CFCEA7B
:100F7C003BFB90F586ECF0EBA3F08D828E83A3A364
:100F8C00A3A3E0FA8A0889098D828E83A3A3A3A365
:100F9C00A3E0FAE42508F508EA3509F50990FC3ACE
:100FAC00E4F0A3F074062DF9E43EFA90FC56ECF054
:100FBC00EBA3F090FC58E4F0A3F090FC5AE508F099
:100FCC00E509A3F089828A83C007C006C0051232E6
:100FDC0057AC82D005D006D0078D828E838FF0EC73
:100FEC001241F290F809EDF0EEA3F0758201122C8B
:100FFC00DE0217C68D828E838FF012438990FC9A85
:10100C00F0E4A3F08D828E83A3E0FB7C0090FC9A2D
:10101C00E0F9A3E0FA90FC9AEC29F0EB3AA3F090FB
:10102C00FC9AE0FBA3E0FC4B604490FC977401F04D
:10103C0090FC98E0FBA3E0FC4B704712319090FCC5
:10104C009AE0FBA3E0FC90FC98EBF0ECA3F090FC96
:10105C0098E0FBA3E090DF02EBF090DF04E0FC747F
:10106C00FC5CF0E0FC74024CF0123146801490FCF5
:10107C0097E4F090FC98F0A3F090FC9AF0A3F01297
:10108C00319090F7E8E0FC90F7E9E0F53275359A8D
:10109C007536FC7533017534008C82121A300217C8
:1010AC00C68D828E838FF012438990FCABF090F842
:1010BC0009EDF0EEA3F0758201122CDE0217C6903A
:1010CC00F80974ABF074FCA3F0758201122CDE02EB
:1010DC0017C690FCABE0FC5304F090FC797406F05E
:1010EC0090FC7AECF08D828E838FF0C007C006C026
:1010FC0005123E17D005D006D00790F809EDF0EE9A
:10110C00A3F0758210122CDE0217C690FCABE0FC2B
:10111C005304F090FC797404F090FC7AECF08D821E
:10112C008E838FF0C007C006C005123E17D005D0C5
:10113C0006D00790F809EDF0EEA3F0758210122C92
:10114C00DE0217C68D828E838FF012438990FCAC21
:10115C00F0E0FC74015CF090F809EDF0EEA3F07592
:10116C008201122CDE0217C690F80974ACF074FCE4
:10117C00A3F0758201122CDE0217C68D828E838F2E
:10118C00F0124389FC7B008C828B83C007C006C0A5
:10119C0005120668D005D006D00790F809EDF0EEE0
:1011AC00A3F0758201122CDE0217C690FC41E060A0
:1011BC001C8D828E838FF074EF1241F290F809ED42
:1011CC00F0EEA3F0758201122CDE0217C68D828E12
:1011DC00838FF0124389FC7B0090F586ECF0EBA337
:1011EC00F08D828E83A3E0FAE42CFCEA3BFB90F5B5
:1011FC0086ECF0EBA3F08D828E83A3A3E0FA90FC37
:10120C003AE4F0A3F074032DF8E43EF990F557ECB2
:10121C00F0EBA3F090F559EAF088828983C007C0FF
:10122C0006C0051201A6AC82D005D006D0078D826F
:10123C008E838FF0EC1241F290F809EDF0EEA3F0F2
:10124C00758201122CDE0217C68D828E838FF012EE
:10125C004389FB7C0090F586EBF0ECA3F0EB4C6043
:10126C000302134F90FCA8E0F9A3E0FA49601C902C
:10127C00DF3BE0FABA1314900028C007C006C00583
:10128C00123B7BD005D006D00780D990FCA8E0F9A2
:10129C00A3E0FA49606B90452FC007C006C0051249
:1012AC002F8C90FCA8E0F9A3E0FA89828A83122F94
:1012BC00E990F372E0F582122FCE90F463E0F582A0
:1012CC00122FCED005D006D00790FC667412F08D8C
:1012DC00828E838FF074EC1241F2C291C007C0066B
:1012EC00C005123121D005D006D00790FC41E4F0A6
:1012FC0090F809EDF0EEA3F0758201122CDE0217C6
:10130C00C6C29190FC41E4F08D828E838FF0124125
:10131C00F2904543C007C006C005122F8C90FC3AD2
:10132C00E0F9A3E0FA89828A83122FE9D005D0066E
:10133C00D00790F809EDF0EEA3F0758201122CDEC7
:10134C000217C690FC41E0FABA0602806190455340
:10135C00C007C006C005122F8CD005D006D0079050
:10136C00FC66E0FABA121B8D828E838FF074EC123D
:10137C0041F290F809EDF0EEA3F0758201122CDE2B
:10138C00801F90FC667417F08D828E838FF074EF43
:10139C001241F290F809EDF0EEA3F0758201122CD7
:1013AC00DEC29112312190FC41E4F00217C67401A7
:1013BC002DF9E43EFA90F55CEBF089828A83C00744
:1013CC00C006C00512035FAC82D005D006D0078DD5
:1013DC00828E838FF0EC1241F28D828E838FF0120D
:1013EC004389FBEC603BBBFE02803690455CC0073A
:1013FC00C006C005122F8CD005D006D0078D828E6A
:10140C00838FF0124389F582C007C006C005122FE6
:10141C00CEC291123121D005D006D00790FC41E408
:10142C00F090F809EDF0EEA3F0758201122CDE02BB
:10143C0017C68D828E838FF0124389FB7C0090F54A
:10144C0086EBF0ECA3F0C374F09BE49C5019904431
:10145C0067122F8C90F8097486F074F5A3F07582DE
:10146C0001122CDE0217C690FC52E075F0F1A42498
:10147C0072F974F335F0FA89828A83E06019904529
:10148C0069122F8C90F8097486F074F5A3F07582AC
:10149C0001122CDE0217C68B0089828A83E8F09039
:1014AC00FC52E075F0F1A42472F974F335F0FA09EA
:1014BC00B900010A890A8A0B750C0074012DF9E434
:1014CC003EFA89148A157516008B178C18850A82BA
:1014DC00850B83850CF012415190FC52E0FC0C9072
:1014EC00FC52ECF0BC0200400590FC52E4F090F889
:1014FC00097486F074F5A3F0758201122CDE0217C4
:10150C00C68D828E838FF0124389FC7B0090FC4643
:10151C00ECF0EBA3F090FC46E0F9A3E0FAC3747096
:10152C009C74039B402E74022DFBE43EFC8B148CAC
:10153C001575160089178A1890F00075F000124185
:10154C005190F8097446F074FCA3F0758202122CC9
:10155C00DE0217C690F809748AF07445A3F0758200
:10156C0008122CDE0217C690FC46E0FBA3E090F8B4
:10157C00097400F074F0A3F08B82122CDE0217C6F3
:10158C001206857B008B8312064090FC4AE0FBA37D
:10159C00E0FC90F809EB2400F0EC34F0A3F0758239
:1015AC0001122CDE0217C68D828E838FF0124389B6
:1015BC00FC7B008C828B83C007C006C0051200EC3C
:1015CC00D005D006D00790F809EDF0EEA3F07582A7
:1015DC0001122CDE0217C6758200C007C006C005BA
:1015EC00120184D005D006D00790F809EDF0EEA3D7
:1015FC00F0758201122CDE0217C6C007C006C005AA
:10160C0012019ED005D006D00790F809EDF0EEA39C
:10161C00F0758201122CDE0217C68D828E838FF03C
:10162C00124389FC7B0090FC42ECF0EBA3F090F8A9
:10163C0009EDF0EEA3F0758201122CDE0217C690B4
:10164C00F8097442F074FCA3F0758204122CDE02CB
:10165C0017C68D828E838FF0C007C006C005122F6F
:10166C004BD005D006D0078D828E838FF012438924
:10167C00F582C007C006C005122FCED005D006D00B
:10168C00078D828E838FF0124389FC7B008C148B28
:10169C00158B167517158B1890FC4175F000C0074B
:1016AC00C006C005124151D005D006D00790F809EC
:1016BC00EDF0EEA3F0758215122CDE0217C690FC2D
:1016CC003DE0FBA3E0FC90FC44EBF0ECA3F090F8C5
:1016DC00097441F074FCA3F0758215122CDE02170C
:1016EC00C68D828E838FF0124389FC7B008C828B9B
:1016FC0083C007C006C00512053ED005D006D00732
:10170C0090F809EDF0EEA3F0758201122CDE0217B1
:10171C00C690FC67E0F9A3E0FAA3E0A3E090FC4CD0
:10172C00E9F0EAA3F08D828E838FF0124389FC904E
:10173C00FC41F090FC41E0FBEC24FA404DEB2B2BF0
:10174C009017507302176202176202176202178415
:10175C00021784021773C007C006C00512019ED081
:10176C0005D006D0078023C007C006C00512061995
:10177C00D005D006D0078012758200C007C006C005
:10178C0005120184D005D006D00790F809EDF0EED3
:10179C00A3F0758201122CDE802090F8097441F0C0
:1017AC0074FCA3F0758201122CDE800E90F809ED0A
:1017BC00F0EEA3F0758201122CDE90000022229034
:1017CC00F7F1E0FFBF013990F7D1E0FEA3E0FF9005
:1017DC00F7F4E0FCA3E0FD90F7D4E0FAA3E0FBEA19
:1017EC004B601D8E828F83E0F9A3AE82AF838C8217
:1017FC008D83E9F0A3AC82AD831ABAFF011B80DFA5
:10180C0090F7DAE054FDF090DE11E0FF74084FF031
:10181C0022AE82AF83E0FD20E7030219168E828F81
:10182C0083A3E0FD601DBD0102802ABD0202803B46
:10183C00BD0302805ABD04028076BDFE030218D897
:10184C0002191675370275380090FC6575F0001298
:10185C001CDD02191690DE00E0FD7C007539288C29
:10186C003A8D828C83121D510219168E828F83A39E
:10187C00A3E0FCA3E0FD74062EF582E43FF583E0C3
:10188C00F539A3E0F53A8C828D83121D51807B8E45
:10189C00048F057B0074062EF582E43FF583E0F59A
:1018AC0037A3E0F5388C828D838BF0121CDD805AC7
:1018BC0090F7D1E0FBA3E0FCA3E0FD753910753A7D
:1018CC00008B828C838DF0121D51803E74022EFE93
:1018DC00E43FFF7D00756B92756C45756D807514DA
:1018EC00048D158E828F838DF0123C40E5828583AA
:1018FC00F045F06012D29190012C123B7BC291907A
:10190C00012C123B7B800375C9839000002290DF71
:10191C002FE4F090DF30F090DF31F090DF0074AA0C
:10192C00F090DF01740FF090DF027430F090DF0361
:10193C007440F090DF04E4F090DF05F090DF06F0E7
:10194C0090DF077406F090DF08E4F090DF09742450
:10195C00F090DF0A742EF090DF0B74EEF090DF0C39
:10196C0074BAF090DF0D74B5F090DF0E7405F09042
:10197C00DF0F7423F090DF107411F090DF117436C8
:10198C00F090DF127407F090DF13740FF090DF14F7
:10199C007418F090DF1514F090DF16746CF090DF73
:1019AC00177403F090DF187440F090DF197491F005
:1019BC0090DF1A7456F090DF1B7410F090DF1C74DB
:1019CC00E9F090DF1D742AF090DF1EE4F090DF1F29
:1019DC00741FF090DF237488F090DF247431F09042
:1019EC00DF257409F090DF2E74C0F022123CC30284
:1019FC003CEF1219F8123033123D1C121CA8123194
:101A0C00C91209FF121CD7D2AF121B7BD2919000C6
:101A1C0002123B7BC29190000A123B7B122D0F12DB
:041A2C000A2380F811
:1043EC0043616E6E6F742063616C6C207472616ECD
:1043FC00736D69745F6C6F6E67207768696C65208C
:10440C004648535320486F7070696E67206F722056
:10441C00616C72656164792070726F636573736926
:10442C006E67207472616E736D69745F6C6F6E670A
:10443C0021004D41435F7478282920726574757290
:10444C006E6564206572726F72006E65766572209F
:10445C00656E7465726564205458004648535378F1
:10446C006D6974206D65737361676520746F6F205F
:10447C006C6F6E67004648535320737461746520EB
:10448C00656E746572696E672053594E4348494E88
:10449C00472066726F6D2077726F6E672073746140
:1044AC0074650053594E43485F4D41535445522057
:1044BC002D3E2053594E43494E474D41535445527E
:1044CC000046485353786D697420646F6E65006EB6
:1044DC006574776F726B207061636B657428737988
:1044EC006E6329006E6574776F726B207061636BFD
:1044FC00657428646973636F7665727929006372D9
:10450C0061702C20706C6561736520757365204635
:10451C00485353786D6974282920696E73746561EA
:10452C0064210064726F706F75742066696E616CC3
:10453C0020776169742100746F74616C20627974E6
:10454C0065732074783A00756E64657272756E00CE
:10455C00627566666572206572726F72007374693B
:10456C006C6C2077616974696E67206F6E2074685B
:10457C0065206C617374207061636B6574004E4FC1
:0B458C00204445414C005253544E00A7
:101A3000AF827E0190DE0E7405F090FC657412F0AA
:101A4000E53345347003021B717C107D2790DE1155
:101A5000E0FB30E00D90FC667401F01CBCFF011D42
:101A600080EBEC4D7014D2909003E8123B7BC29057
:101A70009003E8123B7B90FFFF22BE012C7E00907A
:101A8000DE2A7440F0EFF0E532F0AC337D00ECF08C
:101A9000E534F0C3743B9533E4953450067C3B7DCC
:101AA00000801AAC33AD348014C374409533E49590
:101AB0003450067C407D008004AC33AD3474802506
:101AC0002942D6852682852783AA35AB368B01E944
:101AD000F0852682852783A3EAF0852682852783E1
:101AE000A3A374DEF0852682852783A3A3A3742A8B
:101AF000F0852682852783A3A3A3A3A3ECFBF0850F
:101B00002682852783A3A3A3A3E054E0F085268241
:101B1000852783A3A3A3A3A3A3A3E0543F4440F03A
:101B2000852682852783A3A3A3A3A3A3A3E054CFE1
:101B3000F0E52942D6E52942D7E52955D160FAE5F5
:101B400029F452D190DE0E7405F090DE11E0FB74A2
:101B5000014BF0E533C39CF533E5349DF534EC25BA
:101B600035F535ED3536F53690FC657413F0021A0F
:101B70004090FC657414F090000022E5227005127C
:101B80002D0F80F722AFBE747F5FF5BE43BE8090FD
:101B9000DE0B74F7F090DE0774FFF090DE09F0437F
:101BA0008C10AF8C74FE5FF58CD2BD439A027589A0
:101BB00000C2C5758B00C2E843A90243B90285265D
:101BC00082852783A3A3A3A3E054E0F08526828522
:101BD0002783A3A3A3A3A3A3E0549F4420F08526B7
:101BE00082852783A3A3A3A3A3A3A3E04408F0852E
:101BF0002682852783A3A3A3A3A3A3A3E054FC4425
:101C000001F090DE01E0FF74FE5FF0E4F525F523BE
:101C1000F524F52290DE0EF090DE107408F090DED0
:101C200013F090F7DBE4F090F7DAF090F7CFF0A341
:101C3000F090F7D17488F074F5A3F0E4A3F090F776
:101C4000D4F0A3F090F7D6F090F7D7F090F7D8F053
:101C5000A3F090DE0E7405F090DE107408F090DEB4
:101C600013F090DE12E0FF74014FF090DE15E0FFFC
:101C700074014FF090F7EDE4F090F7ECF090F7E19D
:101C8000F0A3F090F7E374C8F074F5A3F0E4A3F0C8
:101C900090F7E6F0A3F090F7E8F090F7E9F090F70E
:101CA000EAF0A3F0439A022212305D85822885284B
:101CB000F005F07401800225E0D5F0FBF529E52858
:101CC00075F008A42419F52674F835F0F52790FC72
:101CD000657402F0021B85D29122C29122AFF0AE50
:101CE00083E58290F7F6F0EEA3F0EFA3F090F7DB38
:101CF000E06034D2909003E8123B7BC2909003E8FE
:101D0000123B7BD2909003E8123B7BC2909003E899
:101D1000123B7BD2909003E8123B7BC2909003E889
:101D2000123B7B90FFFF2290F7F6E0FDA3E0FEA3BD
:101D3000E0FF90F7CCEDF0EEA3F0EFA3F090F7CF3B
:101D4000E537F0E538A3F090F7DB7401F090000080
:101D500022AF83E58290F7F9F0EFA3F090F7DBE094
:101D60006034D2909003E8123B7BC2909003E8125B
:101D70003B7BD2909003E8123B7BC2909003E81229
:101D80003B7BD2909003E8123B7BC2909003E81219
:101D90003B7B90FFFF2290F7F9E0FEA3E0FF7D0080
:101DA00090F7CCEEF0EFA3F0EDA3F090F7CFE5398C
:101DB000F0E53AA3F090F7DB7401F0900000227F89
:101DC0000290DE0EE4F090F7CFE0FDA3E0FEC374D6
:101DD000409DE49E50047C4080048D047F0A8C0268
:101DE0007B00EDC39AFDEE9BFE90F7CFEDF0EEA3E6
:101DF000F08C06EE603690F7CCE0FBA3E0FCA3E0AD
:101E0000FD8B828C838DF012438990DE20F090F759
:101E1000CCE0FBA3E0FCA3E0FD0BBB00010C90F7C2
:101E2000CCEBF0ECA3F0EDA3F01E80C790DE11E048
:101E30004FF090F7CFE0FEA3E0FF4E700590F7DB88
:101E4000E4F02290F7DB7402F07582002290F7D163
:101E5000E0FDA3E0FEA3E0FF90DE11E0FCB4010092
:101E6000E433FC20E0F290DE0EE4F090DE16E0FCBD
:101E70007B0090F7D4ECF0EBA3F090F7DAE0FC30C5
:101E8000E11390F7DB7403F090DE11E0FC74044C76
:101E9000F090FFFF2290F7DAE04402F090F7D4E0F0
:101EA000FBA3E0FCC374409BE49C501CD2909001C7
:101EB0002CC007C006C005123B7BC29090012C12BB
:101EC0003B7BD005D006D00790F7D4E0FBA3E0FC25
:101ED0008D07EB4C601690DE20E0FD8F828E83F044
:101EE000A3AF82AE831BBBFF011C80E6E52C452D12
:101EF0006009852C82852D8312008990F7D4E0FE3D
:101F0000A3E0FFC3EE9440EF9400501DE52A452B5B
:101F10006009852A82852B8312008990DE11E0FFFB
:101F200074084FF090F7DBE4F090DE11E0FF7440AE
:101F30004FF090F7D4E0FEA3E08E82F583228582F5
:101F40002E85832F22858230858331227537017556
:101F5000380090002575F040021CDDAFF0AE83E53F
:101F60008290F7FBF0EEA3F0EFA3F090F7FBE0FD1B
:101F7000A3E0FEA3E0FF74022DFDE43EFE8D828E01
:101F8000838FF0124389FDA31243898D25752201A9
:101F900022AF827DD07E458D828E83A3E090F7FEB6
:101FA000F0AC1490F7FEE0FBBBFF02803EEBB50700
:101FB00023EC700890F7FE74FFF080E71C8D828E92
:101FC00083E02DFDE43EFE8D828E83A3E0FB90F73F
:101FD000FEF080CF8D828E83E02DFDE43EFE8D826B
:101FE0008E83A3E0FB90F7FEF080B88D828E832273
:101FF000AFF0AE83E58290F7FFF0EEA3F0EFA3F031
:1020000090F7FFE0F53DA3E0F53EA3E0F53F740255
:10201000253DFAE4353EFBAC3F8A828B838CF0127F
:102020004389F8A3124389F9893B753C007402B5D2
:102030003B06E4B53C0280227407B53B06E4B53CA0
:10204000028002804274AF58FE7F008A828B838CAC
:10205000F0EE1241F2A3EF1241F28A828B838CF0F0
:10206000124389FAA3124389F5828A14121F91AE92
:1020700082AF8390F802EEF0EFA3F08E828F83A3FD
:10208000A3E0FE7F00801C89828814121F91AC821D
:10209000AD8390F802ECF0EDA3F08C828D83E0FC30
:1020A000FE7F007406253DFBE4353EFCAD3F8B8290
:1020B0008C838DF0124389FCA3124389FDC3EC9EEF
:1020C000ED9F50048C068D07EE4F700990DE11E0F5
:1020D000FD74204DF090F802E0FCA3E0FD8E398FF6
:1020E0003A8C828D83021D5190DE0EE4F090DE1159
:1020F000E0FF30E40E90F7DBE4F090DE11E0FE74D8
:10210000804EF0EF30E22490DE11E4F090FC667433
:1021100004F090F7DBE4F0D290900014C007123B7B
:102120007BC290900014123B7BD00790F7DBE0FE5F
:10213000BE0319D290900032C007123B7BC2909030
:102140000032123B7BD00790F7DBE4F090F7DBE046
:102150006003022428EF20E00302242890DE0EE42E
:10216000F090DE16E0FFFE7B407C007D40EE6016C6
:1021700090DE20E0FA8B828C838DF01241F2A3ABCB
:1021800082AC831E80E7E540FE20E7030222FB7459
:10219000605EFD6015BD20030222B5BD4003022232
:1021A000C1BD60030222E6022410741F5EFF70416D
:1021B000AD41BD0002801CBD06028005BD08268021
:1021C0000C90004075F040121FF0022410121F4CBA
:1021D0000224107537027538009045AE75F08012F4
:1021E0001CDD02241090004075F040122F4A02249A
:1021F00010BF0145AD41BD00028005BD0A26801219
:102200007537027538009045AE75F080121CDD02FE
:1022100024107537017538009045B175F080121C97
:10222000DD02241090DE11E0FD74204DF09000409E
:1022300075F040122F4A022410BF0236AD41BD0096
:10224000028008BD1203022410801275370275380F
:10225000009045AE75F080121CDD02241090DE1156
:10226000E0FD74204DF090004075F040122F4A02BE
:102270002410BF032BE4B541127537027538009066
:1022800045AE75F080121CDD02241090DE11E0FDD9
:1022900074204DF090004075F040122F4A02241037
:1022A00090004075F040122F4A90DE11E0FD74203E
:1022B0004DF002241090DE11E0FD74204DF0022458
:1022C00010E52E452F60131222CC800BC02EC02F9C
:1022D00090004075F0402202241090004075F040BC
:1022E00012243F02241090DE11E0FD74204DF09086
:1022F000004075F040122F4A02241074605EFD60A9
:1023000015BD20030223C7BD40030223DBBD6003CC
:102310000223FE022410741F5EFF7048AE41BE010E
:1023200003022410BE0303022410BE0502800BBE6C
:102330000703022410BE0917800990DE00E542F071
:1023400002241090004075F040121F5B0224109090
:10235000004075F040122F4A90DE11E0FE74204ECE
:10236000F0022410BF0129AE41BE0103022410BEB9
:102370000303022410BE110302241090004075F0E4
:1023800040122F4A90DE11E0FE74204EF00224101D
:10239000BF0220AF41BF01028076BF03028071906F
:1023A000004075F040122F4A90DE11E0FF74204F7C
:1023B000F0805D90DE11E0FF74204FF090004075DA
:1023C000F040122F4A804990004075F040122F4A89
:1023D00090DE11E0FF74204FF08035E52E452F6030
:1023E000121223E6800BC02EC02F90004075F040E3
:1023F00022801D90004075F04012243F801290DE34
:1024000011E0FF74204FF090004075F040122F4A09
:1024100090DE11E0FF74404FF0E5464547700990AB
:10242000DE11E0FF74084FF090F7DBE0FFBF01031F
:10243000121DBF90F7DBE0FFBF0203021E4D22AF6B
:10244000F0AE83E58290F804F0EEA3F0EFA3F090F5
:10245000F804E0FDA3E0FEA3E0FF8D828E838FF001
:10246000124389FC20E70302259974012DFAE43E0A
:10247000FB8F048A828B838CF0124389FC601EBC24
:102480000102802BBC0202803CBC03028073BC04AE
:1024900003022536BCFE030225530225FF753702D1
:1024A00075380090FC6575F000121CDD0225FF9068
:1024B000DE00E0FC7B007539288B3A8C828B83121E
:1024C0001D510225FF74022DFAE43EFB8F048A821F
:1024D0008B838CF0124389FAA3124389FB74062D77
:1024E000F8E43EF98F04888289838CF0124389F5E1
:1024F00039A3124389F53A8A828B83121D51022532
:10250000FF8D028E038F048A488B498C4A74062DF6
:10251000F8E43EF98F04888289838CF0124389F5B0
:1025200037A3124389F538854882854983854AF067
:10253000121CDD0225FF90F7D1E0FAA3E0FBA3E037
:10254000FC753910753A008A828B838CF0121D510C
:102550000225FF74022DFAE43EFB8F0490FC6B749D
:10256000B3F07445A3F07480A3F0751404751500DE
:102570008A828B838CF0123C40E5828583F045F0A3
:102580006012D29090012C123B7BC29090012C12D1
:102590003B7B806B75C983806690F7F1E0FCBC01E2
:1025A0005674022DFDE43EFE8D828E838FF0124321
:1025B00089FDA3124389FE90DE0EE4F090DE16E062
:1025C000FF7C007513088F828C83C007C006C0058E
:1025D000C004123BC0D004D005D006D007EF4C6039
:1025E0001690DE20E0FB8D828E83F0A3AD82AE8359
:1025F0001FBFFF011C80E690F7DAE054FDFFF0906A
:1026000000002290F7ECE0FF30E10A90FC667405D0
:10261000F090FFFF2290DE0E7405F090DE16E0FFD2
:102620008F4B754C0090DE17E0FCE4254BF54BEC2E
:10263000354CF54C90F7EAE0FCA3E0FD4C70589067
:10264000F7E6E4F0A3F090DE2AE090F7E8F090DE01
:102650002AE090F7E9F090DE2AE0FD7C0090F7EAAE
:10266000EDF0ECA3F090DE2AE0FAE4FB2DFDEA3C6D
:10267000FC90F7EAEDF0ECA3F0E54B24FCF54BE51C
:102680004C34FFF54CC374049D74029C500990F7C0
:10269000EA7404F003A3F0E52955D16012D29090BA
:1026A0000014123B7BC290900014123B7B80E89098
:1026B000F7E3E0FBA3E0FCA3E090F7E6E0FAA3E099
:1026C000FFEA2BFBEF3CFC7480252942D68526824D
:1026D00085278374DEF0852682852783A3742AF0FC
:1026E000852682852783A3A38C07EFF08526828524
:1026F0002783A3A3A3EBF0852682852783A3A3A327
:10270000A3A3A3A3E0543FF0852682852783A3A338
:10271000A3A3A3A3A3E054CF4410F074052526FE81
:10272000E43527FF90DE16E0FD8E828F83EDF07496
:10273000042526FEE43527FF90DE17E08E828F8386
:10274000541FF5F0E054E045F0F090F7E6E0FEA30A
:10275000E0FFEE254BFCEF354CFDC374049C740286
:102760009D500B7404C39EF54B74029FF54CC374CB
:1027700040954BE4954C502890FC667406F090DE32
:1027800014E0FD74FE5DF0751304900005123BC06B
:10279000751310854B82854C83123BC090FFFE223F
:1027A000E52942D6E52942D7E54B2EFEE54C3FFF11
:1027B00090F7E6EEF0EFA3F0E52955D160FAE529B0
:1027C000F452D190F7E6E0FEA3E0FF90F7EAE0FCD8
:1027D000A3E0FDC3EE9CEF9D402C90F7ECE044029B
:1027E000F090F7EAE4F0A3F090DE0E7405F0AE236B
:1027F00074BF5524FF8E238F2490DE14E0FF74FEF7
:102800005FF09000012290DE0E7405F0AE2374BFDD
:102810005524FF8E238F2490DE14E0FF74FE5FF0BA
:102820009000002290F7ECE0FF20E1012290F7E316
:10283000E0FDA3E0FEA3E0FF90F807EDF0EEA3F0CB
:1028400090F7E8E0F55474FFB554028003022CB60B
:1028500090F7E9E0FBBB80005003022C98EB246F5B
:102860005003022C98EB2480FA240A83F582EA2490
:102870001583F583E473982DC300E017384F8871F2
:1028800098989898F0237F28292A2B292B2B2B2BDB
:102890002B2C2C2C2C2B2C2C8D828E838FF01243E6
:1028A00089FA74012DF54FE43EF5508A52755300B4
:1028B00090F7EAE552F0E553A3F0854F8285508307
:1028C000E0F5517401254FF554E43550F555A95103
:1028D0008902E4F92552F552EA3553F55390F7EAA7
:1028E000E552F0E553A3F0855482855583E0F885E1
:1028F0004F82855083A3A3884D894EE0FAE4254D8D
:10290000F54DEA354EF54E854D35854E3690F7E856
:10291000E0FA90F7E9E0F5328552338553348A8244
:10292000121A3090F7EAE4F0A3F0022CAE8D828EFA
:10293000838FF0124389FA8D828E83A38A4D754E60
:1029400000E0FA74022DF554E43EF5558A0189023F
:10295000E4254DF54DEA354EF54EA84DAA4E90F7BB
:10296000EEE8F0EAA3F090F7E6E0F9A3E0FAE92454
:10297000FEF54DEA34FFF54E854D52854E53E55236
:102980004553603D90F7EEE0F54FA3E0F55074013C
:10299000254FF9E43550FA90F7EEE9F0EAA3F08517
:1029A0005482855583E0FAA3858254858355854FEB
:1029B00082855083EAF0155274FFB5520215538098
:1029C000BD90F7E8E0FA90F7E9E0F5327535EA7581
:1029D00036F77533027534008A82121A30022CAE33
:1029E00090F7ECE0FA20E23C8D828E838FF0124368
:1029F00089FA8D828E83A38A4D754E00E0FA90F895
:102A00000774022DF0E43EA3F08A018902E4F9255F
:102A10004DF54DEA354EF54EA84DAA4E90F7EEE82D
:102A2000F0EAA3F090F7EAE0F9A3E0FA894D8A4EC4
:102A3000C37440954DE4954E5006754D40754E005B
:102A4000E9C3954DF9EA954EFA90F7EAE9F0EAA361
:102A5000F090F807E0F552A3E0F553854D54854E0C
:102A600055E5544555603D90F7EEE0F54FA3E0F590
:102A7000507401254FF9E43550FA90F7EEE9F0EA89
:102A8000A3F0855282855383E0FAA3858252858321
:102A900053854F82855083EAF0155474FFB5540274
:102AA000155580BD90F7E8E0FA90F7E9E0F532754A
:102AB00035EA7536F77533027534008A82121A309A
:102AC000022CAED290900002C007C006C005123B97
:102AD0007BC290900002123B7BD005D006D00790BD
:102AE000F7E8E0FA90F7E9E0F53290F7E6E0F53341
:102AF000A3E0F5348D358E368A82121A30022CAE60
:102B00007535B87536458B3275330D75340085547F
:102B100082121A30022CAE90FC67E0F8A3E0F9A311
:102B2000E0A3E0883589368B32753304753400852F
:102B30005482121A30022CAE7535A07536458B3290
:102B400075330E753400855482121A30022CAE9003
:102B5000F7E6E0F533A3E0F5348B328D358E36851C
:102B60005482121A309000C8123B7B12307D022C26
:102B7000AE7535977536458B3275330975340085DA
:102B80005482121A30022CAE8D828E838FF0124343
:102B900089FC74012DF9E43EFABC0202800ABC03F0
:102BA000028021BC0429800DC002C001123146D030
:102BB00001D002801AC290C002C001123190D0012F
:102BC000D002800BC002C001123167D001D0029048
:102BD000F7E8E0FC90F7E9E0F53290F7E6E0F5334E
:102BE000A3E0F53489358A368C82121A30022CAE75
:102BF00090F7EA7401F0E4A3F07535367536DF908E
:102C0000F7E8E0FC90F7E9E0F53290F7EAE0F53319
:102C1000A3E0F5348C82121A3090F7EAE4F0A3F0C6
:102C2000022CAE8D028E048C017C0090FC6B74C66D
:102C3000F07445A3F07480A3F07514098C158A8292
:102C400089838CF0C007C006C005123C40E5828530
:102C500083F0D005D006D00745F0705275C980903A
:102C6000F7E8E0FC90F7E9E0F53290F7E6E0F533BD
:102C7000A3E0F5348D358E368C82121A30802F9079
:102C8000FC65E4F090FC66F090F809EDF0EEA3F03E
:102C9000758202122CDE801690F7E6E0F533A3E091
:102CA000F5348B328D358E36855482121A3090F77A
:102CB000ECE054FDF022E530453160198530828525
:102CC0003183120089AE82AF83EE4F701090F7EC23
:102CD000E054FDF02290F7ECE054FDFFF022E58295
:102CE00090F80BF090F7ECE054FDF090F7E8E0FF7F
:102CF00090F7E9E0F53290F80BE0FE8E3375340082
:102D000090F809E0F535A3E0F5368F82021A30E538
:102D10002330E01175220274FE5523FEAF248E236A
:102D20008F2443BE01E5235406602F90FC65740A8E
:102D3000F075220374FD5523FEAF248E238F24905B
:102D4000DE01E0FF74044FF0900008123B7B90DE40
:102D500001E0FF74FB5FF075220190DE0EE4F0905D
:102D6000DE11E0FF30E21A90DE11E0FF74DB5FF06D
:102D700090F7CFE4F0A3F090F7D4F0A3F090F7DB56
:102D8000F090DE0E7405F090DE11E0FF30E520904B
:102D9000DE11E0FF74CF5FF090FC667408F090F7EE
:102DA000E1E4F0A3F090F7E6F0A3F090F7EDF090F7
:102DB000DE14E0FF30E62090DE14E0FF749F5FF049
:102DC00090FC667408F090F7E1E4F0A3F090F7E669
:102DD000F0A3F090F7EDF0E52320E2057404B522AE
:102DE00014121B8590FC65740BF074FB5523FEAF29
:102DF000248E238F24E52330E4111220E874E75554
:102E000023FE740F5524FF8E238F24E52430E654CF
:102E100090FC65740CF0122603AE82AF83BEFE41B7
:102E2000BFFF3E90F80C7406F0E4A3F090F7E8E0E2
:102E3000FF90F7E9E0F53275350C7536F875330219
:102E40007534008F82121A3090F7E8E0FF75350C68
:102E50007536F87532017533027534008F82121A97
:102E600030122824E52354E07006E52454BD60297F
:102E700090FC667409F0751308900044123BC085FD
:102E80002382852483751310123BC074E05523FE02
:102E900074BD5524FF8E238F2422C0E0C082C083DE
:102EA000C007C006C005C004C0D075D000E5BE3064
:102EB000E6FB90DE06E0FF7E00E5234207E52442C4
:102EC000068F238E2490DE02E0FDE4CDC4CD6DCDCF
:102ED00054F0CD6DFCED4207EC42068F238E24901A
:102EE000DE04E025E0FCE4FD4207EC42068F23EE21
:102EF000F52430E11290F7ECE054FEF0AE2374FDBF
:102F00005524FF8E238F24758B00C2E8D0D0D004C7
:102F1000D005D006D007D083D082D0E032C0E0C048
:102F200007C0D075D000E5BE30E6FBC2AFE5893002
:102F3000E703752203AFBE74FC5FF5BE758900C25E
:0B2F4000C5D2AFD0D0D007D0E03222C5
:104597005344434376333430004348524F4E4F53CE
:1045A7002072303435300000000000005253544E62
:1045B70000554E494D504C454D454E5445440052CB
:1045C700455345545F4E4F5700120110010000003C
:1045D70040501D47600001010203010A0610010057
:1045E70000004001000902200001010080FA0904CF
:1045F70000000200000100070585024000010705D1
:104607000502400001040309040C0352006600433D
:1046170000610074001E034300680072006F006EA3
:10462700006F007300200044006F006E0067006C8D
:0F4637000065000A03300030003000300000FF43
:102F4B00AF83E58290F80EF0EFA3F090F80EE0FE61
:102F5B00A3E0FF7C007D008E028F038A828B83E0CF
:102F6B00F9A3AA82AB83E960070CBC00EE0D80EBE2
:102F7B007532F08C338D348E358F367582FE021A96
:102F8B0030AF83E58290F810F0EFA3F090F810E0EB
:102F9B00FEA3E0FF7C007D008E028F038A828B8371
:102FAB00E493F9A3AA82AB83E960070CBC00ED0D97
:102FBB0080EA8E358F367532F08C338D347582FE08
:102FCB00021A30E58290F812F07535127536F875E5
:102FDB0032F17533017534007582FE021A30AF83FE
:102FEB00E58290F813F0EFA3F07535137536F8758D
:102FFB0032F27533027534007582FE021A30AF82DD
:10300B00AE83ADF0FC90F815EFF0EEA3F0EDA3F06E
:10301B00ECA3F07535157536F87532F37533047509
:08302B0034007582FE021A3028
:0500E400E4F50DF50E2E
:103033007E197FF88FD57E197FF88ED47E217FF895
:103043008FD37E217FF87F008ED28F147515188F52
:103053001690F81975F0000241327403B50D06E4B9
:10306300B50E02800280047582FF22AE0DAF0E05FD
:103073000DE4B50D02050E8E822290DF46E0FFBF00
:10308300F00E90DF47E0FFBF0D0690DF487469F054
:10309300C2AF759A0075B80075A800121CDAAFBEEE
:1030A300747F5FF5BE75D69FC29002000022124165
:1030B300A6AC82AD83AEF0FFC004C005C006C00756
:1030C3009037BD75F086743D12402EAC82AD83AE51
:1030D300F0FFE58124FCF581E4C0E0C0E074C0C0EA
:1030E300E07441C0E08C828D838EF0EF1242C6AC57
:1030F30082AD83AEF0FFE58124FCF5818C828D8364
:103103008EF0EF1241B9AC82AD83AEF090DF09EEE1
:10311300F08D0390DF0AEBF090DF0BECF02275E10A
:103123000490DF3BE0FFBF01F890FC3CE0F5E19049
:10313300FC3CE0FFBF04012290DF3BE0FFBF010244
:1031430080ED2290FC3CE0FFBF02012290DF13E000
:10315300FF74F05FF0E0FF740F4FF090FC3C7402DB
:10316300F002358590FC3CE0FFBF03012290DF13A2
:10317300E0FF74F05FF0E0FF740A4FF090FC3C74E2
:1031830003F0F5E190DF3BE0FFBF13F82290FC3C36
:10319300E0FFBF04012290DF13E0FF74F05FF0AFA4
:1031A3009174EF5FF59175E10490DF3BE0FFBF01A0
:1031B300F8AF9B74FC5FF59BAFE974EF5FF5E990A3
:1031C300FC3C7404F02290FC3FE4F0A3F090FC324A
:1031D300F0A3F090FC34F0A3F053C6C7759D0085AF
:1031E3009E9E439E0485A9A943B90190FC3C7404A7
:1031F300F0751400751500F51690F83275F000128D
:10320300413212191AD2A87591D175E900750F00D0
:10321300439A0175E10490DF3BE0FFBF01F8227E92
:10322300007F00C3EE94DCEF9405502490DF3CE074
:10323300FD5450600490000122900032C007C00684
:10324300123BA2D006D00774322EFEE43FFF80D398
:1032530090000022AF83E58290FC5CF0EFA3F09036
:10326300FC5EE4F090DF02E0FF90DF3BE0FEBE1384
:103273000BB290C007122D0FD00780EDC29090FCC7
:10328300AAE4F090FC58E0FDA3E0FE90FCA0EDF072
:10329300EEA3F090FC5AE0FBA3E0FC90FCA6EBF05D
:1032A300ECA3F090FC56E0F9A3E0FA90FCA2E9F05D
:1032B300EAA3F090FCA4E9C39BF0EA9CA3F090FC82
:1032C300A4E0FBA3E0FC8D148E158B828C83C007D6
:1032D300C006C005C002C00112420DAB82AC83D050
:1032E30001D002D005D006D00790FCA8EB29F0EC62
:1032F3003AA3F0E94A705D90FC5CE0FBA3E0FC8B31
:10330300828C83E0F8881075110090FC56E510F06C
:10331300E511A3F090DF04E0F8530003B800028046
:1033230018B8010280030233E990FC56740125109A
:10333300F0E43511A3F00233E990FC5C74012BF047
:10334300E43CA3F090FC56E0FBA3E0FC90DF02EB2F
:10335300F00233E990DF04E0FC530403BC00028075
:1033630046BC010280030233E990FC5CE0FBA3E06E
:10337300FC90FC5FE9F0EAA3F090FC617401F0E4D7
:10338300A3F08B828C83C007C002C001123B26D0FE
:1033930001D002D00790FC5CE0FBA3E0FC89008B2A
:1033A300828C83E8F0803FED4E603690FCA8E0FD10
:1033B300A3E090DF02EDF090DF04E0FE74FC5EF02A
:1033C30090FCA8E0FDA3E0FEC374FF9DE49E5009BA
:1033D30090DF04E0FE74024EF090FCAA7401F080CA
:1033E3000590DF02E9F0D2A890FCABE0FE20E303F6
:1033F30002351790DF04E0FE530603BE010690FC7E
:103403005E7401F090FC5EE0FE90FC5CE0FCA3E0E7
:10341300FDEE2CFAE43DFB90FC56E0F8A3E0F990B6
:10342300FC7DE8F0E9A3F08A828B83C007C006C065
:1034330005C004123E6FAA82AB83D004D005D00628
:10344300D00790FCABE0F9530104B90448C007EE80
:103453002CF8E43DF990FCABE0FF5307F090FC81BE
:10346300E8F0E9A3F090FC83EAF0EBA3F090FC858D
:10347300EFF088828983C007C006C005C004C0037B
:10348300C002123EA9D002D003D004D005D006D08A
:1034930007D0078046C007EE2CF8E43DF990FCAB5B
:1034A300E0FF5307F090FC88E8F0E9A3F090FC8A72
:1034B300EAF0EBA3F090FC8CEFF088828983C007DD
:1034C300C006C005C004C003C002123EF2D002D041
:1034D30003D004D005D006D007D007EE601E90FCC1
:1034E300ABE0FE5306F0BE50098C828D837410F05E
:1034F30080228A068C828D83EEF0801890FCABE0EC
:10350300FE5306F0BE500890DF027410F080059061
:10351300DF02EAF090FC5CE0FDA3E0FE90FC38EDF6
:10352300F0EEA3F090FC9EE4F0A3F075E1037D6060
:103533007EEA90DF3BE0FCBC1302801C1DBDFF0153
:103543001EED4E6013B290C007C006C005122D0FCA
:10355300D005D006D00780DAD290ED4E700690FCED
:10356300667413F090DF3BE0FEBE130BB290C0070E
:10357300122D0FD00780EDC29090DF02EFF075821D
:103583000122D2A875140075150075160290F83241
:1035930075F00012413290FC32E4F0A3F090FC3459
:1035A300F0A3F090FC36F090FC3704F090F831E48F
:1035B300F0AF9B74FC5FF59BAFE974EF5FF5E975C2
:1035C300E10290DF3BE0FFBF0DF84391102290FC36
:1035D300AD7401F02290FCADE4F022C021C0E0C044
:1035E300F0C082C083C007C006C005C004C003C0CA
:1035F30002C001C000C0D075D00090FC657411F00A
:10360300C28990DF3BE0FFBF0D028003023721D266
:103613009090FC97E0FF602A90FC98E0FEA3E0FF07
:1036230090FC98E024FFFCA3E034FFFD90FC98ECB1
:10363300F0EDA3F074FF2F400990DF04E0FF74FC6A
:103643005FF090FC3C7402F090F831E025E0FEE47A
:103653002432FFEE34F8FEE075F002A42432FC7449
:10366300FC35F0FD8C828D83E0FAA3E0FB74012A24
:10367300F8E43BF98C828D83E8F0E9A3F0EA2FF5B7
:1036830082EB3EF583E5D9F090F831E075F002A4C2
:103693002432F58274FC35F0F583E0FEA3E0FFC32A
:1036A3009402501A90F831E075F002A42432F582A6
:1036B30074FC35F0F583E0FEA3E0FF4E701A90F83A
:1036C30031E0FF75F002A42432F58274FC35F0F585
:1036D3008374FFF07401A3F090FC98E0FEA3E0FF75
:1036E3004E60030238D790FC97E0FF70030238D78F
:1036F30090FC9AE0FEA3E0FF90FC98EEF0EFA3F0BD
:1037030090FC98E0FEA3E090DF02EEF090DF04E08F
:10371300FF74FC5FF0E0FF74024FF00238D790DFD4
:103723003BE0FFBF130280030238D790FCAAE0FFFF
:10373300700302386890FC4EE0FEA3E0FF0EBE006B
:10374300010F90FC4EEEF0EFA3F090FC9EE0FEA381
:10375300E0FF90FCA2E0FCA3E0FDEEB50406EFB5AC
:103763000502800302383B90FCA0E0FEA3E0FF4E7D
:10377300603790FCA0E0FEA3E0FFBEFF05BF0002A0
:10378300801490FCA0E024FFFEA3E034FFFF90FC34
:10379300A0EEF0EFA3F090FCA6E0FEA3E0FF90FC08
:1037A3009EEEF0EFA3F002383B90FCA2E0F514A3E9
:1037B300E0F51590FC9CE0FF7E008F828E83124221
:1037C3000DAE82AF8390FC38E0FCA3E0FDEE2CF558
:1037D30082EF3DF583E4F090FC9CE02401F0E0FFF0
:1037E30090FC9DE0FEEFB5060590FC9CE4F090FC98
:1037F300A2E0F514A3E0F51590FC9CE0FF7E008F9A
:10380300828E8312420DAE82AF8390FC38E0FCA31C
:10381300E0FDEE2CFEEF3DFF8E828F83E070109073
:10382300FC41E4F090FC667412F0123121C29090D6
:10383300FC9E7401F0E4A3F090FCA8E0FEA3E0FF7B
:1038430090FCA8E024FFFCA3E034FFFD90FCA8EC6F
:10385300F0EDA3F0BEFF22BF001F90DF04E0FF7472
:10386300FC5FF0801490FCA8E024FFFEA3E034FF8B
:10387300FF90FCA8EEF0EFA3F090FC3C7403F090F3
:10388300FCA2E0F514A3E0F51590FC9CE0FF7E009C
:103893008F828E8312420DAE82AF8390FC9EE0FC3A
:1038A300A3E0FD90FC9EE02401F0A3E03400F0ECE3
:1038B3002EFEED3FFF90FC38E0FCA3E0FDEE2CF57F
:1038C30082EF3DF583E0F5D990FC3AE02401F0A3C3
:1038D300E03400F0D0D0D000D001D002D003D00427
:1038E300D005D006D007D083D082D0F0D0E0D0214D
:1038F30032C021C0E0C0F0C082C083C007C006C090
:1039030005C004C003C002C001C000C0D075D00010
:1039130075120090FC657410F0AE9B74FC5EF59B11
:10392300E5E9420FE5E930E02090FC3DE0FDA3E04E
:103933008D067D00AB9C7C0090FC3FED4BF0EE4C84
:10394300A3F0AEE974FE5EF5E9E5E9547070030295
:103953003AD790FC3CE0FEBE030AAE0F748F5EF5CF
:103963000F023AD090F831E0FEB40100E43324367C
:10397300F582E434FCF583E0FEBE01028003023AE3
:10398300AD90FCABE0FE20E103023A8690DF04E059
:10399300FE530603BE010375120190FCABE0FE5318
:1039A3000601BE017090F831E025E0FDE42432FE0B
:1039B300ED34F8FDAB127C00EB2EFEEC3DFDE0F99F
:1039C30029FAE42432F9EA34F8FAEB29FBEC3AFC5D
:1039D300E075F002A42432F58274FC35F0F583E03F
:1039E300F9A3E0FAA8127F00E9C398F9EA9FFA90D5
:1039F300FCABE0FF5307F090FC81EBF0ECA3F090FD
:103A0300FC83E9F0EAA3F090FC85EFF08E828D83CE
:103A1300123EA9806E90F831E025E0FEE42432FFE7
:103A2300EE34F8FEAC127D00EC2FFFED3EFEE025F8
:103A3300E0FAE42432FBEA34F8FAEC2BFCED3AFD2D
:103A4300E075F002A42432F58274FC35F0F583E0CE
:103A5300FAA3E0FBA8127900EAC398FAEB99FB906A
:103A6300FCABE0F95301F090FC88ECF0EDA3F0908F
:103A7300FC8AEAF0EBA3F090FC8CE9F08F828E8352
:103A8300123EF290F831E0FF74016FF0E0FF75F041
:103A930002A42432F58274FC35F0F583E4F0A3F03C
:103AA30090FC36F090FC37F0802190FC667412F0A5
:103AB300B29090F831E0FF75F002A42432F58274DD
:103AC300FC35F0F583E4F0A3F0B290C290AFE97453
:103AD300CF5FF5E9E5E930E61490FC667410F0B2C7
:103AE30090123121B290AFE974BF5FF5E9E5E93097
:103AF300E71490FC667411F0B290123121B290AFCA
:103B0300E9747F5FF5E9D0D0D000D001D002D003B3
:103B1300D004D005D006D007D083D082D0F0D0E037
:103B2300D02132AF83E58290FC63F0EFA3F090FCE9
:103B330061E0FEA3E0FF90FC63E0FCA3E0FD90FCEA
:103B43005FE0FAA3E0FB8A008B011ABAFF011BE8CE
:103B5300496024EE2AF8EF3BF9E82CF8E93DF9EA4D
:103B63002CF582EB3DF583C006C007E0888289838C
:083B7300F0D007D00680CF223C
:104646000000000000000100000000000000000063
:07465600000000000000005D
:103B7B00AE82AF831EBEFF011FC3E49E74808FF025
:103B8B0063F08095F0500F7C4C7D041CBCFF011D35
:103B9B00EC4D70F780DE22AE82E583CE25E0CE338E
:103BAB00FF1EBEFF011FC3E49E74808FF063F08085
:103BBB0095F040ED22AE82AF83D2909003E8C00720
:103BCB00C006123B7BC2909001F4123B7BD006D017
:103BDB00071513AD13ED20E754EE30E024900019D8
:103BEB00C007C006C005123B7BD290900226123B49
:103BFB007BC290900019123B7BD005D006D007807A
:103C0B0022900113C007C006C005123B7BD29090D7
:103C1B000032123B7BC290900113123B7BD005D03C
:103C2B0006D007EFC313CE13CEFF1D80A8C2909012
:103C3B0003E8023B7BAFF0AE83E58290FC6EF0EEC7
:103C4B00A3F0EFA3F090FC6EE0FDA3E0FEA3E0FF7A
:103C5B0090FC6BE0FAA3E0FBA3E0FCA814A915E829
:103C6B00496051C000C0018D828E838FF012438951
:103C7B00F98A828B838CF0124389F8E9C398F51685
:103C8B00D001D000E5166010E516F5173395E0F579
:103C9B0018851782851883220DBD00010E90FC6ECE
:103CAB00EDF0EEA3F0EFA3F00ABA00010B18B8FF8A
:103CBB00011980AB90000022AFBE74FB5FF5BEE52F
:103CCB00BE30E6FBAFC674B85FF5C6E5C620E6FBB3
:103CDB0043BE04E5BE30E6FB53C6C743E40C43E4E6
:103CEB0001D2B92243FE03C29022C0E0C082C0833E
:103CFB00C0D090FC67E02401F0A3E03400F0A3E017
:103D0B003400F0A3E03400F0D0D0D083D082D0E0E8
:103D1B003212305DAF8290FC75EFF08FF005F074CE
:103D2B0001800225E0D5F0FB90FC76F0EF75F008F2
:103D3B00A42419FE74F835F0FF90FC71EEF0EFA39C
:103D4B00F08E828F83A3A374DFF08E828F83A3A365
:103D5B00A374B1F08E828F83A3A3A3A3A37410F0DB
:103D6B0074062EF582E43FF583E054E0441DF074B5
:103D7B00072EF582E43FF583E0543F4440F074078F
:103D8B002EF582E43FF583E054FC4401F012305DE4
:103D9B00AF8290FC77EFF08FF005F0740180022575
:103DAB00E0D5F0FB90FC78F0EF75F008A42419FE39
:103DBB0074F835F0FF90FC73EEF0EFA3F08E828F6A
:103DCB008374DFF08E828F83A374B2F08E828F8325
:103DDB00A3A3A3A3A37410F074062EF582E43FF5FE
:103DEB0083E054E0441EF074072EF582E43FF58324
:103DFB00E054CF4410F074072EF582E43FF583E0D6
:103E0B0054FC4401F043A91043B91022AF83E5825F
:103E1B0090FC7BF0EFA3F0E5B330E3FB90FC71E09B
:103E2B00FEA3E0FF90FC7BE0FCA3E0FD8C028D0386
:103E3B008B028E828F83EAF090FC71E0FEA3E0FF91
:103E4B008E828F83A37D00ECF090FC76E042D690BF
:103E5B00FC79E0FF90FC7AE0FE4F4401F5B3E5B34B
:103E6B0030E3FB22AF83E58290FC7FF0EFA3F09071
:103E7B00FC7FE0FEA3E0FF90FC7DE0FCA3E0FDEC0B
:103E8B00540F60158C028D030CBC00010DEA2EF54E
:103E9B0082EB3FF583E4F080E68C828D8322AF8347
:103EAB00E58290FC86F0EFA3F090FC86E0FEA3E0A9
:103EBB00FF90FC81E0FCA3E0FD90FC83E0FAA3E023
:103ECB00FB90FC85E0F990FC8FECF0EDA3F090FCFF
:103EDB0091EAF0EBA3F090FC93E4F090FC94E9F002
:103EEB008E828F83023F3CAF83E58290FC8DF0EF97
:103EFB00A3F090FC8DE0FEA3E0FF90FC88E0FCA318
:103F0B00E0FD90FC8AE0FAA3E0FB90FC8CE0F990DA
:103F1B00FC8FECF0EDA3F090FC91EAF0EBA3F090AA
:103F2B00FC937402F090FC94E9F08E828F83023F35
:103F3B003CAF83E58290FC95F0EFA3F0E5B330E363
:103F4B00FB90FC95E0FEA3E0FF90FC8FE0F51AA33D
:103F5B00E0F51B90FC94E0FB74505BF51990FC931F
:103F6B00E0F94B4401FB740149F51890FC91E0F525
:103F7B0014A3E0F515E4F516F517C3E5169514E54E
:103F8B00179515400122C00390FC71E0F8A3E0FBEC
:103F9B00E5162EF9E5173FFA89048A058D04888208
:103FAB008B83ECF090FC71E0FCA3E0FD8C828D83A5
:103FBB00A3E9F090FC73E0FCA3E0FD8C828D83A35E
:103FCB00A3E516251AFCE517351BFD8C028D038B1B
:103FDB0002EAF090FC73E0FAA3E0FB8A828B83A3E6
:103FEB00A3A3ECF090FC78E0FD90FC76E0FC4D4256
:103FFB00D6D003E5196017E51424F0FCE51534FF62
:10400B00FDECB51609EDB517058518B380028BB31A
:10401B00E5B330E3FB74102516F516E43517F517E9
:10402B00023F851240D1BC0003024298EF60FA3088
:10403B00D502B2D1E583B4FF030242AEE582B4FFF1
:10404B00030242AE258340072482400B0242982490
:10405B00831450030242AEF582EA8DF0A4A8F0EA75
:10406B008EF0A428F8E435F0F9EB8DF0A428E935AF
:10407B00F0F9E433CA8FF0A429F9EA35F0FAEBF83A
:10408B008EF0A429F9EA35F0FAE433FBEC8DF0A4B9
:10409B0029F9EA35F0FAE43BFBE88FF0A42AFAEBB6
:1040AB0035F0FBE433CCFD8EF0A42AFAEB35F0FBB4
:1040BB00E43CFCED8FF0A42BFBEC35F0FC20E7038C
:1040CB001240FF024277AA82AB83A2F73392D1F55B
:1040DB00826002D2F7ACF0E58124F9F8E6FD08E640
:1040EB00FE0886F008E6A2F73392D5F5836002D27C
:0440FB00F7AFF02209
:0600BA00E478FFF6D8FD1A
:1040FF007804EC7011E58224F8500AF582E4C9CAFD
:10410F00CBFCD8EF22EC7820058220E713D5820173
:10411F0022C3E933F9EA33FAEB33FBEC33FCD8EA89
:10412F00158222AC82AD83AE15AF16BE0004EF60D0
:10413F000C1F0FE5141241F2A3DEFADFF88C828D0B
:10414F008322AD82AE83AFF08D198E1A8F1B85142B
:10415F001C85151D85161EA817A918880389041814
:10416F00B8FF0119EB4C6025851C82851D83851EC8
:10417F00F0124389FCA385821C85831D8D828E835B
:10418F008FF0EC1241F2A3AD82AE8380CE851982FF
:07419F00851A83851BF02245
:100098007917E94400601B7A019046467897759372
:1000A800FCE493F2A308B800020593D9F4DAF275D8
:0200B80093FFB4
:1041A600FCABF0AA83A982749EC2D1F5821240FFAD
:1041B6000242777F9E1241E030D103024298C3EF5C
:1041C6009582500974FFF5F0F583F5822279001285
:1041D60043A589828A838BF0EC22AA82AB83A2F75D
:1041E6003392D1F5826002D2F7ACF02220F711307B
:1041F600F6138883A88220F509F6A8837583002222
:1042060080FEF280F5F022E5828514F0A4C582C016
:10421600F08515F0A4D0F025F0C5838514F0A4250B
:1042260083F58322E514451560467A01E51425E0F9
:10423600F514E515334012F515E5829514E58395D9
:104246001540030A80E6C3E51513F515E51413F5C5
:1042560014C3E5829514F5F0E58395154005F583BD
:1042660085F082C3E51513F515E51413F514DAE1A7
:014276002225
:1000C0007800E84400600A79007593F0E4F309D8F9
:1000D000FC7897E8440C600C790D90F000E4F0A3F4
:0400E000D8FCD9FA75
:02008900E4731E
:10427700B98003EA13B34010EA2401FAE43BFBE4F4
:104287003CFC50047C800582BC000EBB000BBA00CE
:1042970008E4F5F0F583F58222A2D1E582138CF0CC
:1042A70092F78B838A8222E4F583F58275F080F496
:1042B700A2D11322E4F583F58275F0C0747F221230
:1042C70040D130D502B2D1BF0009BC00030242BBC6
:1042D7000242AEBC0003024298E583B4FF0BE582BD
:1042E700B4FF030242BB024298E582B4FF030242D5
:1042F700AEC395835007247F400B02429824801455
:1043070050030242AEF582C3ED9AEE9BEF9C40113B
:104317001582C3EA33F9EB33FAEC33FBE433FC8061
:1043270005E4CCCBCAF9C08275F019C3E99DEA9EB2
:10433700EB9FEC9400D5F002802D400EE99DF9EA41
:104347009EFAEB9FFBEC9400FCC3B3E833F8E582DD
:1043570033F582E58333F583C3E933F9EA33FAEBBF
:1043670033FBEC33FC80C4B3E4F938FAE43582FB61
:10437700E43583FCD082500405827C801240FF0222
:02438700428F63
:0D008B007581551243E8E58260030200868E
:1043890020F71430F6148883A88220F507E6A8835D
:1043990075830022E280F7E49322E0226040F82549
:1043A90082500274FFF582E824F8501ECCCBCAF97A
:1043B900E4CC24F85014CBCAF9E4CB24F8500BCA46
:1043C900F9E4CA24F8500379002224086010F8C3DC
:1043D900EC13FCEB13FBEA13FAE913F9D8F1227594
:0343E9008200222D
:00000001FF
