:0600000002008B0235C175
:01000B0032C2
:0100130032BA
:01001B0032B2
:0100230032AA
:01002B0032A2
:03003300022E7D1D
:01003B003292
:01004300328A
:03004B00023CD89C
:030053000206950D
:03005B0002096F28
:01006300326A
:03006B00022F0061
:01007300325A
:01007B003252
:030083000238D769
:0300E9000200868C
:030086000219AFAD
:1000EC00AF83E58290F554F0EFA3F075E10490DF57
:1000FC003BE0FFBF01F890F554E0FEA3E0FF90DF7A
:10010C0006EEF075E10290DF3BE0FFBF0DF8227EBA
:10011C00007F0090FC48E0FCA3E0FD8E028F03C33F
:10012C00EA9CEB9D503AEE2400FCEF34F0FD90FC81
:10013C0046E0F514A3E0F5158A828B83C007C00650
:10014C00C005C00412420DAA82AB83D004D005D0E6
:10015C0006D0078C828D83EAF00EBE00B60F80B3FA
:10016C0022E58290F556F0E0FFE59CC39FF59CE5F7
:10017C009C24FAF59C439E10D2BA22AF9E74EF5F7A
:10018C00F59E22AF83E58290F55AF0EFA3F090FC38
:10019C0041E060139043CF122F6F90FC41E0F58249
:1001AC00122FB17582EF2290FC417406F090DF3B68
:1001BC00E0FFBF130280F6C29190F557E0FEA3E07A
:1001CC00FF90FCA8EEF0EFA3F090FCA274F1F0E429
:1001DC00A3F090FC387472F074F3A3F090FCA0E4DC
:1001EC00F0A3F090FC53F090FC9CF090FC52F0903B
:1001FC00FC9E04F0E4A3F090FC9D7402F090F55C7E
:10020C00E4F090000012033490F55AE0FEA3E0FFF6
:10021C0090F559E0FD7B007C008D017A00C3EB99D1
:10022C00EC9A50548B02EA75F0F0A42EF9E43FFAE4
:10023C0090F55C74F0F089828A83C007C006C00513
:10024C00C004C003120334AA82D003D004D005D05A
:10025C0006D007EA601B904421C002122F6FD00217
:10026C0090FC41E4F08A82C002122FB1D0028A8243
:10027C00220BBB00A40C80A190FCABE0FF30E3335D
:10028C0090FCA8E0FEA3E0FFEE540F602690FCA8C3
:10029C00E0FEA3E053060F7F007410C39EFEE49FA4
:1002AC00FF90FCA8E0FCA3E0FD90FCA8EE2CF0EF86
:1002BC003DA3F090FCA8E0FEA3E0FFC374FF9EE416
:1002CC009F502390FCA8E0FEA3E090DF02EEF0909C
:1002DC00DF04E0FF74FC5FF0E0FF74024FF090FC71
:1002EC00AA7401F0801290FCA8E0FEA3E0FF90DF5E
:1002FC0002EEF090FCAAE4F075E1037E607FEA90D8
:10030C00DF3BE0FDBD130280091EBEFF011FEE4F57
:10031C0070EDD291EE4F700C90FC667413F090441B
:10032C0039122F6F75820022AF83E58290F55DF054
:10033C00EFA3F090F55CE0FF240F500A90444A12B2
:10034C002F6F7582FF22EF703E90FC52E4F090FC10
:10035C0052E0FE90FC9DE0FDC3EE9D502190FC52BE
:10036C00E075F0F1A42472F58274F335F0F583E4B2
:10037C00F090FC52E0FE0E90FC52EEF080D090FC1F
:10038C0052E4F07582002290FC41E0FE601DBE0636
:10039C001E90FC52E0601890DF3BE0FEBE13028022
:1003AC000E90FC417407F07582ED227582ED22905F
:1003BC00FC52E075F0F1A42472FD74F335F0FE8D5F
:1003CC00828E83E0600A90FC667418F07582FE22BF
:1003DC008D828E8374FFF090FC52E075F0F1A424B2
:1003EC0072FD74F335F0FE0DBD00010E7C0090F52E
:1003FC005DE0FAA3E0FB8A148B158C168F037F004B
:10040C008B178F188D828E838CF0C007C00312411E
:10041C0034D003D00790FCABE0FE20E3030204DCF5
:10042C0090FC52E075F0F1A42472FD74F335F0FEEB
:10043C000DBD00010E90FC7DEBF0EFA3F08D828ED4
:10044C0083123E52AE8290F55CEEF090FCABE0FF76
:10045C00530704BF043F90FC52E075F0F1A42472E2
:10046C00FD74F335F0FF0DBD00010F8E037C009081
:10047C00FCABE0FA5302F090FC81EDF0EFA3F090AE
:10048C00FC83EBF0ECA3F090FC85EAF08D828F837B
:10049C00123E8C803B90FC52E075F0F1A42472FD6E
:1004AC0074F335F0FF0DBD00010F7C0090FCABE048
:1004BC00FB5303F090FC88EDF0EFA3F090FC8AEE78
:1004CC00F0ECA3F090FC8CEBF08D828F83123ED578
:1004DC0090FC52E075F0F1A42472FE74F335F0FF39
:1004EC0090F55CE0FD8E828F83F090FC52E0FF0F64
:1004FC0090FC52EFF090FC9DE0FEEFB5060590FCF1
:10050C0052E4F075820022AF83E58290F55FF0EF44
:10051C00A3F090FC41E0FF6014BF0102800F9044F7
:10052C0064122F6F90FC41E0F582122FB1120187FB
:10053C0090FC4AE4F0A3F090FC4AE0FEA3E0FF8EAE
:10054C00828F8312061590DF3BE0FFBF0DF890DF22
:10055C003AE0FF53077FBF6000402790FC4AE0FE63
:10056C00A3E0FF0EBE00010F90FC4AEEF0EFA3F0EB
:10057C00D29190000A123B5EC29190000A123B5E2F
:10058C0080B590FC417402F090FC67E0FCA3E0FDA8
:10059C00A3E0A3E090FC4CECF0EDA3F090F55FE051
:1005AC00FEA3E0FF90FC50EEF0EFA3F02290FC4194
:1005BC00E4F090FC67E0FCA3E0FDA3E0A3E090FC7A
:1005CC004CECF0EDA3F02290FC417404F090FC672D
:1005DC00E0FCA3E0FDA3E0A3E090FC4CECF0EDA369
:1005EC00F02290FC417405F090FC54E4F0A3F090E0
:1005FC00FC67E0FCA3E0FDA3E0A3E090FC4CECF076
:10060C00EDA3F075820002016DAF83E58290F56178
:10061C00F0EFA3F090F561E0FEA3E0FFEE2400F50F
:10062C0082EF34F0F583E0FF7E008F828E83020030
:10063C00ECAF83E58290F563F0EFA3F090F563E007
:10064C00FEA3E0FF90F370EEF0EFA3F0222290FCFB
:10065C004AE0FEA3E0FF0EBE00010F90FC4AEEF054
:10066C00EFA3F0C3EE9470EF9403400790FC4AE4C0
:10067C00F0A3F090FC4AE0FEA3E0FFEE2400F5822C
:10068C00EF34F0F583E0F58222C021C0E0C0F0C069
:10069C0082C083C007C006C005C004C003C002C02E
:1006AC0001C000C0D075D00090FC3DE02401F0A347
:1006BC00E03400F090FC42E0FEA3E0FF90FC3DE053
:1006CC00FCA3E0FDECB5060BEDB5070790FC3DE493
:1006DC00F0A3F090FC3DE0FEA3E0FFBE0005BF00E0
:1006EC0002800BBE0105BF0002806802085790FC17
:1006FC003DE0FEA3E08E077E00AC9C7D00EC420644
:10070C00ED420790FC4EEEF0EFA3F090FC4AE0FEB9
:10071C00A3E0FF0EBE00010F90FC4AEEF0EFA3F039
:10072C0090FC48E0FCA3E0FDC3EE9CEF9D400790DD
:10073C00FC4AE4F0A3F090DF3BE0FFBF1303020997
:10074C005290FC4AE0FEA3E0FF8E828F83120615C6
:10075C0002095290FC41E0FFBF05028003020952DE
:10076C00900019123B5E90F567741CF090FC4AE007
:10077C00FEA3E090F568EEF090FC4AE0A3E090F563
:10078C0069F090F56A7442F090F56B744CF090F54A
:10079C006C7441F090F56D7448F090F56E7442F005
:1007AC0090F56F744CF090F5707441F090F5717495
:1007BC0048F090F5727442F090F573744CF090F52B
:1007CC00747441F090F5757448F090F5767442F0BD
:1007DC0090F577744CF090F5787441F090F579744D
:1007EC0048F090F57A7442F090F57B744CF090F5EB
:1007FC007C7441F090F57D7448F090F57E7442F075
:10080C0090F57F744CF090F5807441F090F5817404
:10081C0048F090F5827420F090FC56741CF0E4A320
:10082C00F090FC58F0A3F090FC5AF0A3F090F5680F
:10083C0012323A90FC54E0FEA3E0FF0EBE00010F12
:10084C0090FC54EEF0EFA3F002095290FC41E0FF53
:10085C00BF03028065BF04028008BF05028003024B
:10086C00095290FC4CE0FEA3E0FF90FC67E0FAA379
:10087C00E0FBA3E0FCA3E0FD8E008F01E4FEFFEAA9
:10088C00C398FAEB99FBEC9EFCED9FFDC374649A44
:10089C00E49BE49CE49D5022904492122F6F90FCB8
:1008AC00417405F090FC67E0FCA3E0FDA3E0FEA31F
:1008BC00E0FF90FC4CECF0EDA3F090FC53E075F0F5
:1008CC00F1A42472FE74F335F0FF8E828F83E06006
:1008DC0075900019123B5E90FC53E075F0F1A42466
:1008EC0072FE74F335F0FF90DF04E05401FDB401A7
:1008FC0000E4332EFDE43FFC8E828F83E090FC56A7
:10090C00F0E4A3F090FC58F0A3F090FC5AF0A3F0A4
:10091C008D828C8312323A90FC53E075F0F1A42452
:10092C0072F58274F335F0F583E4F090FC53E0FF3C
:10093C000F90FC53EFF0BF0200400590FC53E4F025
:10094C009044B0122F6FD0D0D000D001D002D00381
:10095C00D004D005D006D007D083D082D0F0D0E020
:10096C00D021323290FC41E4F090FC52F090FC53D8
:10097C00F090FC4AF0A3F090FC467453F0E4A3F022
:10098C0090FC487453F0E4A3F090FC4EF0A3F0906C
:10099C00FC4CF0A3F090FC427406F0E4A3F090FC45
:1009AC0044F0A3F090FC50F0A3F090FC54F0A3F0B2
:1009BC0012011B90FC41E4F0759DDC859E9E439ECC
:1009CC000443CB1022020970900DF8121EF690FC15
:1009DC0067E4F0A3F0A3F0A3F01209D190F583E43F
:1009EC00F090F5847432F074F8A3F02290FC41E09E
:1009FC00FFBF0003020D2DBF0103020BFEBF02035C
:100A0C00020AFCBF0303020D2DBF0403020D2DBF10
:100A1C000503020D0EBF060122BF40028006BF4136
:100A2C000280422275E10490DF3BE0FFBF01F890A9
:100A3C00DF0374E5F090DF047404F090DF077412A8
:100A4C00F090DF08E4F090DF147410F090DF17E002
:100A5C00FF74C04FF090FC417441F090F5847432F7
:100A6C00F074F8A3F090F583E4F090FC54E0FEA34E
:100A7C00E0FF90F583E0FDFB7C00C3EB9EEC9F5008
:100A8C004590DF06EDF075E10490DF3BE0FFBF0120
:100A9C00F875E10290DF3BE0FFBF0DF89000021209
:100AAC003B5E90F584E0FEA3E0FF90F583E02EFE24
:100ABC00E43FFF90DF3AE0FD8E828F83F090F58368
:100ACC00E02401F080A475E10490DF3BE0FFBF015E
:100ADC00F890FC54E0FEA3E08E3375340090F5845E
:100AEC00E0F535A3E0F5367532017582430219E164
:100AFC00E50F7003020BEC90FC65740DF0AF9A746B
:100B0C00FE5FF59AE50F20E403020BEC90FC4174B8
:100B1C0003F090FC3FE0FEA3E08E8212016D904446
:100B2C00BE122F6F90FC3FE0FEA3E0FF8E828F83FE
:100B3C00122FCC90F831E025E0FEE42432FFEE34A5
:100B4C00F8FE8F828E83122F6F90F831E0FFB40184
:100B5C0000E433FF90F583F0EF2436FDE434FCFE23
:100B6C008D828E83E0707290DF04E0FE30E0378F70
:100B7C0006EE2EFDE42432F582ED34F8F583E0FE2A
:100B8C008E337534008F06EE2EFDE42432FEED34E8
:100B9C00F8FD74012EF535E43DF53675320175829C
:100BAC00421219E1802290DF02E0FE8E33E4F5342C
:100BBC00EF2FFEE42432FFEE34F8FE8F358E3675BF
:100BCC0032017582421219E190F583E0FF2436F56B
:100BDC0082E434FCF5837401F0AF0F74EF5FF50F12
:100BEC00D20010AF02C200750F00A20092AF439A60
:100BFC000122E50F7003020CFC90FC65740DF0AF44
:100C0C009A74FE5FF59AE50F20E403020CFC90F851
:100C1C0031E0FF90F583B40100E433F09044D3123B
:100C2C002F6F90F583E025E0FEE42432FFEE34F8DC
:100C3C00FE8F828E83122FCC90F583E025E0FEE4AC
:100C4C002432FFEE34F8FE8F828E83122F6F90F8D1
:100C5C0031E0FFB40100E433FF90F583F0EF24366C
:100C6C00FDE434FCFE8D828E83E0707290DF04E034
:100C7C00FE30E0378F06EE2EFDE42432F582ED34A3
:100C8C00F8F583E0FE8E337534008F06EE2EFDE40E
:100C9C002432FEED34F8FD74012EF535E43DF536C5
:100CAC007532017582421219E1802290DF02E0FE5A
:100CBC008E33E4F534EF2FFEE42432FFEE34F8FEED
:100CCC008F358E367532017582421219E190F5839B
:100CDC00E0FF2436F582E434FCF5837401F0D20095
:100CEC0010AF02C200AF0F74EF5FF50FA20092AF0E
:100CFC00D20010AF02C200750F00A20092AF439A4F
:100D0C00012290FC54E0FEA3E0FF90FC48E0FCA321
:100D1C00E0FDC3EE9CEF9D50012290FC417404F069
:100D2C0022E50F70012290FC65740DF0E50F543034
:100D3C0070012290F831E0FFB40100E433FF90F52C
:100D4C0083F0EF2436FDE434FCFE8D828E83E0606C
:100D5C0003020DE590DF04E0FE30E0378F06EE2E47
:100D6C00FDE42432F582ED34F8F583E0FE8E337524
:100D7C0034008F06EE2EFDE42432FEED34F8FD74C3
:100D8C00012EF535E43DF5367532017582421219A6
:100D9C00E1803590FC97E0FE600A90FC9AE0FDA3A0
:100DAC00E0FE800890DF02E0FCFD7E00EF2FFCE40B
:100DBC002432FFEC34F8FC8F358C367532018D33D0
:100DCC008E347582421219E190F583E0FF2436F5DA
:100DDC0082E434FCF5837401F0D20010AF02C2003F
:100DEC00AF0F74CF5FF50FA20092AF2290F7E3E044
:100DFC00FDA3E0FEA3E0FF90F7E8E0FCBC4202801C
:100E0C000302177790F7E9E0FC24BE500302176940
:100E1C00EC240A83F582EC244683F583E473696938
:100E2C00FE3869B15E7C8FC8012568066969BE3DD4
:100E3C0064D7FC0F7BEF2469696969696969CE57CE
:100E4C009E94B76969696969696969696969696958
:100E5C006969696969696969696969696969AEE832
:100E6C0017170E11170F1010101011111112171750
:100E7C001415151515161613151717171717171709
:100E8C0016171615151717171717171717171717EC
:100E9C0017171717171717171717171717171717D6
:100EAC000E0EC007C006C005120187D005D006D0B3
:100EBC000790FC417440F08D828E838FF012436C4E
:100ECC00FC7B0090FC54ECF0EBA3F090F809EDF0F7
:100EDC00EEA3F0758201122CC102177790FC41E44D
:100EEC00F090F809EDF0EEA3F0758201122CC1021E
:100EFC00177790FC41E060099044ED122F6F0217B8
:100F0C00778D828E838FF012436CFC7B0090F5867C
:100F1C00ECF0EBA3F08D828E83A3E0FAE4F92CFCC9
:100F2C00EA3BFB90F586ECF0EBA3F08D828E83A36D
:100F3C00A3A3A3E0FA8A0889098D828E83A3A3A3B5
:100F4C00A3A3E0FAE42508F508EA3509F50990FCB5
:100F5C003AE4F0A3F074062DF9E43EFA90FC56EC5A
:100F6C00F0EBA3F090FC58E4F0A3F090FC5AE508E9
:100F7C00F0E509A3F089828A83C007C006C0051278
:100F8C00323AAC82D005D006D0078D828E838FF09A
:100F9C00EC1241D590F809EDF0EEA3F07582011238
:100FAC002CC10217778D828E838FF012436C90FCCC
:100FBC009AF0E4A3F08D828E83A3E0FB7C0090FC7E
:100FCC009AE0F9A3E0FA90FC9AEC29F0EB3AA3F042
:100FDC0090FC9AE0FBA3E0FC4B604490FC977401FE
:100FEC00F090FC98E0FBA3E0FC4B7047123173903F
:100FFC00FC9AE0FBA3E0FC90FC98EBF0ECA3F090E7
:10100C00FC98E0FBA3E090DF02EBF090DF04E0FC47
:10101C0074FC5CF0E0FC74024CF0123129801490EA
:10102C00FC97E4F090FC98F0A3F090FC9AF0A3F0FD
:10103C0012317390F7E8E0FC90F7E9E0F532753582
:10104C009A7536FC7533017534008C821219E102E5
:10105C0017778D828E838FF012436C90FCABF090DF
:10106C00F809EDF0EEA3F0758201122CC10217778E
:10107C0090F80974ABF074FCA3F0758201122CC1CA
:10108C0002177790FCABE0FC5304F090FC797406EB
:10109C00F090FC7AECF08D828E838FF0C007C00646
:1010AC00C005123DFAD005D006D00790F809EDF036
:1010BC00EEA3F0758210122CC102177790FCABE0F6
:1010CC00FC5304F090FC797404F090FC7AECF08DF5
:1010DC00828E838FF0C007C006C005123DFAD00582
:1010EC00D006D00790F809EDF0EEA3F0758210123F
:1010FC002CC10217778D828E838FF012436C90FC7B
:10110C00ACF0E0FC74015CF090F809EDF0EEA3F0AB
:10111C00758201122CC102177790F80974ACF07427
:10112C00FCA3F0758201122CC10217778D828E837D
:10113C008FF012436CFC7B008C828B83C007C00643
:10114C00C00512063DD005D006D00790F809EDF089
:10115C00EEA3F0758201122CC102177790FC41E0CE
:10116C00601C8D828E838FF074EF1241D590F8093C
:10117C00EDF0EEA3F0758201122CC10217778D826F
:10118C008E838FF012436CFC7B0090F586ECF0EBB9
:10119C00A3F08D828E83A3E0FAE42CFCEA3BFB9057
:1011AC00F586ECF0EBA3F08D828E83A3A3E0FA908E
:1011BC00FC3AE4F0A3F074032DF8E43EF990F557F3
:1011CC00ECF0EBA3F090F559EAF088828983C00724
:1011DC00C006C00512018FAC82D005D006D0078D99
:1011EC00828E838FF0EC1241D590F809EDF0EEA3CE
:1011FC00F0758201122CC10217778D828E838FF0CD
:10120C0012436CFB7C0090F586EBF0ECA3F0EB4CFE
:10121C00600302130090FCA8E0F9A3E0FA49601CFB
:10122C0090DF3BE0FABA1314900028C007C006C048
:10123C0005123B5ED005D006D00780D990FCA8E003
:10124C00F9A3E0FA49606B904512C007C006C005CF
:10125C00122F6F90FCA8E0F9A3E0FA89828A83121E
:10126C002FCC90F372E0F582122FB190F463E0F57D
:10127C0082122FB1D005D006D00790FC667412F004
:10128C008D828E838FF074EC1241D5C291C007C051
:10129C0006C005123104D005D006D00790FC41E4FD
:1012AC00F090F809EDF0EEA3F0758201122CC1025A
:1012BC001777C29190FC41E4F08D828E838FF012EF
:1012CC0041D5904526C007C006C005122F6F90FC73
:1012DC003AE0F9A3E0FA89828A83122FCCD005D0A8
:1012EC0006D00790F809EDF0EEA3F0758201122CF0
:1012FC00C102177790FC41E0FABA06028061904572
:10130C0036C007C006C005122F6FD005D006D00717
:10131C0090FC66E0FABA121B8D828E838FF074EC0F
:10132C001241D590F809EDF0EEA3F0758201122C64
:10133C00C1801F90FC667417F08D828E838FF074C1
:10134C00EF1241D590F809EDF0EEA3F07582011281
:10135C002CC1C29112310490FC41E4F00217777455
:10136C00012DF9E43EFA90F55CEBF089828A83C09A
:10137C0007C006C005120334AC82D005D006D007D6
:10138C008D828E838FF0EC1241D58D828E838FF0FF
:10139C0012436CFBEC603BBBFE02803690453FC0B9
:1013AC0007C006C005122F6FD005D006D0078D825E
:1013BC008E838FF012436CF582C007C006C00512F5
:1013CC002FB1C291123104D005D006D00790FC4148
:1013DC00E4F090F809EDF0EEA3F0758201122CC147
:1013EC000217778D828E838FF012436CFB7C0090FA
:1013FC00F586EBF0ECA3F0C374F09BE49C501990D1
:10140C00444A122F6F90F8097486F074F5A3F075A6
:10141C008201122CC102177790FC52E075F0F1A4F6
:10142C002472F974F335F0FA89828A83E06019909A
:10143C00454C122F6F90F8097486F074F5A3F07573
:10144C008201122CC10217778B0089828A83E8F003
:10145C0090FC52E075F0F1A42472F974F335F0FAB3
:10146C0009B900010A890A8A0B750C0074012DF95F
:10147C00E43EFA89148A157516008B178C18850AA8
:10148C0082850B83850CF012413490FC52E0FC0CED
:10149C0090FC52ECF0BC0200400590FC52E4F09041
:1014AC00F8097486F074F5A3F0758201122CC10250
:1014BC0017778D828E838FF012436CFC7B0090FC2F
:1014CC0046ECF0EBA3F090FC46E0F9A3E0FAC37411
:1014DC00709C74039B402E74022DFBE43EFC8B1419
:1014EC008C1575160089178A1890F00075F000128B
:1014FC00413490F8097446F074FCA3F07582021222
:10150C002CC102177790F809746DF07445A3F0752F
:10151C008208122CC102177790FC46E0FBA3E090E6
:10152C00F8097400F074F0A3F08B82122CC102172E
:10153C007712065A7B008B8312061590FC4AE0FB4F
:10154C00A3E0FC90F809EB2400F0EC34F0A3F07568
:10155C008201122CC10217778D828E838FF0124379
:10156C006CFC7B008C828B83C007C006C00512000C
:10157C00ECD005D006D00790F809EDF0EEA3F0758D
:10158C008201122CC1021777758200C007C006C0F9
:10159C000512016DD005D006D00790F809EDF0EEDC
:1015AC00A3F0758201122CC1021777C007C006C0C8
:1015BC0005120187D005D006D00790F809EDF0EEA2
:1015CC00A3F0758201122CC10217778D828E838F46
:1015DC00F012436CFC7B0090FC42ECF0EBA3F0901F
:1015EC00F809EDF0EEA3F0758201122CC102177709
:1015FC0090F8097442F074FCA3F0758204122CC1AB
:10160C000217778D828E838FF0C007C006C005123B
:10161C002F2ED005D006D0078D828E838FF01243EB
:10162C006CF582C007C006C005122FB1D005D006DC
:10163C00D0078D828E838FF012436CFC7B008C1450
:10164C008B158B167517158B1890FC4175F000C017
:10165C0007C006C005124134D005D006D00790F85B
:10166C0009EDF0EEA3F0758215122CC102177790DC
:10167C00FC3DE0FBA3E0FC90FC44EBF0ECA3F09011
:10168C00F8097441F074FCA3F0758215122CC10298
:10169C0017778D828E838FF012436CFC7B008C82CB
:1016AC008B83C007C006C005120513D005D006D029
:1016BC000790F809EDF0EEA3F0758201122CC1022F
:1016CC00177790FC67E0F9A3E0FAA3E0A3E090FCA5
:1016DC004CE9F0EAA3F08D828E838FF012436CFC00
:1016EC0090FC41F090FC41E0FBEC24FA404DEB2BDC
:1016FC002B901701730217130217130217130217FB
:10170C0035021735021724C007C006C00512018721
:10171C00D005D006D0078023C007C006C00512052F
:10172C00EED005D006D0078012758200C007C00627
:10173C00C00512016DD005D006D00790F809EDF068
:10174C00EEA3F0758201122CC1802090F80974412F
:10175C00F074FCA3F0758201122CC1800E90F80974
:10176C00EDF0EEA3F0758201122CC1900000222244
:10177C0090F7F1E0FFBF013990F7D1E0FEA3E0FF55
:10178C0090F7F4E0FCA3E0FD90F7D4E0FAA3E0FBC3
:10179C00EA4B601D8E828F83E0F9A3AE82AF838CFF
:1017AC00828D83E9F0A3AC82AD831ABAFF011B8052
:1017BC00DF90F7DAE054FDF090DE11E0FF74084F93
:1017CC00F022AE82AF83E0FD20E7030218C78E82C1
:1017DC008F83A3E0FD601DBD0102802ABD02028043
:1017EC003BBD0302805ABD04028076BDFE03021885
:1017FC00890218C775370275380090FC6575F000C2
:10180C00121C8E0218C790DE00E0FD7C0075392892
:10181C008C3A8D828C83121D020218C78E828F83A4
:10182C00A3A3E0FCA3E0FD74062EF582E43FF58350
:10183C00E0F539A3E0F53A8C828D83121D02807B92
:10184C008E048F057B0074062EF582E43FF583E051
:10185C00F537A3E0F5388C828D838BF0121C8E80CB
:10186C005A90F7D1E0FBA3E0FCA3E0FD75391075AD
:10187C003A008B828C838DF0121D02803E74022EF6
:10188C00FEE43FFF7D00756B75756C45756D80755D
:10189C0014048D158E828F838DF0123C23E5828586
:1018AC0083F045F06012D29190012C123B5EC291F4
:1018BC0090012C123B5E800375C98390000022902E
:1018CC00DF2FE4F090DF30F090DF31F090DF007428
:1018DC00AAF090DF01740FF090DF027430F090DF0B
:1018EC00037440F090DF04E4F090DF05F090DF0625
:1018FC00F090DF077406F090DF08E4F090DF0974D5
:10190C0024F090DF0A742EF090DF0B74EEF090DF71
:10191C000C74BAF090DF0D74B5F090DF0E7405F016
:10192C0090DF0F7423F090DF107411F090DF1174BE
:10193C0036F090DF127407F090DF13740FF090DF25
:10194C00147418F090DF1514F090DF16746CF0908E
:10195C00DF177403F090DF187440F090DF19749166
:10196C00F090DF1A7456F090DF1B7410F090DF1CAF
:10197C0074E9F090DF1D742AF090DF1EE4F090DF24
:10198C001F741FF090DF237488F090DF247431F003
:10199C0090DF257409F090DF2E74C0F022123CA663
:1019AC00023CD21219A9123016123CFF121C591209
:1019BC0031AC1209D4121C88D2AF121B2CD29190CC
:1019CC000002123B5EC29190000A123B5E122CF296
:0519DC001209F880F87B
:1043CF0043616E6E6F742063616C6C207472616EEA
:1043DF00736D69745F6C6F6E67207768696C6520A9
:1043EF004648535320486F7070696E67206F722074
:1043FF00616C72656164792070726F636573736944
:10440F006E67207472616E736D69745F6C6F6E6727
:10441F0021004D41435F74782829207265747572AD
:10442F006E6564206572726F72006E6576657220BC
:10443F00656E74657265642054580046485353780E
:10444F006D6974206D65737361676520746F6F207C
:10445F006C6F6E6700464853532073746174652008
:10446F00656E746572696E672053594E4348494EA5
:10447F00472066726F6D2077726F6E67207374615D
:10448F0074650053594E43485F4D41535445522074
:10449F002D3E2053594E43494E474D41535445529B
:1044AF000046485353786D697420646F6E65006ED3
:1044BF006574776F726B207061636B6574287379A5
:1044CF006E6329006E6574776F726B207061636B1A
:1044DF00657428646973636F7665727929006372F6
:1044EF0061702C20706C6561736520757365204653
:1044FF00485353786D6974282920696E7374656108
:10450F0064210064726F706F75742066696E616CE0
:10451F0020776169742100746F74616C2062797403
:10452F0065732074783A00756E64657272756E00EB
:10453F00627566666572206572726F720073746958
:10454F006C6C2077616974696E67206F6E20746878
:10455F0065206C617374207061636B6574004E4FDE
:0B456F00204445414C005253544E00C4
:1019E100AF827E0190DE0E7405F090FC657412F0FA
:1019F100E53345347003021B227C107D2790DE11F4
:101A0100E0FB30E00D90FC667401F01CBCFF011D91
:101A110080EBEC4D7014D2919003E8123B5EC291C1
:101A21009003E8123B5E90FFFF22BE012C7E0090E6
:101A3100DE2A7440F0EFF0E532F0AC337D00ECF0DB
:101A4100E534F0C3743B9533E4953450067C3B7D1B
:101A510000801AAC33AD348014C374409533E495DF
:101A61003450067C407D008004AC33AD3474802555
:101A71002942D6852682852783AA35AB368B01E993
:101A8100F0852682852783A3EAF085268285278330
:101A9100A3A374DEF0852682852783A3A3A3742ADA
:101AA100F0852682852783A3A3A3A3A3ECFBF0855E
:101AB1002682852783A3A3A3A3E054E0F085268291
:101AC100852783A3A3A3A3A3A3A3E0543F4440F08A
:101AD100852682852783A3A3A3A3A3A3A3E054CF31
:101AE100F0E52942D6E52942D7E52955D160FAE545
:101AF10029F452D190DE0E7405F090DE11E0FB74F2
:101B0100014BF0E533C39CF533E5349DF534EC2509
:101B110035F535ED3536F53690FC657413F002195F
:101B2100F190FC657414F090000022E5227005121A
:101B31002CF280F722AFBE747F5FF5BE43BE80906A
:101B4100DE0B74F7F090DE0774FFF090DE09F043CE
:101B51008C10AF8C74FE5FF58CD2BD439A027589EF
:101B610000C2C5758B00C2E843A90243B9028526AC
:101B710082852783A3A3A3A3E054E0F08526828571
:101B81002783A3A3A3A3A3A3E0549F4420F0852606
:101B910082852783A3A3A3A3A3A3A3E04408F0857D
:101BA1002682852783A3A3A3A3A3A3A3E054FC4474
:101BB10001F090DE01E0FF74FE5FF0E4F525F5230E
:101BC100F524F52290DE0EF090DE107408F090DE20
:101BD10013F090F7DBE4F090F7DAF090F7CFF0A391
:101BE100F090F7D17488F074F5A3F0E4A3F090F7C6
:101BF100D4F0A3F090F7D6F090F7D7F090F7D8F0A3
:101C0100A3F090DE0E7405F090DE107408F090DE03
:101C110013F090DE12E0FF74014FF090DE15E0FF4B
:101C210074014FF090F7EDE4F090F7ECF090F7E1EC
:101C3100F0A3F090F7E374C8F074F5A3F0E4A3F017
:101C410090F7E6F0A3F090F7E8F090F7E9F090F75D
:101C5100EAF0A3F0439A02221230408582288528B7
:101C6100F005F07401800225E0D5F0FBF529E528A7
:101C710075F008A42419F52674F835F0F52790FCC1
:101C8100657402F0021B36D29022C29022AFF0AEF0
:101C910083E58290F7F6F0EEA3F0EFA3F090F7DB87
:101CA100E06034D2919003E8123B5EC2919003E868
:101CB100123B5ED2919003E8123B5EC2919003E821
:101CC100123B5ED2919003E8123B5EC2919003E811
:101CD100123B5E90FFFF2290F7F6E0FDA3E0FEA32A
:101CE100E0FF90F7CCEDF0EEA3F0EFA3F090F7CF8B
:101CF100E537F0E538A3F090F7DB7401F0900000D0
:101D010022AF83E58290F7F9F0EFA3F090F7DBE0E3
:101D11006034D2919003E8123B5EC2919003E812C5
:101D21003B5ED2919003E8123B5EC2919003E812B0
:101D31003B5ED2919003E8123B5EC2919003E812A0
:101D41003B5E90FFFF2290F7F9E0FEA3E0FF7D00EC
:101D510090F7CCEEF0EFA3F0EDA3F090F7CFE539DB
:101D6100F0E53AA3F090F7DB7401F0900000227FD8
:101D71000290DE0EE4F090F7CFE0FDA3E0FEC37425
:101D8100409DE49E50047C4080048D047F0A8C02B7
:101D91007B00EDC39AFDEE9BFE90F7CFEDF0EEA335
:101DA100F08C06EE603690F7CCE0FBA3E0FCA3E0FC
:101DB100FD8B828C838DF012436C90DE20F090F7C6
:101DC100CCE0FBA3E0FCA3E0FD0BBB00010C90F712
:101DD100CCEBF0ECA3F0EDA3F01E80C790DE11E098
:101DE1004FF090F7CFE0FEA3E0FF4E700590F7DBD8
:101DF100E4F02290F7DB7402F07582002290F7D1B3
:101E0100E0FDA3E0FEA3E0FF90DE11E0FCB40100E1
:101E1100E433FC20E0F290DE0EE4F090DE16E0FC0C
:101E21007B0090F7D4ECF0EBA3F090F7DAE0FC3014
:101E3100E11390F7DB7403F090DE11E0FC74044CC5
:101E4100F090FFFF2290F7DAE04402F090F7D4E03F
:101E5100FBA3E0FCC374409BE49C501CD291900115
:101E61002CC007C006C005123B5EC29190012C1226
:101E71003B5ED005D006D00790F7D4E0FBA3E0FC91
:101E81008D07EB4C601690DE20E0FD8F828E83F093
:101E9100A3AF82AE831BBBFF011C80E6E52C452D61
:101EA1006009852C82852D8312008990F7D4E0FE8C
:101EB100A3E0FFC3EE9440EF9400501DE52A452BAB
:101EC1006009852A82852B8312008990DE11E0FF4B
:101ED10074084FF090F7DBE4F090DE11E0FF7440FE
:101EE1004FF090F7D4E0FEA3E08E82F58322858245
:101EF1002E85832F228582308583312275370175A6
:101F0100380090002575F040021C8EAFF0AE83E5DD
:101F11008290F7FBF0EEA3F0EFA3F090F7FBE0FD6A
:101F2100A3E0FEA3E0FF74022DFDE43EFE8D828E50
:101F3100838FF012436CFDA312436C8D2575220132
:101F410022AF827DB67E458D828E83A3E090F7FE1F
:101F5100F09013E0E0F9A3E0FAA3E0FBA3E0FCE4D6
:101F6100B9400ABA6C07BB6104BC730104FCE4BF4D
:101F7100030104FBAA1490F7FEE0F9B9FF02804DBA
:101F8100E9B50732EB600CBA0309EC60067DE47E2B
:101F910013803AEA700890F7FE74FFF080D81A8D2A
:101FA100828E83E02DFDE43EFE8D828E83A3E0F9D7
:101FB10090F7FEF080C08D828E83E02DFDE43EFE21
:101FC1008D828E83A3E0F990F7FEF080A98D828E39
:101FD1008322AFF0AE83E58290F7FFF0EEA3F0EF3E
:101FE100A3F090F7FFE0F53DA3E0F53EA3E0F53F58
:101FF1007402253DFAE4353EFBAC3F8A828B838C2B
:10200100F012436CF8A312436CF9893B753C0074E0
:1020110002B53B06E4B53C0280227407B53B06E4F9
:10202100B53C028002804274AF58FE7F008A828BE9
:10203100838CF0EE1241D5A3EF1241D58A828B83B6
:102041008CF012436CFAA312436CF5828A14121FAE
:1020510042AE82AF8390F802EEF0EFA3F08E828F52
:1020610083A3A3E0FE7F00801C89828814121F4293
:10207100AC82AD8390F802ECF0EDA3F08C828D83FD
:10208100E0FCFE7F007406253DFBE4353EFCAD3FE0
:102091008B828C838DF012436CFCA312436CFDC3C5
:1020A100EC9EED9F50048C068D07EE4F700990DE7B
:1020B10011E0FD74204DF090F802E0FCA3E0FD8EEC
:1020C100398F3A8C828D83021D0290DE0EE4F090EE
:1020D100DE11E0FF30E40E90F7DBE4F090DE11E07A
:1020E100FE74804EF0EF30E22490DE11E4F090FCBB
:1020F100667404F090F7DBE4F0D291900014C0070D
:10210100123B5EC291900014123B5ED00790F7DB48
:10211100E0FEBE0319D291900032C007123B5EC2AD
:1021210091900032123B5ED00790F7DBE4F090F71C
:10213100DBE0600302240BEF20E00302240B90DEBE
:102141000EE4F090DE16E0FFFE7B407C007D40EE69
:10215100601690DE20E0FA8B828C838DF01241D5DF
:10216100A3AB82AC831E80E7E540FE20E703022299
:10217100DE74605EFD6015BD2003022298BD400340
:102181000222A4BD60030222C90223F3741F5EFF71
:102191007041AD41BD0002801CBD06028005BD0835
:1021A10026800C90004075F040121FD30223F312D9
:1021B1001EFD0223F375370275380090459475F0C2
:1021C10080121C8E0223F390004075F040122F2DD7
:1021D1000223F3BF0145AD41BD00028005BD0A26C2
:1021E100801275370275380090459475F080121C85
:1021F1008E0223F375370175380090459775F0808D
:10220100121C8E0223F390DE11E0FD74204DF0903C
:10221100004075F040122F2D0223F3BF0236AD416D
:10222100BD00028008BD12030223F380127537023C
:1022310075380090459475F080121C8E0223F3903E
:10224100DE11E0FD74204DF090004075F040122F3A
:102251002D0223F3BF032BE4B54112753702753804
:102261000090459475F080121C8E0223F390DE11CC
:10227100E0FD74204DF090004075F040122F2D02CA
:1022810023F390004075F040122F2D90DE11E0FDF8
:1022910074204DF00223F390DE11E0FD74204DF027
:1022A1000223F3E52E452F60131222AF800BC02EBF
:1022B100C02F90004075F040220223F3900040753A
:1022C100F0401224220223F390DE11E0FD74204D30
:1022D100F090004075F040122F2D0223F374605EE0
:1022E100FD6015BD20030223AABD40030223BEBD2C
:1022F10060030223E10223F3741F5EFF7048AE41C5
:10230100BE01030223F3BE03030223F3BE050280D1
:102311000BBE07030223F3BE0917800990DE00E517
:1023210042F00223F390004075F040121F0C02238B
:10233100F390004075F040122F2D90DE11E0FE74F5
:10234100204EF00223F3BF0129AE41BE0103022357
:10235100F3BE03030223F3BE11030223F3900040F3
:1023610075F040122F2D90DE11E0FE74204EF00228
:1023710023F3BF0220AF41BF01028076BF03028079
:102381007190004075F040122F2D90DE11E0FF7426
:10239100204FF0805D90DE11E0FF74204FF090003F
:1023A1004075F040122F2D804990004075F0401289
:1023B1002F2D90DE11E0FF74204FF08035E52E4582
:1023C1002F60121223C9800BC02EC02F90004075C0
:1023D100F04022801D90004075F0401224228012AE
:1023E10090DE11E0FF74204FF090004075F0401234
:1023F1002F2D90DE11E0FF74404FF0E54645477008
:102401000990DE11E0FF74084FF090F7DBE0FFBFA9
:102411000103121D7090F7DBE0FFBF0203021DFEF6
:1024210022AFF0AE83E58290F804F0EEA3F0EFA3C3
:10243100F090F804E0FDA3E0FEA3E0FF8D828E831F
:102441008FF012436CFC20E70302257C74012DFA06
:10245100E43EFB8F048A828B838CF012436CFC6018
:102461001EBC0102802BBC0202803CBC03028073B3
:10247100BC0403022519BCFE030225360225E275C0
:10248100370275380090FC6575F000121C8E02252C
:10249100E290DE00E0FC7B007539288B3A8C828B60
:1024A10083121D020225E274022DFAE43EFB8F0421
:1024B1008A828B838CF012436CFAA312436CFB74F7
:1024C100062DF8E43EF98F04888289838CF012434B
:1024D1006CF539A312436CF53A8A828B83121D0283
:1024E1000225E28D028E038F048A488B498C4A743F
:1024F100062DF8E43EF98F04888289838CF012431B
:102501006CF537A312436CF538854882854983857C
:102511004AF0121C8E0225E290F7D1E0FAA3E0FB0B
:10252100A3E0FC753910753A008A828B838CF01216
:102531001D020225E274022DFAE43EFB8F0490FC99
:102541006B7499F07445A3F07480A3F0751404754D
:1025510015008A828B838CF0123C23E5828583F0FF
:1025610045F06012D29190012C123B5EC291900114
:102571002C123B5E806B75C983806690F7F1E0FC9D
:10258100BC015674022DFDE43EFE8D828E838FF0D8
:1025910012436CFDA312436CFE90DE0EE4F090DE5C
:1025A10016E0FF7C007513088F828C83C007C0067C
:1025B100C005C004123BA3D004D005D006D007EF5C
:1025C1004C601690DE20E0FB8D828E83F0A3AD82FD
:1025D100AE831FBFFF011C80E690F7DAE054FDFFD8
:1025E100F09000002290F7ECE0FF30E10A90FC66E9
:1025F1007405F090FFFF2290DE0E7405F090DE1658
:10260100E0FF8F4B754C0090DE17E0FCE4254BF5A5
:102611004BEC354CF54C90F7EAE0FCA3E0FD4C7037
:102621005890F7E6E4F0A3F090DE2AE090F7E8F0A6
:1026310090DE2AE090F7E9F090DE2AE0FD7C009040
:10264100F7EAEDF0ECA3F090DE2AE0FAE4FB2DFDD1
:10265100EA3CFC90F7EAEDF0ECA3F0E54B24FCF545
:102661004BE54C34FFF54CC374049D74029C500936
:1026710090F7EA7404F003A3F0E52955D16012D272
:1026810091900014123B5EC291900014123B5E8047
:10269100E890F7E3E0FBA3E0FCA3E090F7E6E0FAC3
:1026A100A3E0FFEA2BFBEF3CFC7480252942D68591
:1026B100268285278374DEF0852682852783A3748D
:1026C1002AF0852682852783A3A38C07EFF0852630
:1026D10082852783A3A3A3EBF0852682852783A385
:1026E100A3A3A3A3A3A3E0543FF085268285278358
:1026F100A3A3A3A3A3A3A3E054CF4410F07405257F
:1027010026FEE43527FF90DE16E0FD8E828F83EDF5
:10271100F074042526FEE43527FF90DE17E08E8253
:102721008F83541FF5F0E054E045F0F090F7E6E0B8
:10273100FEA3E0FFEE254BFCEF354CFDC374049C7A
:1027410074029D500B7404C39EF54B74029FF54CAB
:10275100C37440954BE4954C502890FC667406F088
:1027610090DE14E0FD74FE5DF07513049000051217
:102771003BA3751310854B82854C83123BA390FFBD
:10278100FE22E52942D6E52942D7E54B2EFEE54C4E
:102791003FFF90F7E6EEF0EFA3F0E52955D160FA9F
:1027A100E529F452D190F7E6E0FEA3E0FF90F7EAC5
:1027B100E0FCA3E0FDC3EE9CEF9D402C90F7ECE024
:1027C1004402F090F7EAE4F0A3F090DE0E7405F015
:1027D100AE2374BF5524FF8E238F2490DE14E0FFB7
:1027E10074FE5FF09000012290DE0E7405F0AE23BE
:1027F10074BF5524FF8E238F2490DE14E0FF74FEF6
:102801005FF09000002290F7ECE0FF20E1012290C0
:10281100F7E3E0FDA3E0FEA3E0FF90F807EDF0EEA3
:10282100A3F090F7E8E0F55474FFB5540280030279
:102831002C9990F7E9E0FBBB80005003022C7BEB65
:10284100246F5003022C7BEB2480FA240A83F58247
:10285100EA241583F583E4737B10A6E3C3FA1B32E4
:102861006B547B7B7B7BD3066228292A2A292A2B5E
:102871002B2B2B2C2C2C2C2B2C2C8D828E838FF004
:1028810012436CFA74012DF54FE43EF5508A5275EE
:10289100530090F7EAE552F0E553A3F0854F8285A6
:1028A1005083E0F5517401254FF554E43550F55549
:1028B100A9518902E4F92552F552EA3553F55390AD
:1028C100F7EAE552F0E553A3F0855482855583E09C
:1028D100F8854F82855083A3A3884D894EE0FAE4A1
:1028E100254DF54DEA354EF54E854D35854E3690E3
:1028F100F7E8E0FA90F7E9E0F53285523385533491
:102901008A821219E190F7EAE4F0A3F0022C918D8A
:10291100828E838FF012436CFA8D828E83A38A4D4F
:10292100754E00E0FA74022DF554E43EF5558A0126
:102931008902E4254DF54DEA354EF54EA84DAA4ED6
:1029410090F7EEE8F0EAA3F090F7E6E0F9A3E0FAF9
:10295100E924FEF54DEA34FFF54E854D52854E537F
:10296100E5524553603D90F7EEE0F54FA3E0F55099
:102971007401254FF9E43550FA90F7EEE9F0EAA336
:10298100F0855482855583E0FAA385825485835569
:10299100854F82855083EAF0155274FFB5520215B6
:1029A1005380BD90F7E8E0FA90F7E9E0F53275352C
:1029B100EA7536F77533027534008A821219E1021D
:1029C1002C9190F7ECE0FA20E23C8D828E838FF01F
:1029D10012436CFA8D828E83A38A4D754E00E0FA04
:1029E10090F80774022DF0E43EA3F08A018902E415
:1029F100F9254DF54DEA354EF54EA84DAA4E90F705
:102A0100EEE8F0EAA3F090F7EAE0F9A3E0FA894DE5
:102A11008A4EC37440954DE4954E5006754D4075F0
:102A21004E00E9C3954DF9EA954EFA90F7EAE9F0BF
:102A3100EAA3F090F807E0F552A3E0F553854D5471
:102A4100854E55E5544555603D90F7EEE0F54FA3B1
:102A5100E0F5507401254FF9E43550FA90F7EEE9AD
:102A6100F0EAA3F0855282855383E0FAA38582526E
:102A7100858353854F82855083EAF0155474FFB5E1
:102A81005402155580BD90F7E8E0FA90F7E9E0F5BA
:102A9100327535EA7536F77533027534008A82125C
:102AA10019E1022C91D291900002C007C006C00525
:102AB100123B5EC291900002123B5ED005D006D05F
:102AC1000790F7E8E0FA90F7E9E0F53290F7E6E0F1
:102AD100F533A3E0F5348D358E368A821219E10281
:102AE1002C9175359E7536458B3275330D753400D5
:102AF1008554821219E1022C9190FC67E0F8A3E061
:102B0100F9A3E0A3E0883589368B32753304753437
:102B1100008554821219E1022C9175358375364571
:102B21008B327533117534008554821219E1022CF0
:102B31009190F7E6E0F533A3E0F5348B328D358ED5
:102B4100368554821219E19000C8123B5E12306042
:102B5100022C9175357A7536458B3275330975348A
:102B6100008554821219E1022C918D828E838FF09F
:102B710012436CFC74012DF9E43EFABC0202800A96
:102B8100BC03028021BC0429800DC002C0011231A6
:102B910029D001D002801AC291C002C00112317342
:102BA100D001D002800BC002C00112314AD001D045
:102BB1000290F7E8E0FC90F7E9E0F53290F7E6E003
:102BC100F533A3E0F53489358A368C821219E10296
:102BD1002C9190F7EA7401F0E4A3F075353675365F
:102BE100DF90F7E8E0FC90F7E9E0F53290F7EAE0F2
:102BF100F533A3E0F5348C821219E190F7EAE4F0A1
:102C0100A3F0022C918D028E048C017C0090FC6B50
:102C110074ACF07445A3F07480A3F07514098C159D
:102C21008A8289838CF0C007C006C005123C23E567
:102C3100828583F0D005D006D00745F0705275C962
:102C41008090F7E8E0FC90F7E9E0F53290F7E6E0F4
:102C5100F533A3E0F5348D358E368C821219E1807F
:102C61002F90FC65E4F090FC66F090F809EDF0EE31
:102C7100A3F0758202122CC1801690F7E6E0F533BD
:102C8100A3E0F5348B328D358E368554821219E1ED
:102C910090F7ECE054FDF022E530453160198530C4
:102CA10082853183120089AE82AF83EE4F7010901E
:102CB100F7ECE054FDF02290F7ECE054FDFFF02238
:102CC100E58290F80BF090F7ECE054FDF090F7E816
:102CD100E0FF90F7E9E0F53290F80BE0FE8E3375F6
:102CE100340090F809E0F535A3E0F5368F8202193A
:102CF100E1E52330E01175220274FE5523FEAF2475
:102D01008E238F2443BE01E5235406602F90FC657A
:102D1100740AF075220374FD5523FEAF248E238FB0
:102D21002490DE01E0FF74044FF0900008123B5E36
:102D310090DE01E0FF74FB5FF075220190DE0EE48E
:102D4100F090DE11E0FF30E21A90DE11E0FF74DB5B
:102D51005FF090F7CFE4F0A3F090F7D4F0A3F090F8
:102D6100F7DBF090DE0E7405F090DE11E0FF30E548
:102D71002090DE11E0FF74CF5FF090FC667408F0E4
:102D810090F7E1E4F0A3F090F7E6F0A3F090F7ED0F
:102D9100F090DE14E0FF30E62090DE14E0FF749F37
:102DA1005FF090FC667408F090F7E1E4F0A3F09016
:102DB100F7E6F0A3F090F7EDF0E52320E2057404C7
:102DC100B52214121B3690FC65740BF074FB55236D
:102DD100FEAF248E238F24E52330E4111220CB741F
:102DE100E75523FE740F5524FF8E238F24E52430ED
:102DF100E65490FC65740CF01225E6AE82AF83BEFA
:102E0100FE41BFFF3E90F80C7406F0E4A3F090F78A
:102E1100E8E0FF90F7E9E0F53275350C7536F875A5
:102E210033027534008F821219E190F7E8E0FF75E3
:102E3100350C7536F87532017533027534008F82A1
:102E41001219E1122807E52354E07006E52454BD68
:102E5100602990FC667409F0751308900044123BD8
:102E6100A3852382852483751310123BA374E05537
:102E710023FE74BD5524FF8E238F2422C0E0C0821F
:102E8100C083C007C006C005C004C0D075D000E52E
:102E9100BE30E6FB90DE06E0FF7E00E5234207E55B
:102EA1002442068F238E2490DE02E0FDE4CDC4CDC2
:102EB1006DCD54F0CD6DFCED4207EC42068F238EB3
:102EC1002490DE04E025E0FCE4FD4207EC42068F9D
:102ED10023EEF52430E11290F7ECE054FEF0AE233E
:102EE10074FD5524FF8E238F24758B00C2E8D0D04A
:102EF100D004D005D006D007D083D082D0E032C034
:102F0100E0C007C0D075D000E5BE30E6FBC2AFE53A
:102F11008930E703752203AFBE74FC5FF5BE758986
:0D2F210000C2C5D2AFD0D0D007D0E0322220
:10457A00534443437633343000444F4E53444F4EF2
:10458A00474C45207230343530000000000000529C
:10459A0053544E00554E494D504C454D454E544589
:1045AA00440052455345545F4E4F570012011001C3
:1045BA0000000040501D48600001010203010A0684
:1045CA0010010000004001000902200001010080E2
:1045DA00FA090400000200000100070585024000F4
:1045EA000107050502400001040309040C035200F7
:1045FA006600430061007400180344006F006E00F7
:10460A007300200044006F006E0067006C006500B4
:0C461A000A03300030003000300000FFC8
:102F2E00AF83E58290F80EF0EFA3F090F80EE0FE7E
:102F3E00A3E0FF7C007D008E028F038A828B83E0EC
:102F4E00F9A3AA82AB83E960070CBC00EE0D80EBFF
:102F5E007532F08C338D348E358F367582FE0219B4
:102F6E00E1AF83E58290F810F0EFA3F090F810E057
:102F7E00FEA3E0FF7C007D008E028F038A828B838E
:102F8E00E493F9A3AA82AB83E960070CBC00ED0DB4
:102F9E0080EA8E358F367532F08C338D347582FE25
:102FAE000219E1E58290F812F07535127536F87552
:102FBE0032F17533017534007582FE0219E1AF836B
:102FCE00E58290F813F0EFA3F07535137536F875AA
:102FDE0032F27533027534007582FE0219E1AF824A
:102FEE00AE83ADF0FC90F815EFF0EEA3F0EDA3F08C
:102FFE00ECA3F07535157536F87532F37533047527
:08300E0034007582FE0219E195
:0500E400E4F50DF50E2E
:103016007E197FF88FD57E197FF88ED47E217FF8B2
:103026008FD37E217FF87F008ED28F147515188F6F
:103036001690F81975F0000241157403B50D06E4F3
:10304600B50E02800280047582FF22AE0DAF0E051A
:103056000DE4B50D02050E8E822290DF46E0FFBF1D
:10306600F00E90DF47E0FFBF0D0690DF487469F071
:10307600C2AF759A0075B80075A800121C8BAFBE5A
:10308600747F5FF5BE75D69FC29102000022124181
:1030960089AC82AD83AEF0FFC004C005C006C00790
:1030A6009037BD75F086743D124011AC82AD83AE8B
:1030B600F0FFE58124FCF581E4C0E0C0E074C0C007
:1030C600E07441C0E08C828D838EF0EF1242A9AC91
:1030D60082AD83AEF0FFE58124FCF5818C828D8381
:1030E6008EF0EF12419CAC82AD83AEF090DF09EE1C
:1030F600F08D0390DF0AEBF090DF0BECF02275E128
:103106000490DF3BE0FFBF01F890FC3CE0F5E19066
:10311600FC3CE0FFBF04012290DF3BE0FFBF010261
:1031260080ED2290FC3CE0FFBF02012290DF13E01D
:10313600FF74F05FF0E0FF740F4FF090FC3C7402F8
:10314600F002356890FC3CE0FFBF03012290DF13DC
:10315600E0FF74F05FF0E0FF740A4FF090FC3C74FF
:1031660003F0F5E190DF3BE0FFBF13F82290FC3C53
:10317600E0FFBF04012290DF13E0FF74F05FF0AFC1
:103186009174EF5FF59175E10490DF3BE0FFBF01BD
:10319600F8AF9B74FC5FF59BAFE974EF5FF5E990C0
:1031A600FC3C7404F02290FC3FE4F0A3F090FC3267
:1031B600F0A3F090FC34F0A3F053C6C7759D0085CC
:1031C6009E9E439E0485A9A943B90190FC3C7404C4
:1031D600F0751400751500F51690F83275F00012AA
:1031E60041151218CBD2A87591D175E900750F005B
:1031F600439A0175E10490DF3BE0FFBF01F8227EB0
:10320600007F00C3EE94DCEF9405502490DF3CE091
:10321600FD5450600490000122900032C007C006A1
:10322600123B85D006D00774322EFEE43FFF80D3D2
:1032360090000022AF83E58290FC5CF0EFA3F09053
:10324600FC5EE4F090DF02E0FF90DF3BE0FEBE13A1
:103256000BB291C007122CF2D00780EDC29190FC00
:10326600AAE4F090FC58E0FDA3E0FE90FCA0EDF08F
:10327600EEA3F090FC5AE0FBA3E0FC90FCA6EBF07A
:10328600ECA3F090FC56E0F9A3E0FA90FCA2E9F07A
:10329600EAA3F090FCA4E9C39BF0EA9CA3F090FC9F
:1032A600A4E0FBA3E0FC8D148E158B828C83C007F3
:1032B600C006C005C002C0011241F0AB82AC83D08B
:1032C60001D002D005D006D00790FCA8EB29F0EC7F
:1032D6003AA3F0E94A705D90FC5CE0FBA3E0FC8B4E
:1032E600828C83E0F8881075110090FC56E510F08A
:1032F600E511A3F090DF04E0F8530003B800028064
:1033060018B8010280030233CC90FC5674012510D4
:10331600F0E43511A3F00233CC90FC5C74012BF081
:10332600E43CA3F090FC56E0FBA3E0FC90DF02EB4C
:10333600F00233CC90DF04E0FC530403BC000280AF
:1033460046BC010280030233CC90FC5CE0FBA3E0A8
:10335600FC90FC5FE9F0EAA3F090FC617401F0E4F4
:10336600A3F08B828C83C007C002C001123B09D038
:1033760001D002D00790FC5CE0FBA3E0FC89008B47
:10338600828C83E8F0803FED4E603690FCA8E0FD2D
:10339600A3E090DF02EDF090DF04E0FE74FC5EF047
:1033A60090FCA8E0FDA3E0FEC374FF9DE49E5009D7
:1033B60090DF04E0FE74024EF090FCAA7401F080E7
:1033C6000590DF02E9F0D2A890FCABE0FE20E30313
:1033D6000234FA90DF04E0FE530603BE010690FCB9
:1033E6005E7401F090FC5EE0FE90FC5CE0FCA3E005
:1033F600FDEE2CFAE43DFB90FC56E0F8A3E0F990D4
:10340600FC7DE8F0E9A3F08A828B83C007C006C082
:1034160005C004123E52AA82AB83D004D005D00662
:10342600D00790FCABE0F9530104B90448C007EE9D
:103436002CF8E43DF990FCABE0FF5307F090FC81DB
:10344600E8F0E9A3F090FC83EAF0EBA3F090FC85AA
:10345600EFF088828983C007C006C005C004C00398
:10346600C002123E8CD002D003D004D005D006D0C4
:1034760007D0078046C007EE2CF8E43DF990FCAB78
:10348600E0FF5307F090FC88E8F0E9A3F090FC8A8F
:10349600EAF0EBA3F090FC8CEFF088828983C007FA
:1034A600C006C005C004C003C002123ED5D002D07B
:1034B60003D004D005D006D007D007EE601E90FCDE
:1034C600ABE0FE5306F0BE50098C828D837410F07B
:1034D60080228A068C828D83EEF0801890FCABE009
:1034E600FE5306F0BE500890DF027410F08005907F
:1034F600DF02EAF090FC5CE0FDA3E0FE90FC38ED14
:10350600F0EEA3F090FC9EE4F0A3F075E1037D607D
:103516007EEA90DF3BE0FCBC1302801C1DBDFF0170
:103526001EED4E6013B291C007C006C005122CF204
:10353600D005D006D00780DAD291ED4E700690FC09
:10354600667413F090DF3BE0FEBE130BB291C0072A
:10355600122CF2D00780EDC29190DF02EFF0758257
:103566000122D2A875140075150075160290F8325E
:1035760075F00012411590FC32E4F0A3F090FC3493
:10358600F0A3F090FC36F090FC3704F090F831E4AC
:10359600F0AF9B74FC5FF59BAFE974EF5FF5E975DF
:1035A600E10290DF3BE0FFBF0DF84391102290FC53
:1035B600AD7401F02290FCADE4F022C021C0E0C061
:1035C600F0C082C083C007C006C005C004C003C0E7
:1035D60002C001C000C0D075D00090FC657411F027
:1035E600C28990DF3BE0FFBF0D028003023704D2A1
:1035F6009190FC97E0FF602A90FC98E0FEA3E0FF24
:1036060090FC98E024FFFCA3E034FFFD90FC98ECCE
:10361600F0EDA3F074FF2F400990DF04E0FF74FC87
:103626005FF090FC3C7402F090F831E025E0FEE497
:103636002432FFEE34F8FEE075F002A42432FC7466
:10364600FC35F0FD8C828D83E0FAA3E0FB74012A41
:10365600F8E43BF98C828D83E8F0E9A3F0EA2FF5D4
:1036660082EB3EF583E5D9F090F831E075F002A4DF
:103676002432F58274FC35F0F583E0FEA3E0FFC347
:103686009402501A90F831E075F002A42432F582C3
:1036960074FC35F0F583E0FEA3E0FF4E701A90F857
:1036A60031E0FF75F002A42432F58274FC35F0F5A2
:1036B6008374FFF07401A3F090FC98E0FEA3E0FF92
:1036C6004E60030238BA90FC97E0FF70030238BAE6
:1036D60090FC9AE0FEA3E0FF90FC98EEF0EFA3F0DA
:1036E60090FC98E0FEA3E090DF02EEF090DF04E0AD
:1036F600FF74FC5FF0E0FF74024FF00238BA90DF0F
:103706003BE0FFBF130280030238BA90FCAAE0FF39
:10371600700302384B90FC4EE0FEA3E0FF0EBE00A5
:10372600010F90FC4EEEF0EFA3F090FC9EE0FEA39E
:10373600E0FF90FCA2E0FCA3E0FDEEB50406EFB5C9
:103746000502800302381E90FCA0E0FEA3E0FF4EB7
:10375600603790FCA0E0FEA3E0FFBEFF05BF0002BD
:10376600801490FCA0E024FFFEA3E034FFFF90FC51
:10377600A0EEF0EFA3F090FCA6E0FEA3E0FF90FC25
:103786009EEEF0EFA3F002381E90FCA2E0F514A323
:10379600E0F51590FC9CE0FF7E008F828E8312413F
:1037A600F0AE82AF8390FC38E0FCA3E0FDEE2CF592
:1037B60082EF3DF583E4F090FC9CE02401F0E0FF0D
:1037C60090FC9DE0FEEFB5060590FC9CE4F090FCB5
:1037D600A2E0F514A3E0F51590FC9CE0FF7E008FB7
:1037E600828E831241F0AE82AF8390FC38E0FCA358
:1037F600E0FDEE2CFEEF3DFF8E828F83E070109091
:10380600FC41E4F090FC667412F0123104C291900F
:10381600FC9E7401F0E4A3F090FCA8E0FEA3E0FF98
:1038260090FCA8E024FFFCA3E034FFFD90FCA8EC8C
:10383600F0EDA3F0BEFF22BF001F90DF04E0FF748F
:10384600FC5FF0801490FCA8E024FFFEA3E034FFA8
:10385600FF90FCA8EEF0EFA3F090FC3C7403F09010
:10386600FCA2E0F514A3E0F51590FC9CE0FF7E00B9
:103876008F828E831241F0AE82AF8390FC9EE0FC75
:10388600A3E0FD90FC9EE02401F0A3E03400F0EC00
:103896002EFEED3FFF90FC38E0FCA3E0FDEE2CF59C
:1038A60082EF3DF583E0F5D990FC3AE02401F0A3E0
:1038B600E03400F0D0D0D000D001D002D003D00444
:1038C600D005D006D007D083D082D0F0D0E0D0216A
:1038D60032C021C0E0C0F0C082C083C007C006C0AD
:1038E60005C004C003C002C001C000C0D075D0002E
:1038F60075120090FC657410F0AE9B74FC5EF59B2F
:10390600E5E9420FE5E930E02090FC3DE0FDA3E06B
:103916008D067D00AB9C7C0090FC3FED4BF0EE4CA1
:10392600A3F0AEE974FE5EF5E9E5E95470700302B2
:103936003ABA90FC3CE0FEBE030AAE0F748F5EF509
:103946000F023AB390F831E0FEB40100E4332436B6
:10395600F582E434FCF583E0FEBE01028003023A00
:103966009090FCABE0FE20E103023A6990DF04E0B0
:10397600FE530603BE010375120190FCABE0FE5335
:103986000601BE017090F831E025E0FDE42432FE28
:10399600ED34F8FDAB127C00EB2EFEEC3DFDE0F9BC
:1039A60029FAE42432F9EA34F8FAEB29FBEC3AFC7A
:1039B600E075F002A42432F58274FC35F0F583E05C
:1039C600F9A3E0FAA8127F00E9C398F9EA9FFA90F2
:1039D600FCABE0FF5307F090FC81EBF0ECA3F0901A
:1039E600FC83E9F0EAA3F090FC85EFF08E828D83EC
:1039F600123E8C806E90F831E025E0FEE42432FF22
:103A0600EE34F8FEAC127D00EC2FFFED3EFEE02515
:103A1600E0FAE42432FBEA34F8FAEC2BFCED3AFD4A
:103A2600E075F002A42432F58274FC35F0F583E0EB
:103A3600FAA3E0FBA8127900EAC398FAEB99FB9087
:103A4600FCABE0F95301F090FC88ECF0EDA3F090AC
:103A5600FC8AEAF0EBA3F090FC8CE9F08F828E836F
:103A6600123ED590F831E0FF74016FF0E0FF75F07B
:103A760002A42432F58274FC35F0F583E4F0A3F059
:103A860090FC36F090FC37F0802190FC667412F0C2
:103A9600B29190F831E0FF75F002A42432F58274F9
:103AA600FC35F0F583E4F0A3F0B291C291AFE9746E
:103AB600CF5FF5E9E5E930E61490FC667410F0B2E4
:103AC60091123104B291AFE974BF5FF5E9E5E930CF
:103AD600E71490FC667411F0B291123104B291AF02
:103AE600E9747F5FF5E9D0D0D000D001D002D003D1
:103AF600D004D005D006D007D083D082D0F0D0E055
:103B0600D02132AF83E58290FC63F0EFA3F090FC06
:103B160061E0FEA3E0FF90FC63E0FCA3E0FD90FC07
:103B26005FE0FAA3E0FB8A008B011ABAFF011BE8EB
:103B3600496024EE2AF8EF3BF9E82CF8E93DF9EA6A
:103B46002CF582EB3DF583C006C007E088828983A9
:083B5600F0D007D00680CF2259
:104626000000000000000100000000000000000083
:07463600000000000000007D
:103B5E00AE82AF831EBEFF011FC3E49E74808FF042
:103B6E0063F08095F0500F7C4C7D041CBCFF011D52
:103B7E00EC4D70F780DE22AE82E583CE25E0CE33AB
:103B8E00FF1EBEFF011FC3E49E74808FF063F080A2
:103B9E0095F040ED22AE82AF83D2919003E8C0073C
:103BAE00C006123B5EC2919001F4123B5ED006D06D
:103BBE00071513AD13ED20E754EE30E024900019F5
:103BCE00C007C006C005123B5ED291900226123B82
:103BDE005EC291900019123B5ED005D006D00780D0
:103BEE0022900113C007C006C005123B5ED2919011
:103BFE000032123B5EC291900113123B5ED005D093
:103C0E0006D007EFC313CE13CEFF1D80A8C291902E
:103C1E0003E8023B5EAFF0AE83E58290FC6EF0EE01
:103C2E00A3F0EFA3F090FC6EE0FDA3E0FEA3E0FF97
:103C3E0090FC6BE0FAA3E0FBA3E0FCA814A915E846
:103C4E00496051C000C0018D828E838FF012436C8B
:103C5E00F98A828B838CF012436CF8E9C398F516BF
:103C6E00D001D000E5166010E516F5173395E0F596
:103C7E0018851782851883220DBD00010E90FC6EEB
:103C8E00EDF0EEA3F0EFA3F00ABA00010B18B8FFA7
:103C9E00011980AB90000022AFBE74FB5FF5BEE54C
:103CAE00BE30E6FBAFC674B85FF5C6E5C620E6FBD0
:103CBE0043BE04E5BE30E6FB53C6C743E40C43E403
:103CCE0001D2B92243FE03C29122C0E0C082C0835A
:103CDE00C0D090FC67E02401F0A3E03400F0A3E034
:103CEE003400F0A3E03400F0D0D0D083D082D0E006
:103CFE0032123040AF8290FC75EFF08FF005F07409
:103D0E0001800225E0D5F0FB90FC76F0EF75F0080F
:103D1E00A42419FE74F835F0FF90FC71EEF0EFA3B9
:103D2E00F08E828F83A3A374DFF08E828F83A3A382
:103D3E00A374B1F08E828F83A3A3A3A3A37410F0F8
:103D4E0074062EF582E43FF583E054E0441DF074D2
:103D5E00072EF582E43FF583E0543F4440F07407AC
:103D6E002EF582E43FF583E054FC4401F01230401E
:103D7E00AF8290FC77EFF08FF005F0740180022592
:103D8E00E0D5F0FB90FC78F0EF75F008A42419FE56
:103D9E0074F835F0FF90FC73EEF0EFA3F08E828F87
:103DAE008374DFF08E828F83A374B2F08E828F8342
:103DBE00A3A3A3A3A37410F074062EF582E43FF51B
:103DCE0083E054E0441EF074072EF582E43FF58341
:103DDE00E054CF4410F074072EF582E43FF583E0F3
:103DEE0054FC4401F043A91043B91022AF83E5827D
:103DFE0090FC7BF0EFA3F0E5B330E3FB90FC71E0B9
:103E0E00FEA3E0FF90FC7BE0FCA3E0FD8C028D03A3
:103E1E008B028E828F83EAF090FC71E0FEA3E0FFAE
:103E2E008E828F83A37D00ECF090FC76E042D690DC
:103E3E00FC79E0FF90FC7AE0FE4F4401F5B3E5B368
:103E4E0030E3FB22AF83E58290FC7FF0EFA3F0908E
:103E5E00FC7FE0FEA3E0FF90FC7DE0FCA3E0FDEC28
:103E6E00540F60158C028D030CBC00010DEA2EF56B
:103E7E0082EB3FF583E4F080E68C828D8322AF8364
:103E8E00E58290FC86F0EFA3F090FC86E0FEA3E0C6
:103E9E00FF90FC81E0FCA3E0FD90FC83E0FAA3E040
:103EAE00FB90FC85E0F990FC8FECF0EDA3F090FC1C
:103EBE0091EAF0EBA3F090FC93E4F090FC94E9F01F
:103ECE008E828F83023F1FAF83E58290FC8DF0EFD1
:103EDE00A3F090FC8DE0FEA3E0FF90FC88E0FCA335
:103EEE00E0FD90FC8AE0FAA3E0FB90FC8CE0F990F8
:103EFE00FC8FECF0EDA3F090FC91EAF0EBA3F090C8
:103F0E00FC937402F090FC94E9F08E828F83023F52
:103F1E001FAF83E58290FC95F0EFA3F0E5B330E39D
:103F2E00FB90FC95E0FEA3E0FF90FC8FE0F51AA35A
:103F3E00E0F51B90FC94E0FB74505BF51990FC933C
:103F4E00E0F94B4401FB740149F51890FC91E0F542
:103F5E0014A3E0F515E4F516F517C3E5169514E56B
:103F6E00179515400122C00390FC71E0F8A3E0FB09
:103F7E00E5162EF9E5173FFA89048A058D04888225
:103F8E008B83ECF090FC71E0FCA3E0FD8C828D83C2
:103F9E00A3E9F090FC73E0FCA3E0FD8C828D83A37B
:103FAE00A3E516251AFCE517351BFD8C028D038B38
:103FBE0002EAF090FC73E0FAA3E0FB8A828B83A303
:103FCE00A3A3ECF090FC78E0FD90FC76E0FC4D4273
:103FDE00D6D003E5196017E51424F0FCE51534FF7F
:103FEE00FDECB51609EDB517058518B380028BB338
:103FFE00E5B330E3FB74102516F516E43517F51707
:10400E00023F681240B4BC000302427BEF60FA30FC
:10401E00D502B2D1E583B4FF03024291E582B4FF2B
:10402E0003024291258340072482400B02427B24E7
:10403E0083145003024291F582EA8DF0A4A8F0EAAF
:10404E008EF0A428F8E435F0F9EB8DF0A428E935CC
:10405E00F0F9E433CA8FF0A429F9EA35F0FAEBF857
:10406E008EF0A429F9EA35F0FAE433FBEC8DF0A4D6
:10407E0029F9EA35F0FAE43BFBE88FF0A42AFAEBD3
:10408E0035F0FBE433CCFD8EF0A42AFAEB35F0FBD1
:10409E00E43CFCED8FF0A42BFBEC35F0FC20E703A9
:1040AE001240E202425AAA82AB83A2F73392D1F5B2
:1040BE00826002D2F7ACF0E58124F9F8E6FD08E65D
:1040CE00FE0886F008E6A2F73392D5F5836002D299
:0440DE00F7AFF02226
:0600BA00E478FFF6D8FD1A
:1040E2007804EC7011E58224F8500AF582E4C9CA1A
:1040F200CBFCD8EF22EC7820058220E713D5820191
:1041020022C3E933F9EA33FAEB33FBEC33FCD8EAA6
:10411200158222AC82AD83AE15AF16BE0004EF60ED
:104122000C1F0FE5141241D5A3DEFADFF88C828D45
:104132008322AD82AE83AFF08D198E1A8F1B851448
:104142001C85151D85161EA817A918880389041831
:10415200B8FF0119EB4C6025851C82851D83851EE5
:10416200F012436CFCA385821C85831D8D828E8395
:104172008FF0EC1241D5A3AD82AE8380CE85198239
:07418200851A83851BF02262
:100098007917E94400601B7A019046267897759392
:1000A800FCE493F2A308B800020593D9F4DAF275D8
:0200B80093FFB4
:10418900FCABF0AA83A982749EC2D1F5821240E2E7
:1041990002425A7F9E1241C330D10302427BC3EFD0
:1041A9009582500974FFF5F0F583F58222790012A2
:1041B900438889828A838BF0EC22AA82AB83A2F797
:1041C9003392D1F5826002D2F7ACF02220F7113098
:1041D900F6138883A88220F509F6A883758300223F
:1041E90080FEF280F5F022E5828514F0A4C582C034
:1041F900F08515F0A4D0F025F0C5838514F0A42529
:1042090083F58322E514451560467A01E51425E016
:10421900F514E515334012F515E5829514E58395F6
:104229001540030A80E6C3E51513F515E51413F5E2
:1042390014C3E5829514F5F0E58395154005F583DA
:1042490085F082C3E51513F515E51413F514DAE1C4
:014259002242
:1000C0007800E84400600A79007593F0E4F309D8F9
:1000D000FC7897E8440C600C790D90F000E4F0A3F4
:0400E000D8FCD9FA75
:02008900E4731E
:10425A00B98003EA13B34010EA2401FAE43BFBE411
:10426A003CFC50047C800582BC000EBB000BBA00EB
:10427A0008E4F5F0F583F58222A2D1E582138CF0E9
:10428A0092F78B838A8222E4F583F58275F080F4B3
:10429A00A2D11322E4F583F58275F0C0747F22124D
:1042AA0040B430D502B2D1BF0009BC000302429E1D
:1042BA00024291BC000302427BE583B4FF0BE58214
:1042CA00B4FF0302429E02427BE582B4FF0302422C
:1042DA0091C395835007247F400B02427B248014AC
:1042EA005003024291F582C3ED9AEE9BEF9C401176
:1042FA001582C3EA33F9EB33FAEC33FBE433FC807F
:10430A0005E4CCCBCAF9C08275F019C3E99DEA9ECF
:10431A00EB9FEC9400D5F002802D400EE99DF9EA5E
:10432A009EFAEB9FFBEC9400FCC3B3E833F8E582FA
:10433A0033F582E58333F583C3E933F9EA33FAEBDC
:10434A0033FBEC33FC80C4B3E4F938FAE43582FB7E
:10435A00E43583FCD082500405827C801240E2025C
:02436A0042729D
:0D008B007581551243CBE5826003020086AB
:10436C0020F71430F6148883A88220F507E6A8837A
:10437C0075830022E280F7E49322E0226040F82566
:10438C0082500274FFF582E824F8501ECCCBCAF997
:10439C00E4CC24F85014CBCAF9E4CB24F8500BCA63
:1043AC00F9E4CA24F8500379002224086010F8C3F9
:1043BC00EC13FCEB13FBEA13FAE913F9D8F12275B1
:0343CC008200224A
:00000001FF
