:0600000002008B021EE766
:01000B0032C2
:0100130032BA
:01001B0032B2
:0100230032AA
:01002B0032A2
:030033000217A30E
:01003B003292
:01004300328A
:03004B000225FE8D
:01005300327A
:01005B003272
:01006300326A
:03006B0002182652
:01007300325A
:01007B003252
:030083000221FD5A
:0300E9000200868C
:0300860002031062
:2000EC0090F000E4F0A3F0A3F0A3F090F00404F0021A4FE50A70012290F6E2740DF0AF9A60
:20010C0074FE5FF59AE50A20E4030201AD90F2AEE0FFB40100E433FF24B3FDE434F6FE8D86
:20012C00828E83E060030201AD90DF04E0FE30E03B8F06EE2EFDE424AFF582ED34F2F5832A
:20014C00E0FE8E327533008F06EE2EFDE424AFFEED34F2FD74012EF534E43DF5357531011C
:20016C00758242C007120339D007802890DF02E0FE8E327533008F06EE2EFDE424AFFEED9F
:20018C0034F2FD8E348D35753101758242C007120339D007EF24B3F582E434F6F5837401A8
:2001AC00F0750A00439A012290F260E0FEA3E0FF90F265E0FDBD425D90F266E0FDBD025589
:2001CC0090F263E0FCA3E0FD1CBCFF011D90F6D3ECF0EDA3F090F6D5E4F0A3F090F6D7F019
:2001EC00A3F08E828F83121B60D291900002122484C29190000112248490F265E0FF90F21C
:20020C0066E0F53175345375352C7532017533008F8212033990F269E054FDF09000002227
:20022C0090DF2FE4F090DF30F090DF31F090DF0074AAF090DF01740FF090DF027430F0902C
:20024C00DF037440F090DF04E4F090DF05F090DF06F090DF077406F090DF08E4F090DF0959
:20026C007424F090DF0A742EF090DF0B74EEF090DF0C74BAF090DF0D74B5F090DF0E7405EF
:20028C00F090DF0F7423F090DF107411F090DF117436F090DF127407F090DF13740FF090DE
:2002AC00DF147418F090DF1514F090DF16746CF090DF177403F090DF187440F090DF1974D2
:2002CC0091F090DF1A7456F090DF1B7410F090DF1C74E9F090DF1D742AF090DF1EE4F0906D
:2002EC00DF1F741FF090DF237488F090DF247431F090DF257409F090DF2E74C0F0221225B0
:20030C00CC0225F812030A1205B1D29190012C122484C29190012C122484121AD21200EC5F
:0D032C001205E0D2AF1216181200FF80F883
:022C530030004F
:20033900AF827E0190DE0E7405F090F6E27412F0E5324533700302047A7C107D2790DE1100
:20035900E0FB30E00D90F6E37401F01CBCFF011D80EBEC4D7014D2919003E8122484C291B6
:200379009003E812248490FFFF22BE012C7E0090DE2A7440F0EFF0E531F0AC327D00ECF0BE
:20039900E533F0C3743B9532E4953350067C3B7D00801AAC32AD338014C374409532E4952A
:2003B9003350067C407D008004AC32AD337480252842D6852582852683AA34AB358B01E93A
:2003D900F0852582852683A3EAF0852582852683A3A374DEF0852582852683A3A3A3742A7A
:2003F900F0852582852683A3A3A3A3A3ECFBF0852582852683A3A3A3A3E054E0F08525827E
:20041900852683A3A3A3A3A3A3A3E0543F4440F0852582852683A3A3A3A3A3A3A3E054CF67
:20043900F0E52842D6E52842D7E52855D160FAE528F452D190DE0E7405F090DE11E0FB7404
:20045900014BF0E532C39CF532E5339DF533EC2534F534ED3535F53590F6E27413F00203FA
:200479004990F6E27414F090000022E521700512161880F722AFBE747F5FF5BE43BE8090B1
:20049900DE0B74F7F090DE0774FFF090DE09F0438C10AF8C74FE5FF58CD2BD439A027589E8
:2004B90000C2C5758B00C2E843A90243B902852582852683A3A3A3A3E054E0F0852582856B
:2004D9002683A3A3A3A3A3A3E0549F4420F0852582852683A3A3A3A3A3A3A3E04408F085F1
:2004F9002582852683A3A3A3A3A3A3A3E054FC4401F090DE01E0FF74FE5FF0E4F524F52211
:20051900F523F52190DE0EF090DE107408F090DE13F090F258E4F090F257F090F24CF0A3F5
:20053900F090F24E7405F074F0A3F0E4A3F090F251F0A3F090F253F090F254F090F255F063
:20055900A3F090DE0E7405F090DE107408F090DE13F090DE12E0FF74014FF090DE15E0FF3A
:2005790074014FF090F26AE4F090F269F090F25EF0A3F090F2607445F074F0A3F0E4A3F0B7
:2005990090F263F0A3F090F265F090F266F090F267F0A3F0439A0222121966858227852753
:2005B900F005F07401800225E0D5F0FBF528E52775F008A42496F52574F235F0F52690F647
:2005D900E27402F002048ED29022C29022AFF0AE83E58290F273F0EEA3F0EFA3F090F25835
:2005F900E06034D2919003E8122484C2919003E8122484D2919003E8122484C2919003E8E8
:20061900122484D2919003E8122484C2919003E812248490FFFF2290F273E0FDA3E0FEA341
:20063900E0FF90F249EDF0EEA3F0EFA3F090F24CE536F0E537A3F090F2587401F0900000C0
:2006590022AF83E58290F276F0EFA3F090F258E06034D2919003E8122484C2919003E81296
:200679002484D2919003E8122484C2919003E8122484D2919003E8122484C2919003E81221
:20069900248490FFFF2290F276E0FEA3E0FF7D0090F249EEF0EFA3F0EDA3F090F24CE5387E
:2006B900F0E539A3F090F2587401F0900000227F0290DE0EE4F090F24CE0FDA3E0FEC3745B
:2006D900409DE49E50047C4080048D047F0A8C027B00EDC39AFDEE9BFE90F24CEDF0EEA3E1
:2006F900F08C06EE603690F249E0FBA3E0FCA3E0FD8B828C838DF0122BF090DE20F090F270
:2007190049E0FBA3E0FCA3E0FD0BBB00010C90F249EBF0ECA3F0EDA3F01E80C790DE11E061
:200739004FF090F24CE0FEA3E0FF4E700590F258E4F02290F2587402F07582002290F24E77
:20075900E0FDA3E0FEA3E0FF90DE11E0FCB40100E433FC20E0F290DE0EE4F090DE16E0FCDB
:200779007B0090F251ECF0EBA3F090F257E0FC30E11390F2587403F090DE11E0FC74044C7F
:20079900F090FFFF2290F257E04402F090F251E0FBA3E0FCC374409BE49C501CD291900192
:2007B9002CC007C006C005122484C29190012C122484D005D006D00790F251E0FBA3E0FC6F
:2007D9008D07EB4C601690DE20E0FD8F828E83F0A3AF82AE831BBBFF011C80E6E52B452C64
:2007F9006009852B82852C8312008990F251E0FEA3E0FFC3EE9440EF9400501DE529452A51
:200819006009852982852A8312008990DE11E0FF74084FF090F258E4F090DE11E0FF744080
:200839004FF090F251E0FEA3E08E82F5832285822D85832E2285822F858330227536017545
:20085900370090002475F0400205E6AFF0AE83E58290F278F0EEA3F0EFA3F090F278E0FD07
:20087900A3E0FEA3E0FF74022DFDE43EFE8D828E838FF0122BF0FDA3122BF08D24752101BB
:2008990022AF827D917E2C8D828E83A3E090F27BF0AC0F90F27BE0FBBBFF02803EEBB507F0
:2008B90023EC700890F27B74FFF080E71C8D828E83E02DFDE43EFE8D828E83A3E0FB90F24B
:2008D9007BF080CF8D828E83E02DFDE43EFE8D828E83A3E0FB90F27BF080B88D828E8322F6
:2008F900AFF0AE83E58290F27CF0EEA3F0EFA3F090F27CE0F53CA3E0F53DA3E0F53E7402C7
:20091900253CFAE4353DFBAC3E8A828B838CF0122BF0F8A3122BF0F9893A753B007402B506
:200939003A06E4B53B0280227407B53A06E4B53B028002804274AF58FE7F008A828B838CBE
:20095900F0EE122AA6A3EF122AA68A828B838CF0122BF0FAA3122BF0F5828A0F12089AAE4B
:2009790082AF8390F27FEEF0EFA3F08E828F83A3A3E0FE7F00801C8982880F12089AAC8264
:20099900AD8390F27FECF0EDA3F08C828D83E0FCFE7F007406253CFBE4353DFCAD3E8B821A
:2009B9008C838DF0122BF0FCA3122BF0FDC3EC9EED9F50048C068D07EE4F700990DE11E034
:2009D900FD74204DF090F27FE0FCA3E0FD8E388F398C828D8302065A90DE0EE4F090DE11F6
:2009F900E0FF30E40E90F258E4F090DE11E0FE74804EF0EF30E22490DE11E4F090F6E3744B
:200A190004F090F258E4F0D291900014C007122484C291900014122484D00790F258E0FE53
:200A3900BE0319D291900032C007122484C291900032122484D00790F258E4F090F258E00F
:200A59006003020D31EF20E003020D3190DE0EE4F090DE16E0FFFE7B3F7C007D40EE6016A0
:200A790090DE20E0FA8B828C838DF0122AA6A3AB82AC831E80E7E53FFE20E703020C047444
:200A9900605EFD6015BD2003020BBEBD4003020BCABD6003020BEF020D19741F5EFF7041A6
:200AB900AD40BD0002801CBD06028005BD0826800C90003F75F0401208F9020D19120855F6
:200AD900020D19753602753700902C6F75F0801205E6020D1990003F75F040121853020D47
:200AF90019BF0145AD40BD00028005BD0A268012753602753700902C6F75F0801205E602A7
:200B19000D19753601753700902C7275F0801205E6020D1990DE11E0FD74204DF090003F0A
:200B390075F040121853020D19BF0236AD40BD00028008BD1203020D198012753602753742
:200B590000902C6F75F0801205E6020D1990DE11E0FD74204DF090003F75F0401218530227
:200B79000D19BF032BE4B54012753602753700902C6F75F0801205E6020D1990DE11E0FD74
:200B990074204DF090003F75F040121853020D1990003F75F04012185390DE11E0FD742071
:200BB9004DF0020D1990DE11E0FD74204DF0020D19E52D452E6013120BD5800BC02DC02E12
:200BD90090003F75F04022020D1990003F75F040120D48020D1990DE11E0FD74204DF0907E
:200BF900003F75F040121853020D1974605EFD6015BD2003020CD0BD4003020CE4BD6003DF
:200C1900020D07020D19741F5EFF7048AE40BE0103020D19BE0303020D19BE0502800BBE03
:200C39000703020D19BE0917800990DE00E541F0020D1990003F75F040120864020D1990AC
:200C5900003F75F04012185390DE11E0FE74204EF0020D19BF0129AE40BE0103020D19BE44
:200C79000303020D19BE1103020D1990003F75F04012185390DE11E0FE74204EF0020D19EB
:200C9900BF0220AF40BF01028076BF0302807190003F75F04012185390DE11E0FF74204FCC
:200CB900F0805D90DE11E0FF74204FF090003F75F040121853804990003F75F04012185372
:200CD90090DE11E0FF74204FF08035E52D452E6012120CEF800BC02DC02E90003F75F04037
:200CF90022801D90003F75F040120D48801290DE11E0FF74204FF090003F75F0401218538D
:200D190090DE11E0FF74404FF0E5454546700990DE11E0FF74084FF090F258E0FFBF0103A6
:200D39001206C890F258E0FFBF020302075622AFF0AE83E58290F281F0EEA3F0EFA3F090FF
:200D5900F281E0FDA3E0FEA3E0FF8D828E838FF0122BF0FC20E703020EA274012DFAE43EE5
:200D7900FB8F048A828B838CF0122BF0FC601EBC0102802BBC0202803CBC03028073BC0435
:200D990003020E3FBCFE03020E5C020F0875360275370090F6E275F0001205E6020F0890DA
:200DB900DE00E0FC7B007538288B398C828B8312065A020F0874022DFAE43EFB8F048A824C
:200DD9008B838CF0122BF0FAA3122BF0FB74062DF8E43EF98F04888289838CF0122BF0F57D
:200DF90038A3122BF0F5398A828B8312065A020F088D028E038F048A478B488C4974062D2C
:200E1900F8E43EF98F04888289838CF0122BF0F536A3122BF0F5378547828548838549F0D1
:200E39001205E6020F0890F24EE0FAA3E0FBA3E0FC7538107539008A828B838CF012065A69
:200E5900020F0874022DFAE43EFB8F0490F6E87474F0742CA3F07480A3F0750F0475100006
:200E79008A828B838CF0122549E5828583F045F06012D29190012C122484C29190012C1241
:200E99002484806B75C983806690F26EE0FCBC015674022DFDE43EFE8D828E838FF0122B84
:200EB900F0FDA3122BF0FE90DE0EE4F090DE16E0FF7C00750E088F828C83C007C006C00532
:200ED900C0041224C9D004D005D006D007EF4C601690DE20E0FB8D828E83F0A3AD82AE83B3
:200EF9001FBFFF011C80E690F257E054FDFFF09000002290F269E0FF30E10A90F6E3740507
:200F1900F090FFFF2290DE0E7405F090DE16E0FF8F4A754B0090DE17E0FCE4254AF54AEC58
:200F3900354BF54B90F267E0FCA3E0FD4C705890F263E4F0A3F090DE2AE090F265F090DE76
:200F59002AE090F266F090DE2AE0FD7C0090F267EDF0ECA3F090DE2AE0FAE4FB2DFDEA3CBF
:200F7900FC90F267EDF0ECA3F0E54A24FCF54AE54B34FFF54BC374049D74029C500990F221
:200F9900677404F003A3F0E52855D16012D291900014122484C29190001412248480E890C4
:200FB900F260E0FBA3E0FCA3E090F263E0FAA3E0FFEA2BFBEF3CFC7480252842D6852582EC
:200FD90085268374DEF0852582852683A3742AF0852582852683A3A38C07EFF0852582853A
:200FF9002683A3A3A3EBF0852582852683A3A3A3A3A3A3A3E0543FF0852582852683A3A399
:20101900A3A3A3A3A3E054CF4410F074052525FEE43526FF90DE16E0FD8E828F83EDF0746E
:20103900042525FEE43526FF90DE17E08E828F83541FF5F0E054E045F0F090F263E0FEA38F
:20105900E0FFEE254AFCEF354BFDC374049C74029D500B7404C39EF54A74029FF54BC374EA
:2010790040954AE4954B502890F6E37406F090DE14E0FD74FE5DF0750E049000051224C9F0
:20109900750E10854A82854B831224C990FFFE22E52842D6E52842D7E54A2EFEE54B3FFF3E
:2010B90090F263EEF0EFA3F0E52855D160FAE528F452D190F263E0FEA3E0FF90F267E0FC17
:2010D900A3E0FDC3EE9CEF9D402C90F269E04402F090F267E4F0A3F090DE0E7405F0AE222C
:2010F90074BF5523FF8E228F2390DE14E0FF74FE5FF09000012290DE0E7405F0AE2274BF0E
:201119005523FF8E228F2390DE14E0FF74FE5FF09000002290F269E0FF20E1012290F26039
:20113900E0FDA3E0FEA3E0FF90F284EDF0EEA3F090F265E0F55374FFB5530280030215BF6D
:2011590090F266E0FBBB800050030215A1EB246F50030215A1EB2480FA240A83F582EA2425
:201179001583F583E473A136CC09E9204158917AA1A1A1A1F92C88111213141214141414B9
:2011990014151515151415158D828E838FF0122BF0FA74012DF54EE43EF54F8A51755200DD
:2011B90090F267E551F0E552A3F0854E82854F83E0F5507401254EF553E4354FF554A95092
:2011D9008902E4F92551F551EA3552F55290F267E551F0E552A3F0855382855483E0F8852E
:2011F9004E82854F83A3A3884C894DE0FAE4254CF54CEA354DF54D854C34854D3590F265AE
:20121900E0FA90F266E0F5318551328552338A8212033990F267E4F0A3F00215B78D828EC6
:20123900838FF0122BF0FA8D828E83A38A4C754D00E0FA74022DF553E43EF5548A018902CB
:20125900E4254CF54CEA354DF54DA84CAA4D90F26BE8F0EAA3F090F263E0F9A3E0FAE924BC
:20127900FEF54CEA34FFF54D854C51854D52E5514552603D90F26BE0F54EA3E0F54F7401BB
:20129900254EF9E4354FFA90F26BE9F0EAA3F0855382855483E0FAA3858253858354854E68
:2012B90082854F83EAF0155174FFB55102155280BD90F265E0FA90F266E0F53175346775A9
:2012D90035F27532027533008A821203390215B790F269E0FA20E23C8D828E838FF0122B76
:2012F900F0FA8D828E83A38A4C754D00E0FA90F28474022DF0E43EA3F08A018902E4F92550
:201319004CF54CEA354DF54DA84CAA4D90F26BE8F0EAA3F090F267E0F9A3E0FA894C8A4D61
:20133900C37440954CE4954D5006754C40754D00E9C3954CF9EA954DFA90F267E9F0EAA3C2
:20135900F090F284E0F551A3E0F552854C53854D54E5534554603D90F26BE0F54EA3E0F54E
:201379004F7401254EF9E4354FFA90F26BE9F0EAA3F0855182855283E0FAA38582518583F0
:2013990052854E82854F83EAF0155374FFB55302155480BD90F265E0FA90F266E0F53175AD
:2013B90034677535F27532027533008A821203390215B7D291900002C007C006C0051224E7
:2013D90084C291900002122484D005D006D00790F265E0FA90F266E0F53190F263E0F532B4
:2013F900A3E0F5338D348E358A821203390215B775347975352C8B3175320D753300855395
:20141900821203390215B790F6E4E0F8A3E0F9A3E0A3E0883489358B317532047533008543
:2014390053821203390215B775345E75352C8B317532117533008553821203390215B790A3
:20145900F263E0F532A3E0F5338B318D348E358553821203399000C81224841219860215AA
:20147900B775345575352C8B317532097533008553821203390215B78D828E838FF0122B62
:20149900F0FC74012DF9E43EFABC0202800ABC03028021BC0429800DC002C001121A4FD0A0
:2014B90001D002801AC291C002C001121A99D001D002800BC002C001121A70D001D002908B
:2014D900F265E0FC90F266E0F53190F263E0F532A3E0F53389348A358C821203390215B795
:2014F90090F2677401F0E4A3F07534367535DF90F265E0FC90F266E0F53190F267E0F53205
:20151900A3E0F5338C8212033990F267E4F0A3F00215B78D028E048C017C0090F6E87487FA
:20153900F0742CA3F07480A3F0750F098C108A8289838CF0C007C006C005122549E582856D
:2015590083F0D005D006D00745F0705275C98090F265E0FC90F266E0F53190F263E0F5322B
:20157900A3E0F5338D348E358C82120339802F90F6E2E4F090F6E3F090F286EDF0EEA3F01D
:201599007582021215E7801690F263E0F532A3E0F5338B318D348E3585538212033990F294
:2015B90069E054FDF022E52F45306019852F82853083120089AE82AF83EE4F701090F26951
:2015D900E054FDF02290F269E054FDFFF022E58290F288F090F269E054FDF090F265E0FF4F
:2015F90090F266E0F53190F288E0FE8E3275330090F286E0F534A3E0F5358F82020339E5A2
:201619002230E01175210274FE5522FEAF238E228F2343BE01E5225406602F90F6E2740AE3
:20163900F075210374FD5522FEAF238E228F2390DE01E0FF74044FF090000812248490DE29
:2016590001E0FF74FB5FF075210190DE0EE4F090DE11E0FF30E21A90DE11E0FF74DB5FF066
:2016790090F24CE4F0A3F090F251F0A3F090F258F090DE0E7405F090DE11E0FF30E52090F4
:20169900DE11E0FF74CF5FF090F6E37408F090F25EE4F0A3F090F263F0A3F090F26AF090E1
:2016B900DE14E0FF30E62090DE14E0FF749F5FF090F6E37408F090F25EE4F0A3F090F26346
:2016D900F0A3F090F26AF0E52220E2057404B5211412048E90F6E2740BF074FB5522FEAF14
:2016F900238E228F23E52230E4111209F174E75522FE740F5523FF8E228F23E52330E65476
:2017190090F6E2740CF0120F0CAE82AF83BEFE41BFFF3E90F2897406F0E4A3F090F265E09D
:20173900FF90F266E0F5317534897535F27532027533008F8212033990F265E0FF7534892D
:201759007535F27531017532027533008F8212033912112DE52254E07006E52354BD6029DA
:2017790090F6E37409F0750E089000441224C9852282852383750E101224C974E05522FE6D
:2017990074BD5523FF8E228F2322C0E0C082C083C007C006C005C004C0D075D000E5BE3021
:2017B900E6FB90DE06E0FF7E00E5224207E52342068F228E2390DE02E0FDE4CDC4CD6DCD93
:2017D90054F0CD6DFCED4207EC42068F228E2390DE04E025E0FCE4FD4207EC42068F22EE5A
:2017F900F52330E11290F269E054FEF0AE2274FD5523FF8E228F23758B00C2E8D0D0D00450
:20181900D005D006D007D083D082D0E032C0E0C007C0D075D000E5BE30E6FBC2AFE58930A7
:1B183900E703752103AFBE74FC5FF5BE758900C2C5D2AFD0D0D007D0E03222A1
:202C5500534443437633343000444F4E53444F4E474C45207230343530000000000000529B
:202C750053544E00554E494D504C454D454E5445440052455345545F4E4F57001201100179
:202C950000000040501D48600001010203010A0610010000004001000902200001010080B3
:202CB500FA0904000002000001000705850240000107050502400001040309040C03520058
:202CD5006600430061007400180344006F006E007300200044006F006E0067006C00650039
:0C2CF5000A03300030003000300000FF07
:20185400AF83E58290F28BF0EFA3F090F28BE0FEA3E0FF7C007D008E028F038A828B83E0DA
:20187400F9A3AA82AB83E960070CBC00EE0D80EB7531F08C328D338E348F357582FE02034C
:2018940039AF83E58290F28DF0EFA3F090F28DE0FEA3E0FF7C007D008E028F038A828B833D
:2018B400E493F9A3AA82AB83E960070CBC00ED0D80EA8E348F357531F08C328D337582FE9C
:2018D400020339E58290F28FF075348F7535F27531F17532017533007582FE020339AF832E
:2018F400E58290F290F0EFA3F07534907535F27531F27532027533007582FE020339AF82C7
:20191400AE83ADF0FC90F292EFF0EEA3F0EDA3F0ECA3F07534927535F27531F375320475E6
:0819340033007582FE02033945
:0500E400E4F508F50938
:20193C007E967FF28FD57E967FF28ED47E9E7FF28FD37E9E7FF27F008ED28F0F7510188F96
:20195C001190F29675F000022A3B7403B50806E4B50902800280047582FF22AE08AF090507
:0A197C0008E4B5080205098E822276
:2019860090DF46E0FFBFF00E90DF47E0FFBF0D0690DF487469F0C2AF759A0075B80075A83B
:1419A600001205E3AFBE747F5FF5BE75D69FC2910200002260
:2019BA00122A5AAC82AD83AEF0FFC004C005C006C0079037BD75F086743D122937AC82ADF9
:2019DA0083AEF0FFE58124FCF581E4C0E0C0E074C0C0E07441C0E08C828D838EF0EF122BBC
:2019FA002DAC82AD83AEF0FFE58124FCF5818C828D838EF0EF122A6DAC82AD83AEF090DF0A
:201A1A0009EEF08D0390DF0AEBF090DF0BECF02275E10490DF3BE0FFBF01F890F6B9E0F5BA
:201A3A00E190F6B9E0FFBF04012290DF3BE0FFBF010280ED2290F6B9E0FFBF02012290DF5C
:201A5A0013E0FF74F05FF0E0FF740F4FF090F6B97402F0021E8E90F6B9E0FFBF0301229040
:201A7A00DF13E0FF74F05FF0E0FF740A4FF090F6B97403F0F5E190DF3BE0FFBF13F82290AB
:201A9A00F6B9E0FFBF04012290DF13E0FF74F05FF0AF9174EF5FF59175E10490DF3BE0FF39
:201ABA00BF01F8AF9B74FC5FF59BAFE974EF5FF5E990F6B97404F02290F6BCE4F0A3F09071
:201ADA00F6AFF0A3F090F6B1F0A3F053C6C7759D00859E9E439E0485A9A943B90190F6B95F
:201AFA007404F0750F00751000F51190F2AF75F000122A3B12022CD2A87591D175E90075E4
:201B1A000A00439A0175E10490DF3BE0FFBF01F8227E007F00C3EE94DCEF9405502490DF7D
:201B3A003CE0FD5450600490000122900032C007C0061224ABD006D00774322EFEE43FFFE6
:201B5A0080D390000022AF83E58290F6D9F0EFA3F090F6DBE4F090DF02E0FF90DF3BE0FEEF
:201B7A00BE130BB291C007121618D00780EDC29190F727E4F090F6D5E0FDA3E0FE90F71DAF
:201B9A00EDF0EEA3F090F6D7E0FBA3E0FC90F723EBF0ECA3F090F6D3E0F9A3E0FA90F71FBD
:201BBA00E9F0EAA3F090F721E9C39BF0EA9CA3F090F721E0FBA3E0FC8D0F8E108B828C8365
:201BDA00C007C006C005C002C001122AC1AB82AC83D001D002D005D006D00790F725EB29D8
:201BFA00F0EC3AA3F0E94A705D90F6D9E0FBA3E0FC8B828C83E0F8880B750C0090F6D3E523
:201C1A000BF0E50CA3F090DF04E0F8530003B800028018B801028003021CF290F6D374011C
:201C3A00250BF0E4350CA3F0021CF290F6D974012BF0E43CA3F090F6D3E0FBA3E0FC90DFDE
:201C5A0002EBF0021CF290DF04E0FC530403BC00028046BC01028003021CF290F6D9E0FBC4
:201C7A00A3E0FC90F6DCE9F0EAA3F090F6DE7401F0E4A3F08B828C83C007C002C001122437
:201C9A002FD001D002D00790F6D9E0FBA3E0FC89008B828C83E8F0803FED4E603690F7250F
:201CBA00E0FDA3E090DF02EDF090DF04E0FE74FC5EF090F725E0FDA3E0FEC374FF9DE49EEE
:201CDA00500990DF04E0FE74024EF090F7277401F0800590DF02E9F0D2A890F728E0FE2083
:201CFA00E303021E2090DF04E0FE530603BE010690F6DB7401F090F6DBE0FE90F6D9E0FCF2
:201D1A00A3E0FDEE2CFAE43DFB90F6D3E0F8A3E0F990F6FAE8F0E9A3F08A828B83C007C0D7
:201D3A0006C005C004122778AA82AB83D004D005D006D00790F728E0F9530104B90448C0F4
:201D5A0007EE2CF8E43DF990F728E0FF5307F090F6FEE8F0E9A3F090F700EAF0EBA3F09017
:201D7A00F702EFF088828983C007C006C005C004C003C0021227B2D002D003D004D005D0B7
:201D9A0006D007D0078046C007EE2CF8E43DF990F728E0FF5307F090F705E8F0E9A3F09074
:201DBA00F707EAF0EBA3F090F709EFF088828983C007C006C005C004C003C0021227FBD08F
:201DDA0002D003D004D005D006D007D007EE601E90F728E0FE5306F0BE50098C828D8374FC
:201DFA0010F080228A068C828D83EEF0801890F728E0FE5306F0BE500890DF027410F080B2
:201E1A000590DF02EAF090F6D9E0FDA3E0FE90F6B5EDF0EEA3F090F71BE4F0A3F075E103A0
:201E3A007D607EEA90DF3BE0FCBC1302801C1DBDFF011EED4E6013B291C007C006C0051203
:201E5A001618D005D006D00780DAD291ED4E700690F6E37413F090DF3BE0FEBE130BB291C3
:201E7A00C007121618D00780EDC29190DF02EFF075820122D2A8750F0075100075110290A5
:201E9A00F2AF75F000122A3B90F6AFE4F0A3F090F6B1F0A3F090F6B3F090F6B404F090F27C
:201EBA00AEE4F0AF9B74FC5FF59BAFE974EF5FF5E975E10290DF3BE0FFBF0DF843911022FA
:201EDA0090F72A7401F02290F72AE4F022C020C0E0C0F0C082C083C007C006C005C004C07E
:201EFA0003C002C001C000C0D075D00090F6E27411F0C28990DF3BE0FFBF0D028003022089
:201F1A002AD29190F714E0FF602A90F715E0FEA3E0FF90F715E024FFFCA3E034FFFD90F745
:201F3A0015ECF0EDA3F074FF2F400990DF04E0FF74FC5FF090F6B97402F090F2AEE025E060
:201F5A00FEE424AFFFEE34F2FEE075F002A424AFFC74F635F0FD8C828D83E0FAA3E0FB7471
:201F7A00012AF8E43BF98C828D83E8F0E9A3F0EA2FF582EB3EF583E5D9F090F2AEE075F046
:201F9A0002A424AFF58274F635F0F583E0FEA3E0FFC39402501A90F2AEE075F002A424AF1F
:201FBA00F58274F635F0F583E0FEA3E0FF4E701A90F2AEE0FF75F002A424AFF58274F6354E
:201FDA00F0F58374FFF07401A3F090F715E0FEA3E0FF4E60030221E090F714E0FF70030275
:201FFA0021E090F717E0FEA3E0FF90F715EEF0EFA3F090F715E0FEA3E090DF02EEF090DF11
:20201A0004E0FF74FC5FF0E0FF74024FF00221E090DF3BE0FFBF130280030221E090F727DC
:20203A00E0FF700302217190F6CBE0FEA3E0FF0EBE00010F90F6CBEEF0EFA3F090F71BE0E0
:20205A00FEA3E0FF90F71FE0FCA3E0FDEEB50406EFB50502800302214490F71DE0FEA3E09D
:20207A00FF4E603790F71DE0FEA3E0FFBEFF05BF0002801490F71DE024FFFEA3E034FFFFED
:20209A0090F71DEEF0EFA3F090F723E0FEA3E0FF90F71BEEF0EFA3F002214490F71FE0F534
:2020BA000FA3E0F51090F719E0FF7E008F828E83122AC1AE82AF8390F6B5E0FCA3E0FDEE6C
:2020DA002CF582EF3DF583E4F090F719E02401F0E0FF90F71AE0FEEFB5060590F719E4F0B5
:2020FA0090F71FE0F50FA3E0F51090F719E0FF7E008F828E83122AC1AE82AF8390F6B5E01B
:20211A00FCA3E0FDEE2CFEEF3DFF8E828F83E0701090F6BEE4F090F6E37412F0121A2AC255
:20213A009190F71B7401F0E4A3F090F725E0FEA3E0FF90F725E024FFFCA3E034FFFD90F785
:20215A0025ECF0EDA3F0BEFF22BF001F90DF04E0FF74FC5FF0801490F725E024FFFEA3E052
:20217A0034FFFF90F725EEF0EFA3F090F6B97403F090F71FE0F50FA3E0F51090F719E0FFD0
:20219A007E008F828E83122AC1AE82AF8390F71BE0FCA3E0FD90F71BE02401F0A3E03400DA
:2021BA00F0EC2EFEED3FFF90F6B5E0FCA3E0FDEE2CF582EF3DF583E0F5D990F6B7E0240116
:2021DA00F0A3E03400F0D0D0D000D001D002D003D004D005D006D007D083D082D0F0D0E0FD
:2021FA00D02032C020C0E0C0F0C082C083C007C006C005C004C003C002C001C000C0D075CD
:20221A00D000750D0090F6E27410F0AE9B74FC5EF59BE5E9420AE5E930E02090F6BAE0FD9A
:20223A00A3E08D067D00AB9C7C0090F6BCED4BF0EE4CA3F0AEE974FE5EF5E9E5E9547070B0
:20225A00030223E090F6B9E0FEBE030AAE0A748F5EF50A0223D990F2AEE0FEB40100E43384
:20227A0024B3F582E434F6F583E0FEBE010280030223B690F728E0FE20E10302238F90DFBF
:20229A0004E0FE530603BE0103750D0190F728E0FE530601BE017090F2AEE025E0FDE42471
:2022BA00AFFEED34F2FDAB0D7C00EB2EFEEC3DFDE0F929FAE424AFF9EA34F2FAEB29FBEC25
:2022DA003AFCE075F002A424AFF58274F635F0F583E0F9A3E0FAA80D7F00E9C398F9EA9F22
:2022FA00FA90F728E0FF5307F090F6FEEBF0ECA3F090F700E9F0EAA3F090F702EFF08E82BF
:20231A008D831227B2806E90F2AEE025E0FEE424AFFFEE34F2FEAC0D7D00EC2FFFED3EFE66
:20233A00E025E0FAE424AFFBEA34F2FAEC2BFCED3AFDE075F002A424AFF58274F635F0F5F8
:20235A0083E0FAA3E0FBA80D7900EAC398FAEB99FB90F728E0F95301F090F705ECF0EDA3D8
:20237A00F090F707EAF0EBA3F090F709E9F08F828E831227FB90F2AEE0FF74016FF0E0FFEC
:20239A0075F002A424AFF58274F635F0F583E4F0A3F090F6B3F090F6B4F0802190F6E3748F
:2023BA0012F0B29190F2AEE0FF75F002A424AFF58274F635F0F583E4F0A3F0B291C291AFA7
:2023DA00E974CF5FF5E9E5E930E61490F6E37410F0B291121A2AB291AFE974BF5FF5E9E5DC
:2023FA00E930E71490F6E37411F0B291121A2AB291AFE9747F5FF5E9D0D0D000D001D0021A
:20241A00D003D004D005D006D007D083D082D0F0D0E0D02032AF83E58290F6E0F0EFA3F0D1
:20243A0090F6DEE0FEA3E0FF90F6E0E0FCA3E0FD90F6DCE0FAA3E0FB8A008B011ABAFF0158
:20245A001BE8496024EE2AF8EF3BF9E82CF8E93DF9EA2CF582EB3DF583C006C007E0888290
:0A247A008983F0D007D00680CF223E
:172D01000000000000000100000000000000000000000000000000BA
:20248400AE82AF831EBEFF011FC3E49E74808FF063F08095F0500F7C4C7D041CBCFF011D2E
:2024A400EC4D70F780DE22AE82E583CE25E0CE33FF1EBEFF011FC3E49E74808FF063F08007
:2024C40095F040ED22AE82AF83D2919003E8C007C006122484C2919001F4122484D006D065
:2024E40007150EAD0EED20E754EE30E024900019C007C006C005122484D291900226122483
:2025040084C291900019122484D005D006D0078022900113C007C006C005122484D29190B6
:202524000032122484C291900113122484D005D006D007EFC313CE13CEFF1D80A8C29190DD
:2025440003E8022484AFF0AE83E58290F6EBF0EEA3F0EFA3F090F6EBE0FDA3E0FEA3E0FFF6
:2025640090F6E8E0FAA3E0FBA3E0FCA80FA910E8496051C000C0018D828E838FF0122BF073
:20258400F98A828B838CF0122BF0F8E9C398F511D001D000E5116010E511F5123395E0F598
:2025A40013851282851383220DBD00010E90F6EBEDF0EEA3F0EFA3F00ABA00010B18B8FFE5
:2025C400011980AB90000022AFBE74FB5FF5BEE5BE30E6FBAFC674B85FF5C6E5C620E6FBF7
:2025E40043BE04E5BE30E6FB53C6C743E40C43E401D2B92243FE03C29122C0E0C082C08358
:20260400C0D090F6E4E02401F0A3E03400F0A3E03400F0A3E03400F0D0D0D083D082D0E0DD
:012624003283
:20262500121966AF8290F6F2EFF08FF005F07401800225E0D5F0FB90F6F3F0EF75F008A4E3
:202645002496FE74F235F0FF90F6EEEEF0EFA3F08E828F83A3A374DFF08E828F83A3A3A3A9
:2026650074B1F08E828F83A3A3A3A3A37410F074062EF582E43FF583E054E0441DF07407E1
:202685002EF582E43FF583E0543F4440F074072EF582E43FF583E054FC4401F0121966AFAE
:2026A5008290F6F4EFF08FF005F07401800225E0D5F0FB90F6F5F0EF75F008A42496FE7473
:2026C500F235F0FF90F6F0EEF0EFA3F08E828F8374DFF08E828F83A374B2F08E828F83A304
:2026E500A3A3A3A37410F074062EF582E43FF583E054E0441EF074072EF582E43FF583E01A
:2027050054CF4410F074072EF582E43FF583E054FC4401F043A91043B91022AF83E58290DA
:20272500F6F8F0EFA3F0E5B330E3FB90F6EEE0FEA3E0FF90F6F8E0FCA3E0FD8C028D038B37
:20274500028E828F83EAF090F6EEE0FEA3E0FF8E828F83A37D00ECF090F6F3E042D690F68D
:20276500F6E0FF90F6F7E0FE4F4401F5B3E5B330E3FB22AF83E58290F6FCF0EFA3F090F60D
:20278500FCE0FEA3E0FF90F6FAE0FCA3E0FDEC540F60158C028D030CBC00010DEA2EF582B5
:2027A500EB3FF583E4F080E68C828D8322AF83E58290F703F0EFA3F090F703E0FEA3E0FF79
:2027C50090F6FEE0FCA3E0FD90F700E0FAA3E0FB90F702E0F990F70CECF0EDA3F090F70E4F
:2027E500EAF0EBA3F090F710E4F090F711E9F08E828F83022845AF83E58290F70AF0EFA363
:20280500F090F70AE0FEA3E0FF90F705E0FCA3E0FD90F707E0FAA3E0FB90F709E0F990F714
:202825000CECF0EDA3F090F70EEAF0EBA3F090F7107402F090F711E9F08E828F830228453F
:20284500AF83E58290F712F0EFA3F0E5B330E3FB90F712E0FEA3E0FF90F70CE0F515A3E030
:20286500F51690F711E0FB74505BF51490F710E0F94B4401FB740149F51390F70EE0F50F73
:20288500A3E0F510E4F511F512C3E511950FE5129510400122C00390F6EEE0F8A3E0FBE5EC
:2028A500112EF9E5123FFA89048A058D0488828B83ECF090F6EEE0FCA3E0FD8C828D83A379
:2028C500E9F090F6F0E0FCA3E0FD8C828D83A3A3E5112515FCE5123516FD8C028D038B02CE
:2028E500EAF090F6F0E0FAA3E0FB8A828B83A3A3A3ECF090F6F5E0FD90F6F3E0FC4D42D63A
:20290500D003E5146017E50F24F0FCE51034FFFDECB51109EDB512058513B380028BB3E5E2
:12292500B330E3FB74102511F511E43512F51202288E35
:202937001229DABC0003022AFFEF60FA30D502B2D1E583B4FF03022B15E582B4FF03022B04
:2029570015258340072482400B022AFF2483145003022B15F582EA8DF0A4A8F0EA8EF0A4CA
:2029770028F8E435F0F9EB8DF0A428E935F0F9E433CA8FF0A429F9EA35F0FAEBF88EF0A4AF
:2029970029F9EA35F0FAE433FBEC8DF0A429F9EA35F0FAE43BFBE88FF0A42AFAEB35F0FB57
:2029B700E433CCFD8EF0A42AFAEB35F0FBE43CFCED8FF0A42BFBEC35F0FC20E703122A0822
:0329D700022ADEF3
:2029DA00AA82AB83A2F73392D1F5826002D2F7ACF0E58124F9F8E6FD08E6FE0886F008E660
:0E29FA00A2F73392D5F5836002D2F7AFF02238
:0600BA00E478FFF6D8FD1A
:202A08007804EC7011E58224F8500AF582E4C9CACBFCD8EF22EC7820058220E713D58201CD
:132A280022C3E933F9EA33FAEB33FBEC33FCD8EA158222DB
:1F2A3B00AC82AD83AE10AF11BE0004EF600C1F0FE50F122AA6A3DEFADFF88C828D8322ED
:200098007917E94400601B7A01902D0178147593F7E493F2A308B800020593D9F4DAF275D8
:0200B80093FFB4
:132A5A00FCABF0AA83A982749EC2D1F582122A08022ADE10
:202A6D007F9E122A9430D103022AFFC3EF9582500974FFF5F0F583F582227900122C0C8956
:072A8D00828A838BF0EC222A
:122A9400AA82AB83A2F73392D1F5826002D2F7ACF02247
:1B2AA60020F71130F6138883A88220F509F6A8837583002280FEF280F5F0222F
:1D2AC100E582850FF0A4C582C0F08510F0A4D0F025F0C583850FF0A42583F58322C2
:2000C0007800E84400600A79007593F0E4F309D8FC7814E84407600C790890F000E4F0A34A
:0400E000D8FCD9FA75
:02008900E4731E
:202ADE00B98003EA13B34010EA2401FAE43BFBE43CFC50047C800582BC000EBB000BBA003C
:202AFE0008E4F5F0F583F58222A2D1E582138CF092F78B838A8222E4F583F58275F080F4FC
:0F2B1E00A2D11322E4F583F58275F0C0747F22F3
:202B2D001229DA30D502B2D1BF0009BC0003022B22022B15BC0003022AFFE583B4FF0BE5DC
:202B4D0082B4FF03022B22022AFFE582B4FF03022B15C395835007247F400B022AFF248068
:202B6D00145003022B15F582C3ED9AEE9BEF9C40111582C3EA33F9EB33FAEC33FBE433FCC4
:202B8D008005E4CCCBCAF9C08275F019C3E99DEA9EEB9FEC9400D5F002802D400EE99DF989
:202BAD00EA9EFAEB9FFBEC9400FCC3B3E833F8E58233F582E58333F583C3E933F9EA33FAE9
:202BCD00EB33FBEC33FC80C4B3E4F938FAE43582FBE43583FCD082500405827C80122A0813
:032BED00022AF6C3
:0D008B00758154122C4FE58260030200863F
:1C2BF00020F71430F6148883A88220F507E6A88375830022E280F7E49322E022F4
:202C0C006040F82582500274FFF582E824F8501ECCCBCAF9E4CC24F85014CBCAF9E4CB24D0
:202C2C00F8500BCAF9E4CA24F8500379002224086010F8C3EC13FCEB13FBEA13FAE913F983
:032C4C00D8F1229A
:042C4F007582002268
:00000001FF
